{
    "contractName": "CreditScore",
    "abi": [
        {
            "inputs": [
                {
                    "internalType": "address",
                    "name": "_vault",
                    "type": "address"
                },
                {
                    "internalType": "address",
                    "name": "_pool",
                    "type": "address"
                }
            ],
            "stateMutability": "nonpayable",
            "type": "constructor"
        },
        {
            "inputs": [
                {
                    "internalType": "address",
                    "name": "owner",
                    "type": "address"
                }
            ],
            "name": "OwnableInvalidOwner",
            "type": "error"
        },
        {
            "inputs": [
                {
                    "internalType": "address",
                    "name": "account",
                    "type": "address"
                }
            ],
            "name": "OwnableUnauthorizedAccount",
            "type": "error"
        },
        {
            "inputs": [],
            "name": "ScoreWeightMismatch",
            "type": "error"
        },
        {
            "inputs": [],
            "name": "ZeroAddress",
            "type": "error"
        },
        {
            "anonymous": false,
            "inputs": [
                {
                    "indexed": true,
                    "internalType": "address",
                    "name": "previousOwner",
                    "type": "address"
                },
                {
                    "indexed": true,
                    "internalType": "address",
                    "name": "newOwner",
                    "type": "address"
                }
            ],
            "name": "OwnershipTransferStarted",
            "type": "event"
        },
        {
            "anonymous": false,
            "inputs": [
                {
                    "indexed": true,
                    "internalType": "address",
                    "name": "previousOwner",
                    "type": "address"
                },
                {
                    "indexed": true,
                    "internalType": "address",
                    "name": "newOwner",
                    "type": "address"
                }
            ],
            "name": "OwnershipTransferred",
            "type": "event"
        },
        {
            "anonymous": false,
            "inputs": [
                {
                    "indexed": false,
                    "internalType": "uint256",
                    "name": "tenure",
                    "type": "uint256"
                },
                {
                    "indexed": false,
                    "internalType": "uint256",
                    "name": "volume",
                    "type": "uint256"
                },
                {
                    "indexed": false,
                    "internalType": "uint256",
                    "name": "activity",
                    "type": "uint256"
                },
                {
                    "indexed": false,
                    "internalType": "uint256",
                    "name": "accuracy",
                    "type": "uint256"
                },
                {
                    "indexed": false,
                    "internalType": "uint256",
                    "name": "consistency",
                    "type": "uint256"
                }
            ],
            "name": "WeightsUpdated",
            "type": "event"
        },
        {
            "inputs": [],
            "name": "ACTIVITY_CAP",
            "outputs": [
                {
                    "internalType": "uint256",
                    "name": "",
                    "type": "uint256"
                }
            ],
            "stateMutability": "view",
            "type": "function"
        },
        {
            "inputs": [],
            "name": "BASE_SCORE",
            "outputs": [
                {
                    "internalType": "uint256",
                    "name": "",
                    "type": "uint256"
                }
            ],
            "stateMutability": "view",
            "type": "function"
        },
        {
            "inputs": [],
            "name": "CONSISTENCY_CAP",
            "outputs": [
                {
                    "internalType": "uint256",
                    "name": "",
                    "type": "uint256"
                }
            ],
            "stateMutability": "view",
            "type": "function"
        },
        {
            "inputs": [],
            "name": "MAX_SCORE",
            "outputs": [
                {
                    "internalType": "uint256",
                    "name": "",
                    "type": "uint256"
                }
            ],
            "stateMutability": "view",
            "type": "function"
        },
        {
            "inputs": [],
            "name": "SCORE_RANGE",
            "outputs": [
                {
                    "internalType": "uint256",
                    "name": "",
                    "type": "uint256"
                }
            ],
            "stateMutability": "view",
            "type": "function"
        },
        {
            "inputs": [],
            "name": "TENURE_CAP",
            "outputs": [
                {
                    "internalType": "uint256",
                    "name": "",
                    "type": "uint256"
                }
            ],
            "stateMutability": "view",
            "type": "function"
        },
        {
            "inputs": [],
            "name": "TIER_GOLD",
            "outputs": [
                {
                    "internalType": "uint256",
                    "name": "",
                    "type": "uint256"
                }
            ],
            "stateMutability": "view",
            "type": "function"
        },
        {
            "inputs": [],
            "name": "TIER_PLATINUM",
            "outputs": [
                {
                    "internalType": "uint256",
                    "name": "",
                    "type": "uint256"
                }
            ],
            "stateMutability": "view",
            "type": "function"
        },
        {
            "inputs": [],
            "name": "TIER_SILVER",
            "outputs": [
                {
                    "internalType": "uint256",
                    "name": "",
                    "type": "uint256"
                }
            ],
            "stateMutability": "view",
            "type": "function"
        },
        {
            "inputs": [],
            "name": "VOLUME_CAP",
            "outputs": [
                {
                    "internalType": "uint256",
                    "name": "",
                    "type": "uint256"
                }
            ],
            "stateMutability": "view",
            "type": "function"
        },
        {
            "inputs": [],
            "name": "acceptOwnership",
            "outputs": [],
            "stateMutability": "nonpayable",
            "type": "function"
        },
        {
            "inputs": [
                {
                    "internalType": "address",
                    "name": "user",
                    "type": "address"
                }
            ],
            "name": "getScore",
            "outputs": [
                {
                    "internalType": "uint256",
                    "name": "score",
                    "type": "uint256"
                }
            ],
            "stateMutability": "view",
            "type": "function"
        },
        {
            "inputs": [
                {
                    "internalType": "address",
                    "name": "user",
                    "type": "address"
                }
            ],
            "name": "getScoreBreakdown",
            "outputs": [
                {
                    "internalType": "uint256",
                    "name": "total",
                    "type": "uint256"
                },
                {
                    "internalType": "uint256",
                    "name": "tenure",
                    "type": "uint256"
                },
                {
                    "internalType": "uint256",
                    "name": "volume",
                    "type": "uint256"
                },
                {
                    "internalType": "uint256",
                    "name": "activity",
                    "type": "uint256"
                },
                {
                    "internalType": "uint256",
                    "name": "accuracy",
                    "type": "uint256"
                },
                {
                    "internalType": "uint256",
                    "name": "consistency",
                    "type": "uint256"
                },
                {
                    "internalType": "string",
                    "name": "tier",
                    "type": "string"
                }
            ],
            "stateMutability": "view",
            "type": "function"
        },
        {
            "inputs": [
                {
                    "internalType": "address",
                    "name": "user",
                    "type": "address"
                }
            ],
            "name": "getScorePercent",
            "outputs": [
                {
                    "internalType": "uint256",
                    "name": "",
                    "type": "uint256"
                }
            ],
            "stateMutability": "view",
            "type": "function"
        },
        {
            "inputs": [
                {
                    "internalType": "address",
                    "name": "user",
                    "type": "address"
                }
            ],
            "name": "getTier",
            "outputs": [
                {
                    "internalType": "string",
                    "name": "",
                    "type": "string"
                }
            ],
            "stateMutability": "view",
            "type": "function"
        },
        {
            "inputs": [],
            "name": "owner",
            "outputs": [
                {
                    "internalType": "address",
                    "name": "",
                    "type": "address"
                }
            ],
            "stateMutability": "view",
            "type": "function"
        },
        {
            "inputs": [],
            "name": "pendingOwner",
            "outputs": [
                {
                    "internalType": "address",
                    "name": "",
                    "type": "address"
                }
            ],
            "stateMutability": "view",
            "type": "function"
        },
        {
            "inputs": [],
            "name": "pool",
            "outputs": [
                {
                    "internalType": "contract IPredictionPool",
                    "name": "",
                    "type": "address"
                }
            ],
            "stateMutability": "view",
            "type": "function"
        },
        {
            "inputs": [],
            "name": "renounceOwnership",
            "outputs": [],
            "stateMutability": "nonpayable",
            "type": "function"
        },
        {
            "inputs": [
                {
                    "internalType": "uint256",
                    "name": "_tenure",
                    "type": "uint256"
                },
                {
                    "internalType": "uint256",
                    "name": "_volume",
                    "type": "uint256"
                },
                {
                    "internalType": "uint256",
                    "name": "_activity",
                    "type": "uint256"
                },
                {
                    "internalType": "uint256",
                    "name": "_accuracy",
                    "type": "uint256"
                },
                {
                    "internalType": "uint256",
                    "name": "_consistency",
                    "type": "uint256"
                }
            ],
            "name": "setWeights",
            "outputs": [],
            "stateMutability": "nonpayable",
            "type": "function"
        },
        {
            "inputs": [
                {
                    "internalType": "address",
                    "name": "newOwner",
                    "type": "address"
                }
            ],
            "name": "transferOwnership",
            "outputs": [],
            "stateMutability": "nonpayable",
            "type": "function"
        },
        {
            "inputs": [],
            "name": "vault",
            "outputs": [
                {
                    "internalType": "contract IQIEVault",
                    "name": "",
                    "type": "address"
                }
            ],
            "stateMutability": "view",
            "type": "function"
        },
        {
            "inputs": [],
            "name": "weightAccuracy",
            "outputs": [
                {
                    "internalType": "uint256",
                    "name": "",
                    "type": "uint256"
                }
            ],
            "stateMutability": "view",
            "type": "function"
        },
        {
            "inputs": [],
            "name": "weightActivity",
            "outputs": [
                {
                    "internalType": "uint256",
                    "name": "",
                    "type": "uint256"
                }
            ],
            "stateMutability": "view",
            "type": "function"
        },
        {
            "inputs": [],
            "name": "weightConsistency",
            "outputs": [
                {
                    "internalType": "uint256",
                    "name": "",
                    "type": "uint256"
                }
            ],
            "stateMutability": "view",
            "type": "function"
        },
        {
            "inputs": [],
            "name": "weightTenure",
            "outputs": [
                {
                    "internalType": "uint256",
                    "name": "",
                    "type": "uint256"
                }
            ],
            "stateMutability": "view",
            "type": "function"
        },
        {
            "inputs": [],
            "name": "weightVolume",
            "outputs": [
                {
                    "internalType": "uint256",
                    "name": "",
                    "type": "uint256"
                }
            ],
            "stateMutability": "view",
            "type": "function"
        }
    ],
    "bytecode": "60c03461014e57601f610efc38819003918201601f19168301916001600160401b0383118484101761015257808492604094855283398101031261014e57610052602061004b83610166565b9201610166565b331561013b57600180546001600160a01b03199081169091555f805433928116831782556040519492916001600160a01b03909116907f8be0079c531659141344cd1fd0a4f28419497f9722a3daafe3b4186f6b6457e09080a36001600160a01b031690811561012c576001600160a01b031690811561012c5760805260a05260966002556064600355606460045560966005556032600655610d81908161017b8239608051818181610156015281816108860152818161095b0152610c01015260a05181818161073601528181610a150152610ac00152f35b63d92e233d60e01b5f5260045ffd5b631e4fbdf760e01b5f525f60045260245ffd5b5f80fd5b634e487b7160e01b5f52604160045260245ffd5b51906001600160a01b038216820361014e5756fe60806040526004361015610011575f80fd5b5f3560e01c80629b775a1461076557806316f0115b1461072157806322222de71461070457806327ff6223146106e85780632c27750a1461061a57806330a3b500146105fd5780633a56557f1461058d57806371131dc914610572578063715018a61461050f57806379ba50971461048a5780637effe5681461046e57806384f3353c1461045357806389a256fb146104365780638da5cb5b1461040f57806392e3afc6146103f05780639a0b5861146103d35780639a46e412146103ce578063ad1dc0071461031e578063b45aae52146102ce578063b7603b97146102b0578063d47875d014610279578063d86b56f71461025d578063e30c397814610235578063e3d3f84314610219578063ec3cefda146101fc578063f2fde38b146101895763fbfa77cf14610141575f80fd5b34610185575f366003190112610185576040517f00000000000000000000000000000000000000000000000000000000000000006001600160a01b03168152602090f35b5f80fd5b34610185576020366003190112610185576004356001600160a01b03811690819003610185576101b7610d38565b600180546001600160a01b031916821790555f80546001600160a01b0316907f38d16b8cac22d99fc7c124b9cd0de2d3fa1faef420bfe791d8c362d765e227009080a3005b34610185575f366003190112610185576020600354604051908152f35b34610185575f36600319011261018557602060405161028a8152f35b34610185575f366003190112610185576001546040516001600160a01b039091168152602090f35b34610185575f3660031901126101855760206040516102ee8152f35b34610185576020366003190112610185576004356001600160a01b0381168103610185576102a86020916107c5565b604051908152f35b34610185575f3660031901126101855760206040516301e133808152f35b34610185576020366003190112610185576004356001600160a01b03811681036101855761030661030161031a926107c5565b610c89565b604051918291602083526020830190610781565b0390f35b346101855760a036600319011261018557604435602435600435608435606435610346610d38565b6102266103648361035f8461035f8a61035f8b8b6107a5565b6107a5565b036103bf577f7a67f6b72b463e6dde3e06b84d460f1227df198ea0e692d44697112f1fc8cb549460a09484600255806003558160045582600555836006556040519485526020850152604084015260608301526080820152a1005b630e5dcda360e31b5f5260045ffd5b610765565b34610185575f366003190112610185576020600254604051908152f35b34610185575f3660031901126101855760206040516402540be4008152f35b34610185575f366003190112610185575f546040516001600160a01b039091168152602090f35b34610185575f366003190112610185576020600554604051908152f35b34610185575f36600319011261018557602060405160148152f35b34610185575f36600319011261018557602060405161012c8152f35b34610185575f36600319011261018557600154336001600160a01b03909116036104fc57600180546001600160a01b03199081169091555f805433928116831782556001600160a01b0316907f8be0079c531659141344cd1fd0a4f28419497f9722a3daafe3b4186f6b6457e09080a3005b63118cdaa760e01b5f523360045260245ffd5b34610185575f36600319011261018557610527610d38565b600180546001600160a01b03199081169091555f80549182168155906001600160a01b03167f8be0079c531659141344cd1fd0a4f28419497f9722a3daafe3b4186f6b6457e08280a3005b34610185575f36600319011261018557602060405160328152f35b34610185576020366003190112610185576004356001600160a01b0381168103610185576105ba906107c5565b61012b1981019081116105e9576064810290808204606414901517156105e95760209061022660405191048152f35b634e487b7160e01b5f52601160045260245ffd5b34610185575f366003190112610185576020600454604051908152f35b34610185576020366003190112610185576004356001600160a01b0381168103610185576106478161085c565b9061065181610931565b9061065b816109eb565b9161066e61066883610a9d565b92610bd7565b8461012c018061012c116105e9578161035f8561035f8861035f88610692976107a5565b9261035284116106de575b83946106ab61031a95610c89565b936040519788978852602088015260408701526060860152608085015260a084015260e060c084015260e0830190610781565b610352935061069d565b34610185575f3660031901126101855760206040516103528152f35b34610185575f366003190112610185576020600654604051908152f35b34610185575f366003190112610185576040517f00000000000000000000000000000000000000000000000000000000000000006001600160a01b03168152602090f35b34610185575f3660031901126101855760206040516102268152f35b805180835260209291819084018484015e5f828201840152601f01601f1916010190565b919082018092116105e957565b818102929181159184041417156105e957565b6107ce8161085c565b61012c01908161012c116105e9576107f561080d6108046107fb610813956107f586610931565b906107a5565b6107f5856109eb565b6107f584610a9d565b91610bd7565b90610352821161081f57565b6103529150565b90601f8019910116810190811067ffffffffffffffff82111761084857604052565b634e487b7160e01b5f52604160045260245ffd5b604051630da7a71160e31b81526001600160a01b03918216600482015290602090829060249082907f0000000000000000000000000000000000000000000000000000000000000000165afa908115610926575f916108f4575b5080156108ef5742034281116105e9576301e133808110156108e8576108e46301e1338091600254906107b2565b0490565b5060025490565b505f90565b90506020813d60201161091e575b8161090f60209383610826565b8101031261018557515f6108b6565b3d9150610902565b6040513d5f823e3d90fd5b604051635305548160e01b81526001600160a01b03918216600482015290602090829060249082907f0000000000000000000000000000000000000000000000000000000000000000165afa908115610926575f916109b9575b5080156108ef576402540be4008110156109b2576108e46402540be40091600354906107b2565b5060035490565b90506020813d6020116109e3575b816109d460209383610826565b8101031261018557515f61098b565b3d91506109c7565b6040516302ad72d960e21b81526001600160a01b03918216600482015290602090829060249082907f0000000000000000000000000000000000000000000000000000000000000000165afa908115610926575f91610a6b575b5080156108ef576032811015610a64576108e4603291600454906107b2565b5060045490565b90506020813d602011610a95575b81610a8660209383610826565b8101031261018557515f610a45565b3d9150610a79565b6040516302ad72d960e21b81526001600160a01b039182166004820181905290917f00000000000000000000000000000000000000000000000000000000000000001690602083602481855afa928315610926575f93610ba2575b5060209060246040518094819363638ba96f60e11b835260048301525afa908115610926575f91610b70575b5060058210610b6a576064810290808204606414901517156105e9578115610b56576005546064926108e492046107b2565b634e487b7160e01b5f52601260045260245ffd5b50505f90565b90506020813d602011610b9a575b81610b8b60209383610826565b8101031261018557515f610b24565b3d9150610b7e565b9092506020813d602011610bcf575b81610bbe60209383610826565b810103126101855751916020610af8565b3d9150610bb1565b604051637a221ecd60e11b81526001600160a01b03918216600482015290602090829060249082907f0000000000000000000000000000000000000000000000000000000000000000165afa908115610926575f91610c57575b5080156108ef576014811015610c50576108e4601491600654906107b2565b5060065490565b90506020813d602011610c81575b81610c7260209383610826565b8101031261018557515f610c31565b3d9150610c65565b6102ee811015610d115761028a811015610cee576102261115610cca57604051610cb4604082610826565b600681526542726f6e7a6560d01b602082015290565b604051610cd8604082610826565b600681526529b4b63b32b960d11b602082015290565b50604051610cfd604082610826565b600481526311dbdb1960e21b602082015290565b50604051610d20604082610826565b6008815267506c6174696e756d60c01b602082015290565b5f546001600160a01b031633036104fc5756fea264697066735822122085dc2780686c07d43cb4d4b9fd146b0bfe296ac40d0f0ba550d5de3186605d1b64736f6c63430008220033",
    "sourcePath": "/home/raigoza/Desktop/qie-hackathon/src/CreditScore.sol",
    "compiler": {
        "name": "solc",
        "version": "0.8.34+commit.80d5c536"
    },
    "functionHashes": {
        "ACTIVITY_CAP()": "71131dc9",
        "BASE_SCORE()": "7effe568",
        "CONSISTENCY_CAP()": "84f3353c",
        "MAX_SCORE()": "27ff6223",
        "SCORE_RANGE()": "009b775a",
        "TENURE_CAP()": "b7603b97",
        "TIER_GOLD()": "e3d3f843",
        "TIER_PLATINUM()": "d86b56f7",
        "TIER_SILVER()": "9a46e412",
        "VOLUME_CAP()": "92e3afc6",
        "acceptOwnership()": "79ba5097",
        "getScore(address)": "d47875d0",
        "getScoreBreakdown(address)": "2c27750a",
        "getScorePercent(address)": "3a56557f",
        "getTier(address)": "b45aae52",
        "owner()": "8da5cb5b",
        "pendingOwner()": "e30c3978",
        "pool()": "16f0115b",
        "renounceOwnership()": "715018a6",
        "setWeights(uint256,uint256,uint256,uint256,uint256)": "ad1dc007",
        "transferOwnership(address)": "f2fde38b",
        "vault()": "fbfa77cf",
        "weightAccuracy()": "89a256fb",
        "weightActivity()": "30a3b500",
        "weightConsistency()": "22222de7",
        "weightTenure()": "9a0b5861",
        "weightVolume()": "ec3cefda"
    },
    "gasEstimates": {
        "creation": {
            "codeDepositCost": "691400",
            "executionCost": "infinite",
            "totalCost": "infinite"
        },
        "external": {
            "ACTIVITY_CAP()": "299",
            "BASE_SCORE()": "365",
            "CONSISTENCY_CAP()": "387",
            "MAX_SCORE()": "211",
            "SCORE_RANGE()": "145",
            "TENURE_CAP()": "563",
            "TIER_GOLD()": "651",
            "TIER_PLATINUM()": "607",
            "TIER_SILVER()": "509",
            "VOLUME_CAP()": "453",
            "acceptOwnership()": "52458",
            "getScore(address)": "infinite",
            "getScoreBreakdown(address)": "infinite",
            "getScorePercent(address)": "infinite",
            "getTier(address)": "infinite",
            "owner()": "2557",
            "pendingOwner()": "2756",
            "pool()": "infinite",
            "renounceOwnership()": "52445",
            "setWeights(uint256,uint256,uint256,uint256,uint256)": "infinite",
            "transferOwnership(address)": "30757",
            "vault()": "infinite",
            "weightAccuracy()": "2512",
            "weightActivity()": "2358",
            "weightConsistency()": "2292",
            "weightTenure()": "2578",
            "weightVolume()": "2776"
        },
        "internal": {
            "_accuracyComponent(address)": "infinite",
            "_activityComponent(address)": "infinite",
            "_consistencyComponent(address)": "infinite",
            "_tenureComponent(address)": "infinite",
            "_tier(uint256)": "infinite",
            "_volumeComponent(address)": "infinite"
        }
    }
}