{
    "contractName": "PredictionPool",
    "abi": [
        {
            "inputs": [
                {
                    "internalType": "address",
                    "name": "_qusdc",
                    "type": "address"
                },
                {
                    "internalType": "address",
                    "name": "_vault",
                    "type": "address"
                },
                {
                    "internalType": "address",
                    "name": "_qiePass",
                    "type": "address"
                },
                {
                    "internalType": "address",
                    "name": "_oracle",
                    "type": "address"
                }
            ],
            "stateMutability": "nonpayable",
            "type": "constructor"
        },
        {
            "inputs": [],
            "name": "AlreadyClaimed",
            "type": "error"
        },
        {
            "inputs": [],
            "name": "BettingPeriodEnded",
            "type": "error"
        },
        {
            "inputs": [],
            "name": "BettingPeriodNotEnded",
            "type": "error"
        },
        {
            "inputs": [],
            "name": "InvalidOutcome",
            "type": "error"
        },
        {
            "inputs": [],
            "name": "InvalidTimeParams",
            "type": "error"
        },
        {
            "inputs": [],
            "name": "MarketAlreadyResolved",
            "type": "error"
        },
        {
            "inputs": [],
            "name": "MarketNotLocked",
            "type": "error"
        },
        {
            "inputs": [],
            "name": "MarketNotOpen",
            "type": "error"
        },
        {
            "inputs": [],
            "name": "MarketNotResolved",
            "type": "error"
        },
        {
            "inputs": [],
            "name": "NoLiquidity",
            "type": "error"
        },
        {
            "inputs": [],
            "name": "NoWinningPosition",
            "type": "error"
        },
        {
            "inputs": [],
            "name": "NotOracle",
            "type": "error"
        },
        {
            "inputs": [],
            "name": "NotVerified",
            "type": "error"
        },
        {
            "inputs": [],
            "name": "OnlyNeobank",
            "type": "error"
        },
        {
            "inputs": [
                {
                    "internalType": "address",
                    "name": "owner",
                    "type": "address"
                }
            ],
            "name": "OwnableInvalidOwner",
            "type": "error"
        },
        {
            "inputs": [
                {
                    "internalType": "address",
                    "name": "account",
                    "type": "address"
                }
            ],
            "name": "OwnableUnauthorizedAccount",
            "type": "error"
        },
        {
            "inputs": [],
            "name": "ReentrancyGuardReentrantCall",
            "type": "error"
        },
        {
            "inputs": [],
            "name": "ResolutionPeriodNotReached",
            "type": "error"
        },
        {
            "inputs": [
                {
                    "internalType": "address",
                    "name": "token",
                    "type": "address"
                }
            ],
            "name": "SafeERC20FailedOperation",
            "type": "error"
        },
        {
            "inputs": [],
            "name": "TransferFailed",
            "type": "error"
        },
        {
            "inputs": [],
            "name": "ZeroAddress",
            "type": "error"
        },
        {
            "inputs": [],
            "name": "ZeroAmount",
            "type": "error"
        },
        {
            "anonymous": false,
            "inputs": [
                {
                    "indexed": true,
                    "internalType": "uint256",
                    "name": "marketId",
                    "type": "uint256"
                },
                {
                    "indexed": true,
                    "internalType": "address",
                    "name": "user",
                    "type": "address"
                },
                {
                    "indexed": false,
                    "internalType": "bool",
                    "name": "isYes",
                    "type": "bool"
                },
                {
                    "indexed": false,
                    "internalType": "uint256",
                    "name": "amount",
                    "type": "uint256"
                }
            ],
            "name": "BetPlaced",
            "type": "event"
        },
        {
            "anonymous": false,
            "inputs": [
                {
                    "indexed": true,
                    "internalType": "uint256",
                    "name": "marketId",
                    "type": "uint256"
                }
            ],
            "name": "MarketCancelled",
            "type": "event"
        },
        {
            "anonymous": false,
            "inputs": [
                {
                    "indexed": true,
                    "internalType": "uint256",
                    "name": "marketId",
                    "type": "uint256"
                },
                {
                    "indexed": false,
                    "internalType": "string",
                    "name": "question",
                    "type": "string"
                },
                {
                    "indexed": false,
                    "internalType": "uint256",
                    "name": "endTime",
                    "type": "uint256"
                },
                {
                    "indexed": false,
                    "internalType": "uint256",
                    "name": "resolutionTime",
                    "type": "uint256"
                },
                {
                    "indexed": false,
                    "internalType": "uint256",
                    "name": "vaultSeed",
                    "type": "uint256"
                }
            ],
            "name": "MarketCreated",
            "type": "event"
        },
        {
            "anonymous": false,
            "inputs": [
                {
                    "indexed": true,
                    "internalType": "uint256",
                    "name": "marketId",
                    "type": "uint256"
                }
            ],
            "name": "MarketLocked",
            "type": "event"
        },
        {
            "anonymous": false,
            "inputs": [
                {
                    "indexed": true,
                    "internalType": "uint256",
                    "name": "marketId",
                    "type": "uint256"
                },
                {
                    "indexed": false,
                    "internalType": "enum PredictionPool.Outcome",
                    "name": "outcome",
                    "type": "uint8"
                },
                {
                    "indexed": false,
                    "internalType": "uint256",
                    "name": "yieldSentToVault",
                    "type": "uint256"
                }
            ],
            "name": "MarketResolved",
            "type": "event"
        },
        {
            "anonymous": false,
            "inputs": [
                {
                    "indexed": true,
                    "internalType": "address",
                    "name": "neobank",
                    "type": "address"
                }
            ],
            "name": "NeobankUpdated",
            "type": "event"
        },
        {
            "anonymous": false,
            "inputs": [
                {
                    "indexed": true,
                    "internalType": "address",
                    "name": "newOracle",
                    "type": "address"
                }
            ],
            "name": "OracleUpdated",
            "type": "event"
        },
        {
            "anonymous": false,
            "inputs": [
                {
                    "indexed": true,
                    "internalType": "address",
                    "name": "previousOwner",
                    "type": "address"
                },
                {
                    "indexed": true,
                    "internalType": "address",
                    "name": "newOwner",
                    "type": "address"
                }
            ],
            "name": "OwnershipTransferStarted",
            "type": "event"
        },
        {
            "anonymous": false,
            "inputs": [
                {
                    "indexed": true,
                    "internalType": "address",
                    "name": "previousOwner",
                    "type": "address"
                },
                {
                    "indexed": true,
                    "internalType": "address",
                    "name": "newOwner",
                    "type": "address"
                }
            ],
            "name": "OwnershipTransferred",
            "type": "event"
        },
        {
            "anonymous": false,
            "inputs": [
                {
                    "indexed": true,
                    "internalType": "uint256",
                    "name": "marketId",
                    "type": "uint256"
                },
                {
                    "indexed": true,
                    "internalType": "address",
                    "name": "user",
                    "type": "address"
                },
                {
                    "indexed": false,
                    "internalType": "uint256",
                    "name": "amount",
                    "type": "uint256"
                }
            ],
            "name": "WinningsClaimed",
            "type": "event"
        },
        {
            "inputs": [],
            "name": "BPS",
            "outputs": [
                {
                    "internalType": "uint256",
                    "name": "",
                    "type": "uint256"
                }
            ],
            "stateMutability": "view",
            "type": "function"
        },
        {
            "inputs": [],
            "name": "MIN_LIQUIDITY",
            "outputs": [
                {
                    "internalType": "uint256",
                    "name": "",
                    "type": "uint256"
                }
            ],
            "stateMutability": "view",
            "type": "function"
        },
        {
            "inputs": [],
            "name": "PROTOCOL_FEE_BPS",
            "outputs": [
                {
                    "internalType": "uint256",
                    "name": "",
                    "type": "uint256"
                }
            ],
            "stateMutability": "view",
            "type": "function"
        },
        {
            "inputs": [],
            "name": "VAULT_FEE_SHARE",
            "outputs": [
                {
                    "internalType": "uint256",
                    "name": "",
                    "type": "uint256"
                }
            ],
            "stateMutability": "view",
            "type": "function"
        },
        {
            "inputs": [],
            "name": "acceptOwnership",
            "outputs": [],
            "stateMutability": "nonpayable",
            "type": "function"
        },
        {
            "inputs": [
                {
                    "internalType": "uint256",
                    "name": "_marketId",
                    "type": "uint256"
                }
            ],
            "name": "cancelMarket",
            "outputs": [],
            "stateMutability": "nonpayable",
            "type": "function"
        },
        {
            "inputs": [
                {
                    "internalType": "uint256",
                    "name": "_marketId",
                    "type": "uint256"
                },
                {
                    "internalType": "address",
                    "name": "claimer",
                    "type": "address"
                }
            ],
            "name": "claimRefund",
            "outputs": [],
            "stateMutability": "nonpayable",
            "type": "function"
        },
        {
            "inputs": [
                {
                    "internalType": "uint256",
                    "name": "_marketId",
                    "type": "uint256"
                },
                {
                    "internalType": "address",
                    "name": "claimer",
                    "type": "address"
                }
            ],
            "name": "claimWinnings",
            "outputs": [],
            "stateMutability": "nonpayable",
            "type": "function"
        },
        {
            "inputs": [
                {
                    "internalType": "address",
                    "name": "",
                    "type": "address"
                }
            ],
            "name": "correctBets",
            "outputs": [
                {
                    "internalType": "uint256",
                    "name": "",
                    "type": "uint256"
                }
            ],
            "stateMutability": "view",
            "type": "function"
        },
        {
            "inputs": [
                {
                    "internalType": "string",
                    "name": "_question",
                    "type": "string"
                },
                {
                    "internalType": "uint256",
                    "name": "_endTime",
                    "type": "uint256"
                },
                {
                    "internalType": "uint256",
                    "name": "_resolutionTime",
                    "type": "uint256"
                },
                {
                    "internalType": "uint256",
                    "name": "_vaultSeed",
                    "type": "uint256"
                }
            ],
            "name": "createMarket",
            "outputs": [
                {
                    "internalType": "uint256",
                    "name": "marketId",
                    "type": "uint256"
                }
            ],
            "stateMutability": "nonpayable",
            "type": "function"
        },
        {
            "inputs": [
                {
                    "internalType": "uint256",
                    "name": "_marketId",
                    "type": "uint256"
                }
            ],
            "name": "lockMarket",
            "outputs": [],
            "stateMutability": "nonpayable",
            "type": "function"
        },
        {
            "inputs": [],
            "name": "marketCount",
            "outputs": [
                {
                    "internalType": "uint256",
                    "name": "",
                    "type": "uint256"
                }
            ],
            "stateMutability": "view",
            "type": "function"
        },
        {
            "inputs": [
                {
                    "internalType": "uint256",
                    "name": "",
                    "type": "uint256"
                }
            ],
            "name": "markets",
            "outputs": [
                {
                    "internalType": "string",
                    "name": "question",
                    "type": "string"
                },
                {
                    "internalType": "uint256",
                    "name": "endTime",
                    "type": "uint256"
                },
                {
                    "internalType": "uint256",
                    "name": "resolutionTime",
                    "type": "uint256"
                },
                {
                    "internalType": "uint256",
                    "name": "yesPool",
                    "type": "uint256"
                },
                {
                    "internalType": "uint256",
                    "name": "noPool",
                    "type": "uint256"
                },
                {
                    "internalType": "uint256",
                    "name": "vaultLiquidity",
                    "type": "uint256"
                },
                {
                    "internalType": "uint256",
                    "name": "totalFees",
                    "type": "uint256"
                },
                {
                    "internalType": "enum PredictionPool.MarketStatus",
                    "name": "status",
                    "type": "uint8"
                },
                {
                    "internalType": "enum PredictionPool.Outcome",
                    "name": "outcome",
                    "type": "uint8"
                }
            ],
            "stateMutability": "view",
            "type": "function"
        },
        {
            "inputs": [],
            "name": "neobank",
            "outputs": [
                {
                    "internalType": "address",
                    "name": "",
                    "type": "address"
                }
            ],
            "stateMutability": "view",
            "type": "function"
        },
        {
            "inputs": [],
            "name": "oracle",
            "outputs": [
                {
                    "internalType": "address",
                    "name": "",
                    "type": "address"
                }
            ],
            "stateMutability": "view",
            "type": "function"
        },
        {
            "inputs": [],
            "name": "owner",
            "outputs": [
                {
                    "internalType": "address",
                    "name": "",
                    "type": "address"
                }
            ],
            "stateMutability": "view",
            "type": "function"
        },
        {
            "inputs": [],
            "name": "pendingOwner",
            "outputs": [
                {
                    "internalType": "address",
                    "name": "",
                    "type": "address"
                }
            ],
            "stateMutability": "view",
            "type": "function"
        },
        {
            "inputs": [
                {
                    "internalType": "uint256",
                    "name": "_marketId",
                    "type": "uint256"
                },
                {
                    "internalType": "bool",
                    "name": "_isYes",
                    "type": "bool"
                },
                {
                    "internalType": "uint256",
                    "name": "_amount",
                    "type": "uint256"
                },
                {
                    "internalType": "address",
                    "name": "_bettor",
                    "type": "address"
                }
            ],
            "name": "placeBet",
            "outputs": [],
            "stateMutability": "nonpayable",
            "type": "function"
        },
        {
            "inputs": [
                {
                    "internalType": "uint256",
                    "name": "",
                    "type": "uint256"
                },
                {
                    "internalType": "address",
                    "name": "",
                    "type": "address"
                }
            ],
            "name": "positions",
            "outputs": [
                {
                    "internalType": "uint256",
                    "name": "yesAmount",
                    "type": "uint256"
                },
                {
                    "internalType": "uint256",
                    "name": "noAmount",
                    "type": "uint256"
                },
                {
                    "internalType": "bool",
                    "name": "claimed",
                    "type": "bool"
                }
            ],
            "stateMutability": "view",
            "type": "function"
        },
        {
            "inputs": [],
            "name": "qiePass",
            "outputs": [
                {
                    "internalType": "contract IQIEPass",
                    "name": "",
                    "type": "address"
                }
            ],
            "stateMutability": "view",
            "type": "function"
        },
        {
            "inputs": [],
            "name": "qusdc",
            "outputs": [
                {
                    "internalType": "contract IERC20",
                    "name": "",
                    "type": "address"
                }
            ],
            "stateMutability": "view",
            "type": "function"
        },
        {
            "inputs": [],
            "name": "renounceOwnership",
            "outputs": [],
            "stateMutability": "nonpayable",
            "type": "function"
        },
        {
            "inputs": [
                {
                    "internalType": "uint256",
                    "name": "_marketId",
                    "type": "uint256"
                },
                {
                    "internalType": "enum PredictionPool.Outcome",
                    "name": "_outcome",
                    "type": "uint8"
                }
            ],
            "name": "resolveMarket",
            "outputs": [],
            "stateMutability": "nonpayable",
            "type": "function"
        },
        {
            "inputs": [
                {
                    "internalType": "address",
                    "name": "_neobank",
                    "type": "address"
                }
            ],
            "name": "setNeobank",
            "outputs": [],
            "stateMutability": "nonpayable",
            "type": "function"
        },
        {
            "inputs": [
                {
                    "internalType": "address",
                    "name": "_oracle",
                    "type": "address"
                }
            ],
            "name": "setOracle",
            "outputs": [],
            "stateMutability": "nonpayable",
            "type": "function"
        },
        {
            "inputs": [
                {
                    "internalType": "address",
                    "name": "",
                    "type": "address"
                }
            ],
            "name": "totalBets",
            "outputs": [
                {
                    "internalType": "uint256",
                    "name": "",
                    "type": "uint256"
                }
            ],
            "stateMutability": "view",
            "type": "function"
        },
        {
            "inputs": [
                {
                    "internalType": "address",
                    "name": "",
                    "type": "address"
                }
            ],
            "name": "totalWagered",
            "outputs": [
                {
                    "internalType": "uint256",
                    "name": "",
                    "type": "uint256"
                }
            ],
            "stateMutability": "view",
            "type": "function"
        },
        {
            "inputs": [
                {
                    "internalType": "address",
                    "name": "newOwner",
                    "type": "address"
                }
            ],
            "name": "transferOwnership",
            "outputs": [],
            "stateMutability": "nonpayable",
            "type": "function"
        },
        {
            "inputs": [],
            "name": "vault",
            "outputs": [
                {
                    "internalType": "contract IQIEVault",
                    "name": "",
                    "type": "address"
                }
            ],
            "stateMutability": "view",
            "type": "function"
        },
        {
            "inputs": [
                {
                    "internalType": "uint256",
                    "name": "_marketId",
                    "type": "uint256"
                }
            ],
            "name": "withdrawProtocolFees",
            "outputs": [],
            "stateMutability": "nonpayable",
            "type": "function"
        }
    ],
    "bytecode": "60e0346101ca57601f61191138819003918201601f19168301916001600160401b038311848410176101ce578084926080946040528339810103126101ca57610047816101e2565b90610054602082016101e2565b9061006d6060610066604084016101e2565b92016101e2565b9033156101b757600180546001600160a01b03199081169091555f805433928116831782556040519692916001600160a01b03909116907f8be0079c531659141344cd1fd0a4f28419497f9722a3daafe3b4186f6b6457e09080a360017f9b779b17422d0df92223018b32b4d1fa46e071723d6817e2486d003becc55f00556001600160a01b03169283156101a8576001600160a01b03169081156101a8576001600160a01b03169182156101a8576001600160a01b03169283156101a85760805260a05260c052600380546001600160a01b03191691909117905561171a90816101f782396080518181816103de0152818161060f0152818161083601528181610c3401528181610cd401528181610f7e0152611382015260a05181818161017d01526103af015260c0518181816107a301526112d70152f35b63d92e233d60e01b5f5260045ffd5b631e4fbdf760e01b5f525f60045260245ffd5b5f80fd5b634e487b7160e01b5f52604160045260245ffd5b51906001600160a01b03821682036101ca5756fe6080806040526004361015610012575f80fd5b5f905f3560e01c9081630ab5cb6414611481575080631fdfe0541461141957806321b77d63146113fc578063249d39e9146113e0578063470762e9146113a85780634f449138146113065780635f726176146112c2578063715018a61461125f5780637988a63014610ef657806379ba509714610e715780637adbf97314610dfa5780637c16cd9e14610d7a5780637dc0d1d014610d525780637e67f2ba14610d2a5780638da5cb5b14610d0357806394d4e4f814610cbf578063992c907914610b54578063b1283e77146109f9578063be378228146109de578063c1de134314610742578063c71752de1461070a578063c9d1e6ee1461067a578063cec03ce31461055d578063d4db678d14610541578063df55406e146102c4578063e30c39781461029b578063e684d7181461023a578063ec9790821461021c578063f2fde38b146101af5763fbfa77cf14610168575f80fd5b346101ac57806003193601126101ac576040517f00000000000000000000000000000000000000000000000000000000000000006001600160a01b03168152602090f35b80fd5b50346101ac5760203660031901126101ac576101c96114b5565b6101d161158f565b600180546001600160a01b0319166001600160a01b0392831690811790915582549091167f38d16b8cac22d99fc7c124b9cd0de2d3fa1faef420bfe791d8c362d765e227008380a380f35b50346101ac57806003193601126101ac576020600454604051908152f35b50346101ac5760403660031901126101ac5760406102566114cb565b9160043581526006602052209060018060a01b03165f52602052606060405f2080549060ff600260018301549201541690604051928352602083015215156040820152f35b50346101ac57806003193601126101ac576001546040516001600160a01b039091168152602090f35b50346104b35760403660031901126104b35760043560243560038110156104b3576003546001600160a01b0316330361053257815f52600560205260405f206007810160ff815416600481101561051e5760010361050f57600282015442106105005782156104f1576103378382611563565b600260ff1982541617905560068101549061138882029180830461138814901517156104dd57600581016103716127108254940484611582565b92600185036104b7575060046103a06103aa92548060011c9060038601610399838254611548565b9055611548565b9201918254611548565b90555b7f00000000000000000000000000000000000000000000000000000000000000006001600160a01b031661040282827f00000000000000000000000000000000000000000000000000000000000000006115a2565b803b156104b3575f8091602460405180948193635465a69160e11b83528760048401525af180156104a85761046d575b507f661ce16e44a34377fc37c19874f4b1bec6e84b072cf8d318838fe17c20c58e44916040916104648351809361153b565b6020820152a280f35b60409194509161049e5f7f661ce16e44a34377fc37c19874f4b1bec6e84b072cf8d318838fe17c20c58e4494611519565b5f94915091610432565b6040513d5f823e3d90fd5b5f80fd5b6104d691506103a08160049260011c9060038601610399838254611548565b90556103ad565b634e487b7160e01b5f52601160045260245ffd5b63c74a206d60e01b5f5260045ffd5b6356358e0160e01b5f5260045ffd5b630ca02b8360e01b5f5260045ffd5b634e487b7160e01b5f52602160045260245ffd5b631bc2178f60e01b5f5260045ffd5b346104b3575f3660031901126104b35760206040516113888152f35b346104b35760403660031901126104b3576004356105796114cb565b61058161168c565b600254336001600160a01b0390911603610673575b5f918252600560209081526040808420600683528185206001600160a01b038516865290925290922060079092015460ff16600481101561051e5760030361066457600282019081549260ff8416610655578060016105f9925491015490611582565b9182156106465760016106339460ff19161790557f00000000000000000000000000000000000000000000000000000000000000006115a2565b60015f5160206116c55f395f51905f5255005b63db24abfd60e01b5f5260045ffd5b630c8d9eab60e31b5f5260045ffd5b63174b639360e11b5f5260045ffd5b5033610596565b346104b35760203660031901126104b357600435805f52600560205260405f20600781019060ff825416600481101561051e576106fb576001015442106106ec57805460ff191660011790557f2d597ad63f8c5090e993389fdab0249476d2f29bcbc52e99da3236a4370f11ba5f80a2005b63658aead360e01b5f5260045ffd5b63300b4e3360e21b5f5260045ffd5b346104b35760203660031901126104b3576001600160a01b0361072b6114b5565b165f526008602052602060405f2054604051908152f35b346104b35760803660031901126104b35760043560243590811515918281036104b3576064356001600160a01b0381169360443592918590036104b35761078761168c565b60405163b9209e3360e01b8152600481018690526020816024817f00000000000000000000000000000000000000000000000000000000000000006001600160a01b03165afa9081156104a8575f916109a3575b501561097b578215610994576002546001600160a01b03163314158061098a575b61097b57835f52600560205260405f209260ff600785015416600481101561051e576106fb57600184015442101561096c5761085a8130337f0000000000000000000000000000000000000000000000000000000000000000611623565b60c881029281840460c8036104dd577f4af71b021e799c62c158bd54636ca8da2fa26115a21a2dc6efe486ec104fd15f94612710604095049161089d8385611548565b926108ad60068401918254611582565b905515610933576003016108c2828254611582565b9055855f526006602052835f20875f526020526108e3845f20918254611582565b90555b855f526007602052825f206108fb8154611555565b9055855f526009602052825f20610913828254611582565b905582519182526020820152a360015f5160206116c55f395f51905f5255005b600401610941828254611582565b9055855f526006602052835f20875f526020526109656001855f2001918254611582565b90556108e6565b6356c7983160e01b5f5260045ffd5b63a95362b560e01b5f5260045ffd5b50843314156107fc565b631f2a200560e01b5f5260045ffd5b90506020813d6020116109d6575b816109be60209383611519565b810103126104b3575180151581036104b357866107db565b3d91506109b1565b346104b3575f3660031901126104b357602060405160c88152f35b346104b35760203660031901126104b3576004355f52600560205260405f20604051905f9080549183610a2b846114e1565b9182825260208201946001811690815f14610b385750600114610af7575b610a5592500384611519565b60018101549160028201549160038101546004820154600583015491600760068501549401549560ff871697604051996101208b52518097816101208d01526101408c015e5f610140888c01015260208a015260408901526060880152608087015260a086015260c0850152600483101561051e57610ae984926101409460e085015260ff61010085019160081c1661153b565b601f01601f19168101030190f35b5090825f5260205f20905f915b818310610b1c575050906020610a5592820101610a49565b6020919350806001915483858a01015201910190918592610b04565b60ff1916865250610a5592151560051b82016020019050610a49565b346104b35760403660031901126104b357600435610b706114cb565b50610b7961168c565b5f818152600560209081526040808320600683528184203385529092529091206007820154929160ff8416600481101561051e5760020361066457600282019182549460ff86166106555760081c60ff16600381101561051e57600103610cab575460046003830154920154905b80156106465781810291818304036104dd578215610c9757600192610c0d920490611582565b9360ff1916179055335f52600860205260405f20610c2b8154611555565b9055610c5882337f00000000000000000000000000000000000000000000000000000000000000006115a2565b6040519182527f5380cf6fe903b40c6d5a9e0dfbca2f3a423f0a21520b4d5947ed5169bdba946d60203393a360015f5160206116c55f395f51905f5255005b634e487b7160e01b5f52601260045260245ffd5b600101546003600483015492015490610be7565b346104b3575f3660031901126104b3576040517f00000000000000000000000000000000000000000000000000000000000000006001600160a01b03168152602090f35b346104b3575f3660031901126104b3575f546040516001600160a01b039091168152602090f35b346104b3575f3660031901126104b3576002546040516001600160a01b039091168152602090f35b346104b3575f3660031901126104b3576003546040516001600160a01b039091168152602090f35b346104b35760203660031901126104b357600435610d9661158f565b805f526005602052600760405f200160ff815416600481101561051e57600214610deb57805460ff191660031790557f2ca440fb7fca85d7f55d395a4abd94817330b83a62f3502efbb4770144e4ca975f80a2005b63aa43cb2d60e01b5f5260045ffd5b346104b35760203660031901126104b357610e136114b5565b610e1b61158f565b6001600160a01b03168015610e6257600380546001600160a01b031916821790557f3df77beb5db05fcdd70a30fc8adf3f83f9501b68579455adbd100b81809403945f80a2005b63d92e233d60e01b5f5260045ffd5b346104b3575f3660031901126104b357600154336001600160a01b0390911603610ee357600180546001600160a01b03199081169091555f805433928116831782556001600160a01b0316907f8be0079c531659141344cd1fd0a4f28419497f9722a3daafe3b4186f6b6457e09080a3005b63118cdaa760e01b5f523360045260245ffd5b346104b35760803660031901126104b35760043567ffffffffffffffff81116104b357366023820112156104b357806004013567ffffffffffffffff81116104b357602482019160248236920101116104b3576024356044359260643592610f5c61158f565b4283111561125057828511156112505762989680841061124157610fa28430337f0000000000000000000000000000000000000000000000000000000000000000611623565b60045493610faf85611555565b6004558060011c92610fc18483611548565b60405161012081019080821067ffffffffffffffff83111761122d576040829052601f8601601f1916928992610ffa6020860182611519565b878152878660208301375f602089830101528252602082019789895260408301918c8352606084019182526080840190815260a084019188835260c08501935f855260e086019b5f8d526101008701975f89525f52600560205260405f20965180519067ffffffffffffffff821161122d5761107689546114e1565b601f81116111dc575b50602090601f83116001146111705760079998979695949392915f9183611165575b50508160011b915f199060031b1c19161787555b516001870155516002860155516003850155516004840155516005830155516006820155019551600481101561051e5760ff801988541691161786555192600384101561051e57602098889761112e60a0967f76e4f7547f65d724459a9d5e9c22f475d043d441fe6b65bb4b4f007e5902e5f999611563565b5f8688604051998a9860808a528160808b0152838a0137870101528a850152604084015260608301528101030190a2604051908152f35b015190505f806110a1565b90601f198316918a5f52815f20925f5b8181106111c4575091600193918560079d9c9b9a9998979694106111ac575b505050811b0187556110b5565b01515f1960f88460031b161c191690555f808061119f565b92936020600181928786015181550195019301611180565b8281111561107f57895f5260205f20601f840160051c9060208510611225575b81601f9101920160051c03905f5b82811061121857505061107f565b5f8282015560010161120a565b5f91506111fc565b634e487b7160e01b5f52604160045260245ffd5b636180f03f60e11b5f5260045ffd5b630350906d60e21b5f5260045ffd5b346104b3575f3660031901126104b35761127761158f565b600180546001600160a01b03199081169091555f80549182168155906001600160a01b03167f8be0079c531659141344cd1fd0a4f28419497f9722a3daafe3b4186f6b6457e08280a3005b346104b3575f3660031901126104b3576040517f00000000000000000000000000000000000000000000000000000000000000006001600160a01b03168152602090f35b346104b35760203660031901126104b35761131f61158f565b6004355f52600560205260405f2060ff600782015416600481101561051e576002036106645760060180549061138882029180830461138814811517156104dd576113735f916127106113a6950490611548565b91555f546001600160a01b03167f00000000000000000000000000000000000000000000000000000000000000006115a2565b005b346104b35760203660031901126104b3576001600160a01b036113c96114b5565b165f526009602052602060405f2054604051908152f35b346104b3575f3660031901126104b35760206040516127108152f35b346104b3575f3660031901126104b3576020604051629896808152f35b346104b35760203660031901126104b3576114326114b5565b61143a61158f565b6001600160a01b03168015610e6257600280546001600160a01b031916821790557f92e7a029921a00972aa84729b1a13f507d230cecde0349e479652ad058f61f1f5f80a2005b346104b35760203660031901126104b3576020906001600160a01b036114a56114b5565b165f526007825260405f20548152f35b600435906001600160a01b03821682036104b357565b602435906001600160a01b03821682036104b357565b90600182811c9216801561150f575b60208310146114fb57565b634e487b7160e01b5f52602260045260245ffd5b91607f16916114f0565b90601f8019910116810190811067ffffffffffffffff82111761122d57604052565b90600382101561051e5752565b919082039182116104dd57565b5f1981146104dd5760010190565b90600381101561051e5761ff0082549160081b169061ff001916179055565b919082018092116104dd57565b5f546001600160a01b03163303610ee357565b916040519163a9059cbb60e01b5f5260018060a01b031660045260245260205f60448180865af19060015f5114821615611602575b604052156115e25750565b635274afe760e01b5f9081526001600160a01b0391909116600452602490fd5b90600181151661161a57823b15153d151616906115d7565b503d5f823e3d90fd5b6040516323b872dd60e01b5f9081526001600160a01b039384166004529290931660245260449390935260209060648180865af19060015f5114821615611674575b6040525f606052156115e25750565b90600181151661161a57823b15153d15161690611665565b60025f5160206116c55f395f51905f5254146116b55760025f5160206116c55f395f51905f5255565b633ee5aeb560e01b5f5260045ffdfe9b779b17422d0df92223018b32b4d1fa46e071723d6817e2486d003becc55f00a2646970667358221220860d6670e478280a0263eff4311bf7ab6c42fb62807ea1d711cc194ad2e53e4764736f6c63430008220033",
    "sourcePath": "/home/raigoza/Desktop/qie-hackathon/src/PredictionPool.sol",
    "compiler": {
        "name": "solc",
        "version": "0.8.34+commit.80d5c536"
    },
    "functionHashes": {
        "BPS()": "249d39e9",
        "MIN_LIQUIDITY()": "21b77d63",
        "PROTOCOL_FEE_BPS()": "be378228",
        "VAULT_FEE_SHARE()": "d4db678d",
        "acceptOwnership()": "79ba5097",
        "cancelMarket(uint256)": "7c16cd9e",
        "claimRefund(uint256,address)": "cec03ce3",
        "claimWinnings(uint256,address)": "992c9079",
        "correctBets(address)": "c71752de",
        "createMarket(string,uint256,uint256,uint256)": "7988a630",
        "lockMarket(uint256)": "c9d1e6ee",
        "marketCount()": "ec979082",
        "markets(uint256)": "b1283e77",
        "neobank()": "7e67f2ba",
        "oracle()": "7dc0d1d0",
        "owner()": "8da5cb5b",
        "pendingOwner()": "e30c3978",
        "placeBet(uint256,bool,uint256,address)": "c1de1343",
        "positions(uint256,address)": "e684d718",
        "qiePass()": "5f726176",
        "qusdc()": "94d4e4f8",
        "renounceOwnership()": "715018a6",
        "resolveMarket(uint256,uint8)": "df55406e",
        "setNeobank(address)": "1fdfe054",
        "setOracle(address)": "7adbf973",
        "totalBets(address)": "0ab5cb64",
        "totalWagered(address)": "470762e9",
        "transferOwnership(address)": "f2fde38b",
        "vault()": "fbfa77cf",
        "withdrawProtocolFees(uint256)": "4f449138"
    },
    "gasEstimates": {
        "creation": {
            "codeDepositCost": "1182800",
            "executionCost": "infinite",
            "totalCost": "infinite"
        },
        "external": {
            "BPS()": "224",
            "MIN_LIQUIDITY()": "202",
            "PROTOCOL_FEE_BPS()": "554",
            "VAULT_FEE_SHARE()": "664",
            "acceptOwnership()": "52471",
            "cancelMarket(uint256)": "30122",
            "claimRefund(uint256,address)": "infinite",
            "claimWinnings(uint256,address)": "infinite",
            "correctBets(address)": "2851",
            "createMarket(string,uint256,uint256,uint256)": "infinite",
            "lockMarket(uint256)": "30304",
            "marketCount()": "2858",
            "markets(uint256)": "infinite",
            "neobank()": "2571",
            "oracle()": "2549",
            "owner()": "2592",
            "pendingOwner()": "2838",
            "placeBet(uint256,bool,uint256,address)": "infinite",
            "positions(uint256,address)": "7323",
            "qiePass()": "infinite",
            "qusdc()": "infinite",
            "renounceOwnership()": "52436",
            "resolveMarket(uint256,uint8)": "infinite",
            "setNeobank(address)": "27798",
            "setOracle(address)": "27996",
            "totalBets(address)": "2403",
            "totalWagered(address)": "2499",
            "transferOwnership(address)": "30878",
            "vault()": "infinite",
            "withdrawProtocolFees(uint256)": "infinite"
        }
    }
}