{
    "contractName": "QIEIdentity",
    "abi": [
        {
            "inputs": [],
            "stateMutability": "nonpayable",
            "type": "constructor"
        },
        {
            "inputs": [],
            "name": "AlreadyHasIdentity",
            "type": "error"
        },
        {
            "inputs": [],
            "name": "BiometricMismatch",
            "type": "error"
        },
        {
            "inputs": [],
            "name": "CountryNotSupported",
            "type": "error"
        },
        {
            "inputs": [],
            "name": "DocumentExpired",
            "type": "error"
        },
        {
            "inputs": [
                {
                    "internalType": "address",
                    "name": "sender",
                    "type": "address"
                },
                {
                    "internalType": "uint256",
                    "name": "tokenId",
                    "type": "uint256"
                },
                {
                    "internalType": "address",
                    "name": "owner",
                    "type": "address"
                }
            ],
            "name": "ERC721IncorrectOwner",
            "type": "error"
        },
        {
            "inputs": [
                {
                    "internalType": "address",
                    "name": "operator",
                    "type": "address"
                },
                {
                    "internalType": "uint256",
                    "name": "tokenId",
                    "type": "uint256"
                }
            ],
            "name": "ERC721InsufficientApproval",
            "type": "error"
        },
        {
            "inputs": [
                {
                    "internalType": "address",
                    "name": "approver",
                    "type": "address"
                }
            ],
            "name": "ERC721InvalidApprover",
            "type": "error"
        },
        {
            "inputs": [
                {
                    "internalType": "address",
                    "name": "operator",
                    "type": "address"
                }
            ],
            "name": "ERC721InvalidOperator",
            "type": "error"
        },
        {
            "inputs": [
                {
                    "internalType": "address",
                    "name": "owner",
                    "type": "address"
                }
            ],
            "name": "ERC721InvalidOwner",
            "type": "error"
        },
        {
            "inputs": [
                {
                    "internalType": "address",
                    "name": "receiver",
                    "type": "address"
                }
            ],
            "name": "ERC721InvalidReceiver",
            "type": "error"
        },
        {
            "inputs": [
                {
                    "internalType": "address",
                    "name": "sender",
                    "type": "address"
                }
            ],
            "name": "ERC721InvalidSender",
            "type": "error"
        },
        {
            "inputs": [
                {
                    "internalType": "uint256",
                    "name": "tokenId",
                    "type": "uint256"
                }
            ],
            "name": "ERC721NonexistentToken",
            "type": "error"
        },
        {
            "inputs": [],
            "name": "IdentityFrozen",
            "type": "error"
        },
        {
            "inputs": [],
            "name": "IdentityNotFound",
            "type": "error"
        },
        {
            "inputs": [],
            "name": "InvalidTier",
            "type": "error"
        },
        {
            "inputs": [
                {
                    "internalType": "address",
                    "name": "owner",
                    "type": "address"
                }
            ],
            "name": "OwnableInvalidOwner",
            "type": "error"
        },
        {
            "inputs": [
                {
                    "internalType": "address",
                    "name": "account",
                    "type": "address"
                }
            ],
            "name": "OwnableUnauthorizedAccount",
            "type": "error"
        },
        {
            "inputs": [],
            "name": "RevocationCooldown",
            "type": "error"
        },
        {
            "inputs": [],
            "name": "TierTooLow",
            "type": "error"
        },
        {
            "inputs": [],
            "name": "UnauthorizedVerifier",
            "type": "error"
        },
        {
            "anonymous": false,
            "inputs": [
                {
                    "indexed": true,
                    "internalType": "address",
                    "name": "owner",
                    "type": "address"
                },
                {
                    "indexed": true,
                    "internalType": "address",
                    "name": "approved",
                    "type": "address"
                },
                {
                    "indexed": true,
                    "internalType": "uint256",
                    "name": "tokenId",
                    "type": "uint256"
                }
            ],
            "name": "Approval",
            "type": "event"
        },
        {
            "anonymous": false,
            "inputs": [
                {
                    "indexed": true,
                    "internalType": "address",
                    "name": "owner",
                    "type": "address"
                },
                {
                    "indexed": true,
                    "internalType": "address",
                    "name": "operator",
                    "type": "address"
                },
                {
                    "indexed": false,
                    "internalType": "bool",
                    "name": "approved",
                    "type": "bool"
                }
            ],
            "name": "ApprovalForAll",
            "type": "event"
        },
        {
            "anonymous": false,
            "inputs": [
                {
                    "indexed": false,
                    "internalType": "uint256",
                    "name": "countryCode",
                    "type": "uint256"
                },
                {
                    "indexed": false,
                    "internalType": "bool",
                    "name": "supported",
                    "type": "bool"
                },
                {
                    "indexed": false,
                    "internalType": "string",
                    "name": "countryName",
                    "type": "string"
                }
            ],
            "name": "CountrySupportUpdated",
            "type": "event"
        },
        {
            "anonymous": false,
            "inputs": [
                {
                    "indexed": true,
                    "internalType": "address",
                    "name": "user",
                    "type": "address"
                },
                {
                    "indexed": false,
                    "internalType": "uint256",
                    "name": "tokenId",
                    "type": "uint256"
                },
                {
                    "indexed": false,
                    "internalType": "enum QIEIdentity.Tier",
                    "name": "tier",
                    "type": "uint8"
                },
                {
                    "indexed": false,
                    "internalType": "uint256",
                    "name": "countryCode",
                    "type": "uint256"
                },
                {
                    "indexed": false,
                    "internalType": "bytes32",
                    "name": "biometricHash",
                    "type": "bytes32"
                }
            ],
            "name": "IdentityIssued",
            "type": "event"
        },
        {
            "anonymous": false,
            "inputs": [
                {
                    "indexed": true,
                    "internalType": "address",
                    "name": "user",
                    "type": "address"
                }
            ],
            "name": "IdentityReinstated",
            "type": "event"
        },
        {
            "anonymous": false,
            "inputs": [
                {
                    "indexed": true,
                    "internalType": "address",
                    "name": "user",
                    "type": "address"
                },
                {
                    "indexed": false,
                    "internalType": "string",
                    "name": "reason",
                    "type": "string"
                },
                {
                    "indexed": false,
                    "internalType": "uint256",
                    "name": "cooldownEnd",
                    "type": "uint256"
                }
            ],
            "name": "IdentityRevoked",
            "type": "event"
        },
        {
            "anonymous": false,
            "inputs": [
                {
                    "indexed": true,
                    "internalType": "address",
                    "name": "previousOwner",
                    "type": "address"
                },
                {
                    "indexed": true,
                    "internalType": "address",
                    "name": "newOwner",
                    "type": "address"
                }
            ],
            "name": "OwnershipTransferStarted",
            "type": "event"
        },
        {
            "anonymous": false,
            "inputs": [
                {
                    "indexed": true,
                    "internalType": "address",
                    "name": "previousOwner",
                    "type": "address"
                },
                {
                    "indexed": true,
                    "internalType": "address",
                    "name": "newOwner",
                    "type": "address"
                }
            ],
            "name": "OwnershipTransferred",
            "type": "event"
        },
        {
            "anonymous": false,
            "inputs": [
                {
                    "indexed": true,
                    "internalType": "address",
                    "name": "user",
                    "type": "address"
                },
                {
                    "indexed": false,
                    "internalType": "enum QIEIdentity.Tier",
                    "name": "newTier",
                    "type": "uint8"
                },
                {
                    "indexed": false,
                    "internalType": "uint256",
                    "name": "previousTier",
                    "type": "uint256"
                }
            ],
            "name": "TierUpgraded",
            "type": "event"
        },
        {
            "anonymous": false,
            "inputs": [
                {
                    "indexed": true,
                    "internalType": "address",
                    "name": "from",
                    "type": "address"
                },
                {
                    "indexed": true,
                    "internalType": "address",
                    "name": "to",
                    "type": "address"
                },
                {
                    "indexed": true,
                    "internalType": "uint256",
                    "name": "tokenId",
                    "type": "uint256"
                }
            ],
            "name": "Transfer",
            "type": "event"
        },
        {
            "anonymous": false,
            "inputs": [
                {
                    "indexed": true,
                    "internalType": "address",
                    "name": "verifier",
                    "type": "address"
                },
                {
                    "indexed": false,
                    "internalType": "bool",
                    "name": "authorized",
                    "type": "bool"
                }
            ],
            "name": "VerifierAuthorized",
            "type": "event"
        },
        {
            "inputs": [],
            "name": "REVOCATION_COOLDOWN",
            "outputs": [
                {
                    "internalType": "uint256",
                    "name": "",
                    "type": "uint256"
                }
            ],
            "stateMutability": "view",
            "type": "function"
        },
        {
            "inputs": [],
            "name": "acceptOwnership",
            "outputs": [],
            "stateMutability": "nonpayable",
            "type": "function"
        },
        {
            "inputs": [
                {
                    "internalType": "address",
                    "name": "to",
                    "type": "address"
                },
                {
                    "internalType": "uint256",
                    "name": "tokenId",
                    "type": "uint256"
                }
            ],
            "name": "approve",
            "outputs": [],
            "stateMutability": "pure",
            "type": "function"
        },
        {
            "inputs": [
                {
                    "internalType": "address",
                    "name": "verifier",
                    "type": "address"
                },
                {
                    "internalType": "bool",
                    "name": "authorized",
                    "type": "bool"
                }
            ],
            "name": "authorizeVerifier",
            "outputs": [],
            "stateMutability": "nonpayable",
            "type": "function"
        },
        {
            "inputs": [
                {
                    "internalType": "address",
                    "name": "",
                    "type": "address"
                }
            ],
            "name": "authorizedVerifiers",
            "outputs": [
                {
                    "internalType": "bool",
                    "name": "",
                    "type": "bool"
                }
            ],
            "stateMutability": "view",
            "type": "function"
        },
        {
            "inputs": [
                {
                    "internalType": "address",
                    "name": "owner",
                    "type": "address"
                }
            ],
            "name": "balanceOf",
            "outputs": [
                {
                    "internalType": "uint256",
                    "name": "",
                    "type": "uint256"
                }
            ],
            "stateMutability": "view",
            "type": "function"
        },
        {
            "inputs": [
                {
                    "internalType": "address",
                    "name": "user",
                    "type": "address"
                }
            ],
            "name": "checkLendingAccess",
            "outputs": [
                {
                    "internalType": "bool",
                    "name": "",
                    "type": "bool"
                }
            ],
            "stateMutability": "view",
            "type": "function"
        },
        {
            "inputs": [
                {
                    "internalType": "address",
                    "name": "user",
                    "type": "address"
                }
            ],
            "name": "freezeIdentity",
            "outputs": [],
            "stateMutability": "nonpayable",
            "type": "function"
        },
        {
            "inputs": [
                {
                    "internalType": "uint256",
                    "name": "tokenId",
                    "type": "uint256"
                }
            ],
            "name": "getApproved",
            "outputs": [
                {
                    "internalType": "address",
                    "name": "",
                    "type": "address"
                }
            ],
            "stateMutability": "view",
            "type": "function"
        },
        {
            "inputs": [
                {
                    "internalType": "address",
                    "name": "user",
                    "type": "address"
                }
            ],
            "name": "getIdentity",
            "outputs": [
                {
                    "internalType": "enum QIEIdentity.Tier",
                    "name": "tier",
                    "type": "uint8"
                },
                {
                    "internalType": "uint256",
                    "name": "issuedAt",
                    "type": "uint256"
                },
                {
                    "internalType": "uint256",
                    "name": "expiresAt",
                    "type": "uint256"
                },
                {
                    "internalType": "uint256",
                    "name": "countryCode",
                    "type": "uint256"
                },
                {
                    "internalType": "bool",
                    "name": "isActive",
                    "type": "bool"
                },
                {
                    "internalType": "bool",
                    "name": "canAccessLending_",
                    "type": "bool"
                }
            ],
            "stateMutability": "view",
            "type": "function"
        },
        {
            "inputs": [
                {
                    "internalType": "address",
                    "name": "user",
                    "type": "address"
                }
            ],
            "name": "getMaxUnsecuredLimit",
            "outputs": [
                {
                    "internalType": "uint256",
                    "name": "",
                    "type": "uint256"
                }
            ],
            "stateMutability": "view",
            "type": "function"
        },
        {
            "inputs": [
                {
                    "internalType": "address",
                    "name": "user",
                    "type": "address"
                }
            ],
            "name": "getTier",
            "outputs": [
                {
                    "internalType": "enum QIEIdentity.Tier",
                    "name": "",
                    "type": "uint8"
                }
            ],
            "stateMutability": "view",
            "type": "function"
        },
        {
            "inputs": [
                {
                    "internalType": "uint256",
                    "name": "",
                    "type": "uint256"
                }
            ],
            "name": "identities",
            "outputs": [
                {
                    "internalType": "enum QIEIdentity.Tier",
                    "name": "tier",
                    "type": "uint8"
                },
                {
                    "internalType": "uint256",
                    "name": "issuedAt",
                    "type": "uint256"
                },
                {
                    "internalType": "uint256",
                    "name": "expiresAt",
                    "type": "uint256"
                },
                {
                    "internalType": "bytes32",
                    "name": "biometricHash",
                    "type": "bytes32"
                },
                {
                    "internalType": "bytes32",
                    "name": "documentHash",
                    "type": "bytes32"
                },
                {
                    "internalType": "bytes32",
                    "name": "livenessProof",
                    "type": "bytes32"
                },
                {
                    "internalType": "uint256",
                    "name": "countryCode",
                    "type": "uint256"
                },
                {
                    "internalType": "bool",
                    "name": "frozen",
                    "type": "bool"
                },
                {
                    "internalType": "uint256",
                    "name": "lastRevoked",
                    "type": "uint256"
                }
            ],
            "stateMutability": "view",
            "type": "function"
        },
        {
            "inputs": [
                {
                    "internalType": "address",
                    "name": "owner",
                    "type": "address"
                },
                {
                    "internalType": "address",
                    "name": "operator",
                    "type": "address"
                }
            ],
            "name": "isApprovedForAll",
            "outputs": [
                {
                    "internalType": "bool",
                    "name": "",
                    "type": "bool"
                }
            ],
            "stateMutability": "view",
            "type": "function"
        },
        {
            "inputs": [
                {
                    "internalType": "address",
                    "name": "user",
                    "type": "address"
                }
            ],
            "name": "isExpired",
            "outputs": [
                {
                    "internalType": "bool",
                    "name": "",
                    "type": "bool"
                }
            ],
            "stateMutability": "view",
            "type": "function"
        },
        {
            "inputs": [
                {
                    "internalType": "address",
                    "name": "user",
                    "type": "address"
                }
            ],
            "name": "isVerified",
            "outputs": [
                {
                    "internalType": "bool",
                    "name": "",
                    "type": "bool"
                }
            ],
            "stateMutability": "view",
            "type": "function"
        },
        {
            "inputs": [
                {
                    "internalType": "address",
                    "name": "user",
                    "type": "address"
                },
                {
                    "internalType": "enum QIEIdentity.Tier",
                    "name": "minTier",
                    "type": "uint8"
                }
            ],
            "name": "isVerifiedWithTier",
            "outputs": [
                {
                    "internalType": "bool",
                    "name": "",
                    "type": "bool"
                }
            ],
            "stateMutability": "view",
            "type": "function"
        },
        {
            "inputs": [
                {
                    "internalType": "address",
                    "name": "user",
                    "type": "address"
                },
                {
                    "internalType": "enum QIEIdentity.Tier",
                    "name": "tier",
                    "type": "uint8"
                },
                {
                    "internalType": "bytes32",
                    "name": "biometricHash",
                    "type": "bytes32"
                },
                {
                    "internalType": "bytes32",
                    "name": "documentHash",
                    "type": "bytes32"
                },
                {
                    "internalType": "bytes32",
                    "name": "livenessProof",
                    "type": "bytes32"
                },
                {
                    "internalType": "uint256",
                    "name": "countryCode",
                    "type": "uint256"
                },
                {
                    "internalType": "uint256",
                    "name": "validityDays",
                    "type": "uint256"
                }
            ],
            "name": "issueIdentity",
            "outputs": [],
            "stateMutability": "nonpayable",
            "type": "function"
        },
        {
            "inputs": [
                {
                    "internalType": "enum QIEIdentity.Tier",
                    "name": "",
                    "type": "uint8"
                }
            ],
            "name": "maxUnsecuredLimit",
            "outputs": [
                {
                    "internalType": "uint256",
                    "name": "",
                    "type": "uint256"
                }
            ],
            "stateMutability": "view",
            "type": "function"
        },
        {
            "inputs": [
                {
                    "internalType": "enum QIEIdentity.Tier",
                    "name": "",
                    "type": "uint8"
                }
            ],
            "name": "minDepositAmount",
            "outputs": [
                {
                    "internalType": "uint256",
                    "name": "",
                    "type": "uint256"
                }
            ],
            "stateMutability": "view",
            "type": "function"
        },
        {
            "inputs": [],
            "name": "name",
            "outputs": [
                {
                    "internalType": "string",
                    "name": "",
                    "type": "string"
                }
            ],
            "stateMutability": "view",
            "type": "function"
        },
        {
            "inputs": [],
            "name": "owner",
            "outputs": [
                {
                    "internalType": "address",
                    "name": "",
                    "type": "address"
                }
            ],
            "stateMutability": "view",
            "type": "function"
        },
        {
            "inputs": [
                {
                    "internalType": "uint256",
                    "name": "tokenId",
                    "type": "uint256"
                }
            ],
            "name": "ownerOf",
            "outputs": [
                {
                    "internalType": "address",
                    "name": "",
                    "type": "address"
                }
            ],
            "stateMutability": "view",
            "type": "function"
        },
        {
            "inputs": [
                {
                    "internalType": "address",
                    "name": "",
                    "type": "address"
                }
            ],
            "name": "passportId",
            "outputs": [
                {
                    "internalType": "uint256",
                    "name": "",
                    "type": "uint256"
                }
            ],
            "stateMutability": "view",
            "type": "function"
        },
        {
            "inputs": [],
            "name": "pendingOwner",
            "outputs": [
                {
                    "internalType": "address",
                    "name": "",
                    "type": "address"
                }
            ],
            "stateMutability": "view",
            "type": "function"
        },
        {
            "inputs": [
                {
                    "internalType": "address",
                    "name": "user",
                    "type": "address"
                },
                {
                    "internalType": "enum QIEIdentity.Tier",
                    "name": "tier",
                    "type": "uint8"
                },
                {
                    "internalType": "bytes32",
                    "name": "biometricHash",
                    "type": "bytes32"
                },
                {
                    "internalType": "bytes32",
                    "name": "documentHash",
                    "type": "bytes32"
                },
                {
                    "internalType": "bytes32",
                    "name": "livenessProof",
                    "type": "bytes32"
                },
                {
                    "internalType": "uint256",
                    "name": "countryCode",
                    "type": "uint256"
                },
                {
                    "internalType": "uint256",
                    "name": "validityDays",
                    "type": "uint256"
                }
            ],
            "name": "reinstateIdentity",
            "outputs": [],
            "stateMutability": "nonpayable",
            "type": "function"
        },
        {
            "inputs": [],
            "name": "renounceOwnership",
            "outputs": [],
            "stateMutability": "nonpayable",
            "type": "function"
        },
        {
            "inputs": [
                {
                    "internalType": "address",
                    "name": "user",
                    "type": "address"
                },
                {
                    "internalType": "string",
                    "name": "reason",
                    "type": "string"
                }
            ],
            "name": "revokeIdentity",
            "outputs": [],
            "stateMutability": "nonpayable",
            "type": "function"
        },
        {
            "inputs": [
                {
                    "internalType": "address",
                    "name": "from",
                    "type": "address"
                },
                {
                    "internalType": "address",
                    "name": "to",
                    "type": "address"
                },
                {
                    "internalType": "uint256",
                    "name": "tokenId",
                    "type": "uint256"
                }
            ],
            "name": "safeTransferFrom",
            "outputs": [],
            "stateMutability": "nonpayable",
            "type": "function"
        },
        {
            "inputs": [
                {
                    "internalType": "address",
                    "name": "from",
                    "type": "address"
                },
                {
                    "internalType": "address",
                    "name": "to",
                    "type": "address"
                },
                {
                    "internalType": "uint256",
                    "name": "tokenId",
                    "type": "uint256"
                },
                {
                    "internalType": "bytes",
                    "name": "data",
                    "type": "bytes"
                }
            ],
            "name": "safeTransferFrom",
            "outputs": [],
            "stateMutability": "nonpayable",
            "type": "function"
        },
        {
            "inputs": [
                {
                    "internalType": "address",
                    "name": "operator",
                    "type": "address"
                },
                {
                    "internalType": "bool",
                    "name": "approved",
                    "type": "bool"
                }
            ],
            "name": "setApprovalForAll",
            "outputs": [],
            "stateMutability": "pure",
            "type": "function"
        },
        {
            "inputs": [
                {
                    "internalType": "uint256",
                    "name": "countryCode",
                    "type": "uint256"
                },
                {
                    "internalType": "bool",
                    "name": "supported",
                    "type": "bool"
                },
                {
                    "internalType": "string",
                    "name": "countryName",
                    "type": "string"
                }
            ],
            "name": "setCountrySupport",
            "outputs": [],
            "stateMutability": "nonpayable",
            "type": "function"
        },
        {
            "inputs": [
                {
                    "internalType": "enum QIEIdentity.Tier",
                    "name": "tier",
                    "type": "uint8"
                },
                {
                    "internalType": "uint256",
                    "name": "minDeposit",
                    "type": "uint256"
                },
                {
                    "internalType": "uint256",
                    "name": "maxUnsecured",
                    "type": "uint256"
                },
                {
                    "internalType": "bool",
                    "name": "lendingAccess",
                    "type": "bool"
                }
            ],
            "name": "setTierRequirements",
            "outputs": [],
            "stateMutability": "nonpayable",
            "type": "function"
        },
        {
            "inputs": [
                {
                    "internalType": "uint256",
                    "name": "",
                    "type": "uint256"
                }
            ],
            "name": "supportedCountries",
            "outputs": [
                {
                    "internalType": "bool",
                    "name": "",
                    "type": "bool"
                }
            ],
            "stateMutability": "view",
            "type": "function"
        },
        {
            "inputs": [
                {
                    "internalType": "bytes4",
                    "name": "interfaceId",
                    "type": "bytes4"
                }
            ],
            "name": "supportsInterface",
            "outputs": [
                {
                    "internalType": "bool",
                    "name": "",
                    "type": "bool"
                }
            ],
            "stateMutability": "view",
            "type": "function"
        },
        {
            "inputs": [],
            "name": "symbol",
            "outputs": [
                {
                    "internalType": "string",
                    "name": "",
                    "type": "string"
                }
            ],
            "stateMutability": "view",
            "type": "function"
        },
        {
            "inputs": [
                {
                    "internalType": "enum QIEIdentity.Tier",
                    "name": "",
                    "type": "uint8"
                }
            ],
            "name": "tierCanAccessLending",
            "outputs": [
                {
                    "internalType": "bool",
                    "name": "",
                    "type": "bool"
                }
            ],
            "stateMutability": "view",
            "type": "function"
        },
        {
            "inputs": [
                {
                    "internalType": "uint256",
                    "name": "tokenId",
                    "type": "uint256"
                }
            ],
            "name": "tokenURI",
            "outputs": [
                {
                    "internalType": "string",
                    "name": "",
                    "type": "string"
                }
            ],
            "stateMutability": "view",
            "type": "function"
        },
        {
            "inputs": [
                {
                    "internalType": "address",
                    "name": "from",
                    "type": "address"
                },
                {
                    "internalType": "address",
                    "name": "to",
                    "type": "address"
                },
                {
                    "internalType": "uint256",
                    "name": "tokenId",
                    "type": "uint256"
                }
            ],
            "name": "transferFrom",
            "outputs": [],
            "stateMutability": "nonpayable",
            "type": "function"
        },
        {
            "inputs": [
                {
                    "internalType": "address",
                    "name": "newOwner",
                    "type": "address"
                }
            ],
            "name": "transferOwnership",
            "outputs": [],
            "stateMutability": "nonpayable",
            "type": "function"
        },
        {
            "inputs": [
                {
                    "internalType": "address",
                    "name": "user",
                    "type": "address"
                }
            ],
            "name": "unfreezeIdentity",
            "outputs": [],
            "stateMutability": "nonpayable",
            "type": "function"
        },
        {
            "inputs": [
                {
                    "internalType": "address",
                    "name": "user",
                    "type": "address"
                },
                {
                    "internalType": "enum QIEIdentity.Tier",
                    "name": "newTier",
                    "type": "uint8"
                },
                {
                    "internalType": "bytes32",
                    "name": "newLivenessProof",
                    "type": "bytes32"
                },
                {
                    "internalType": "uint256",
                    "name": "additionalValidityDays",
                    "type": "uint256"
                }
            ],
            "name": "upgradeTier",
            "outputs": [],
            "stateMutability": "nonpayable",
            "type": "function"
        },
        {
            "inputs": [
                {
                    "internalType": "bytes32",
                    "name": "",
                    "type": "bytes32"
                }
            ],
            "name": "usedBiometrics",
            "outputs": [
                {
                    "internalType": "bool",
                    "name": "",
                    "type": "bool"
                }
            ],
            "stateMutability": "view",
            "type": "function"
        }
    ],
    "bytecode": "608060405234610b7c57604080519081016001600160401b03811182821017610a87576040908152601582527f514945204964656e746974792050617373706f72740000000000000000000000602083015280519081016001600160401b03811182821017610a875760405260068152651452514b525160d21b602082015281516001600160401b038111610a87575f54600181811c91168015610b72575b6020821014610a6957601f8111610b05575b50602092601f8211600114610aa657928192935f92610a9b575b50508160011b915f199060031b1c1916175f555b80516001600160401b038111610a8757600154600181811c91168015610a7d575b6020821014610a6957601f81116109fb575b50602091601f821160011461099b579181925f92610990575b50508160011b915f199060031b1c1916176001555b331561097d57600780546001600160a01b0319908116909155600680543392811683179091556001600160a01b03167f8be0079c531659141344cd1fd0a4f28419497f9722a3daafe3b4186f6b6457e05f80a3620f42407fa7c5ba7114a813b50159add3a36832908dc83db71d0b9a24c2ad0f83be95820755629896807f9adb202b1492743bc00c81d33cdc6423fa8c79109027eb6a845391e8fc1f0481556305f5e1007fe0283e559c29e31ee7f56467acc9dd307779c843a883aeeb3bf5c6128c908144556402540be4007fa1d6913cd9e08c872be3e7525cca82e4fc0fc298a783f19022be725b19be685a555f7f169f97de0d9a84d840042b17d3c6b9638b3d6fd9024c9eb0c7a306a17b49f88f819055631dcd65007fa74ba3945261e09fde15ba3db55005b205e61eeb4ad811ac0faa2b315bffeead5564012a05f2007f45f76dafbbad695564362934e24d72eedc57f9fc1a65f39bca62176cc82968285564174876e8007f367ccd2d0ac16bf7110a5dffe0801fdc9452a95a1adb7e1a12fe97dd3e9a4edd557f8c6065603763fec3f5742441d3833f3f43b982453612d76adb39a885e3006b5f805460ff199081169091557f853b2fefe141400fef543280f93d98bd49996069f632d0d20236afeeed8e46a28054821660019081179091557fb3edd0d534d647cffdae9f1294f11ad21f3fcf2814bea44c92bbb8d384a57d9e80548316821790557f1588ac671d87f82adc0e6ae8ab009c0de98f92a20243897597e566bc59b9c1268054831682179055600b6020527fb10abab70a2ef2fa946b30d974e5e317186cbaf46f2adc6545c47b45e73e387b80548316821790557fb31dd17ee5e392f278b7386587515620a4154c36f90e7c3ae46f971c3e70707b80548316821790557ff38dc85351b5b17a3e887bdfa6096d63b038f02d36920a4c9c67282059e7269580548316821790557fdb8372c802d965a22fe924b83e163bd5cd7953e1e6a6ac83efb1465802d60c8b80548316821790557f8e950e1e62ab03acb6422c95fea8868fdc6870e018aad9ab175a2da58fdbc0d980548316821790557f8cded563a9284a57cf3f3ad357d9cba72293f7ad4841c171260cca968c857f2280548316821790557fab63ff40097279683c567d554f78693cb2e8daff604b15c8bce546b085dc530080548316821790557f9cc483915bb98c1d101978cd8fadbbbd52b154ca3c0d2184769416a9f399395080548316821790557f97a0854c990d3c8442f340df2faedb313f98adee4bcf506585c440f1bc86a08a80548316821790557fc3ecec494d6aede2ce2365b02c944f9bd5d01bf40216615f24a300482cb94a1b80548316821790557f56209fb86d84f77e16100a64ca1b66581f6e6d1d31eb7b0527561040f2208bd280548316821790557fb25797fc7249f501a4f182068502a72b1c4cdddc34d30d4001b469eb958326a280548316821790557f0c3777bb7b589d5b4afac3108e18a965e62395e950abb74994d3c84d7ad8b74980548316821790557f301fa70e99115a6bbe4ae48a34814ef1e698b2819ff3f14075f4acb01ee9923380548316821790557f296331f685f1aa3d9091e3aa12d7a6b3ad11902e5ae60ec8ea78a1c458519e7980548316821790557f0c9bbab4319d16201d7fb34c409a8c394a98d6b4cbaf2353a604b0721162c74380548316821790557f442fadeea7c12d59d92d648adf9dfb5c0fe1e2453a06cf6790dcba4757f9fcd680548316821790557fb43a682b5a121aadf341d6f8e226a7f53dd41819853391179b8c13ede0eab04a80548316821790557fffefa76041faab6f26087ed033c7d460014adaf243a53a4be764191c3b26322f80548316821790557fed1ee5a0f1e63dbef53faf561e95daa48b905d539bcfde7b4854bd88306678c680548316821790557ffbbebf98942f3142deb5414d22d49fe1187618995c2555de6e6711ca0d0a908d80548316821790557f267b6692ff31f6ae701e105647aa3901ce0df8b27b649573c6fa6a1dd37cb4ab80548316821790557faf443e524a6478263ec019c6af5992449f8ede1165dc669ddceaea19f394ce6880548316821790557f1de50e9adbea8e651bb9e0deb271b93417e0daf8f00baccfec24937f0882ec2480548316821790557f51786e27950557d90de445fa62f4a73c9064e3a7fcc2adc536843a6fcd249bca80548316821790557fe2fc25173db9ad4420f62a4e045a329c9a5248df4cca7f0c4fd89623fe1bc3f980548316821790557f6c7fe5e8c1ba6fed479f70b40cb0209bb3fef02f030d14c1b1d2f2faf0bf819580548316821790557f88a57a2121c67fb8fc10e8ff9a47f3b49e6256b875cdfbb7e153bd508e6d31f480548316821790557fcde26d2a996f350cdd9df5ff0900a955c66666d82bb7558c358cc7b856fd0e1880548316821790557f2773d919005ddf8e190c3a0ea047d660db411ae6c2cca4e55f982a06daf29d2180548316821790557f102d7db9623c7db6dbee2314021961d8e369aaadbd4dbd2f62c293a1644b3b9980548316821790557f134efb12e21a5ef126ec00569f5b429ba54be4ad46fe80f8538734dd8421fc4280548316821790557f9e22059c8fe9187490eb45e3d80774e3b235651b03a567500f784aa2fa36aa3c80548316821790557f7ccd06d2ba3bc0ce31ea41293d77386e8a4aaf255d2cbffaca2c1c2c7dddb21280548316821790557ff14b974cb7892838640b70e41c4e4e35f72ec361842f0c280e06bbd57efe6b1c80548316821790557fb12d8733dc69d4348b41c0097d9fb6ab4077be254834b66d5b194a62fa99a0a9805483168217905561026c9092527f10698d038f5dff90e7f2b159985d6efb6938c6b1789dc8ee20750e7b0e3e8cfb805490911690911790556040516120179081610b818239f35b631e4fbdf760e01b5f525f60045260245ffd5b015190505f8061012a565b601f1982169260015f52805f20915f5b8581106109e3575083600195106109cb575b505050811b0160015561013f565b01515f1960f88460031b161c191690555f80806109bd565b919260206001819286850151815501940192016109ab565b818111156101115760015f52601f820160051c7fb10e2d527612073b26eecdfd717e6a320cf44b4afac2b0732d9fcbe2b7fa0cf660208410610a61575b81601f9101920160051c03905f5b828110610a54575050610111565b5f82820155600101610a46565b5f9150610a38565b634e487b7160e01b5f52602260045260245ffd5b90607f16906100ff565b634e487b7160e01b5f52604160045260245ffd5b015190505f806100ca565b601f198216935f8052805f20915f5b868110610aed5750836001959610610ad5575b505050811b015f556100de565b01515f1960f88460031b161c191690555f8080610ac8565b91926020600181928685015181550194019201610ab5565b818111156100b0575f8052601f820160051c7f290decd9548b62a8d60345a988386fc84ba6bc95484008f6362f93160ef3e56360208410610b6a575b81601f9101920160051c03905f5b828110610b5d5750506100b0565b5f82820155600101610b4f565b5f9150610b41565b90607f169061009e565b5f80fdfe6080806040526004361015610012575f80fd5b5f905f3560e01c90816301ffc9a7146117055750806306fdde031461164d578063081812fc14611611578063095ea7b3146115f85780630a576e50146115d0578063148f8ea11461159e578063150c97f41461151b5780631ca8b8ab146114e357806323b872dd146114cc5780632fea7b8114611479578063409c0f761461121257806342842e0e146111e957806347e10571146111915780636352211e1461116157806370a0823114611110578063715018a6146110ab57806379ba5097146110255780637daa4a1114610fbb5780638c038e7314610f0c5780638da5cb5b14610ee457806395d89b4114610ddc5780639a89171614610d9f578063a22cb46514610d37578063b45aae5214610d05578063b88d4fde14610c7b578063b9209e3314610c58578063ba2eb54114610c2b578063be65bf5014610c03578063c0131ac114610b86578063c87b56dd14610b2d578063ca2885b4146108de578063cdeb0a19146106ef578063d7dabf2014610555578063e30c39781461052c578063e985e9c5146104d4578063ea3485a21461049c578063eaaf77e61461040a578063ee7f192d146103db578063f20da766146103bd578063f2b4865514610332578063f2fde38b146102c4578063f6ed4020146102285763f6f410f7146101f7575f80fd5b346102255760203660031901126102255760ff60406020926004358152600c84522054166040519015158152f35b80fd5b503461022557602036600319011261022557610242611794565b604051635a2d572960e11b81526001600160a01b039091166004820152602081602481305afa9081156102b95790610283916020939161028c575b506117c0565b54604051908152f35b6102ac9150833d85116102b2575b6102a481836118ce565b81019061194f565b5f61027d565b503d61029a565b6040513d84823e3d90fd5b5034610225576020366003190112610225576102de611794565b6102e6611eca565b600780546001600160a01b0319166001600160a01b039283169081179091556006549091167f38d16b8cac22d99fc7c124b9cd0de2d3fa1faef420bfe791d8c362d765e227008380a380f35b50346102255760803660031901126102255760043560058110156103b9576064359081151582036103b557610365611eca565b80156103a657906103926103a39260243561037f82611802565b5560443561038c826117c0565b556117eb565b9060ff801983541691151516179055565b80f35b63e142361760e01b8352600483fd5b5f80fd5b5080fd5b503461022557806003193601126102255760206040516276a7008152f35b50346102255760203660031901126102255760ff60406020926004358152600b84522054166040519015158152f35b503461022557602036600319011261022557604061012091600435815260096020522060ff81541690600181015490600281015460038201546004830154600584015491600685015493600860ff6007880154169601549661046f604051809a611853565b602089015260408801526060870152608086015260a085015260c0840152151560e0830152610100820152f35b50346102255760203660031901126102255760043590600582101561022557602060ff6104c8846117eb565b54166040519015158152f35b50346102255760403660031901126102255760406104f0611794565b916104f96117aa565b9260018060a01b031681526005602052209060018060a01b03165f52602052602060ff60405f2054166040519015158152f35b50346102255780600319360112610225576007546040516001600160a01b039091168152602090f35b50346102255760803660031901126102255761056f611794565b60243560058110156106eb5760643591338452600a60205260ff60408520541615806106d6575b6106c75781156106b8576001600160a01b03168084526008602052604084205490929080156106a95784526009602052604084209060ff60078301541661069a5760ff8254169160058310156106865782841115610677576105f88482611dcf565b60443560058201556201518082029180830462015180149015171561066357917f35c12210dbf494ad04ccdb21600a9bad9f1b3c73e2b6c3c4f47e93211ec1b0b1939161064c600260409501918254611bbd565b905561065a83518093611853565b6020820152a280f35b634e487b7160e01b86526011600452602486fd5b63e142361760e01b8652600486fd5b634e487b7160e01b86526021600452602486fd5b6361d5de3d60e01b8552600485fd5b6369e0942b60e11b8552600485fd5b63e142361760e01b8452600484fd5b63b9857aa160e01b8452600484fd5b506006546001600160a01b0316331415610596565b8280fd5b5034610225576106fe3661190c565b939061070f97969397959295611eca565b60058310156108ca5782156108bb576001600160a01b038416808852600860205260408820549096906108ac57610747600d54611db5565b9586600d5587895260086020528660408a2055838952600c60205260408920600160ff1982541617905562015180810290808204620151801490151715610898576107929042611bbd565b986107a9604051956107a38761189d565b86611dc3565b6020850193428552604086019a8b52606086019081526080860191825260a0860192835260c0860193845260e086019a8a8c526101008701958b8752898c52600960205260408c20975160058110156108845792610854959261085d9c9d9e959261081860089a99968c611dcf565b5160018b01555160028a0155516003890155516004880155516005870155516006860155511515600785019060ff801983541691151516179055565b51910155611ede565b7fc36e11c8067f3af11ee7668a625729bd17fe12becf567aa6ddc6e24592b976378280a280f35b634e487b7160e01b8d52602160045260248dfd5b634e487b7160e01b89526011600452602489fd5b63abbe503560e01b8852600488fd5b63e142361760e01b8752600487fd5b634e487b7160e01b87526021600452602487fd5b5034610225576108ed3661190c565b9491959092338852600a60205260ff6040892054161580610b18575b610b09576005831015610af5578215610ae6576001600160a01b03821680895260086020526040892054909790610ad757848952600b60205260ff60408a20541615610ac857858952600c60205260ff60408a205416610ab95761096e600d54611db5565b9687600d55888a5260086020528760408b2055868a52600c60205260408a20600160ff1982541617905562015180810290808204620151801490151715610aa55787916109bc8b9242611bbd565b90604051946109ca8661189d565b6109d48887611dc3565b60208601924284526040870190815260608701908b82526080880192835260a0880193845260c08801948b8652604060e08a01978089526101008b0199818b52815260096020522098516005811015610a8f57968e9c9a95967f5e443040e928ef044d414fdb97d20940db899320ef0bc95c7c72c39ce698f7529f9760809f9d9a94966008968d9861085496610a819f610a719e61081891611dcf565b6040519485526020850190611853565b60408301526060820152a280f35b5050634e487b7160e01b8f52602160045260248ffd5b634e487b7160e01b8a52601160045260248afd5b6306e3e71960e51b8952600489fd5b633e4dbee160e21b8952600489fd5b63abbe503560e01b8952600489fd5b63e142361760e01b8852600488fd5b634e487b7160e01b88526021600452602488fd5b63b9857aa160e01b8852600488fd5b506006546001600160a01b0316331415610909565b346103b55760203660031901126103b557610b49600435611de7565b505f604051610b596020826118ce565b52610b82604051610b6b6020826118ce565b5f8152604051918291602083526020830190611770565b0390f35b346103b55760403660031901126103b557610b9f611794565b7f549bea741606fea6131feb992ab8021bef3bb5dfc19f6d30184944614a8754596020610bca61188e565b92610bd3611eca565b6001600160a01b03165f818152600a835260409020805460ff191660ff86151516179055926040519015158152a2005b346103b55760203660031901126103b55760043560058110156103b557610283602091611802565b346103b55760203660031901126103b5576020610c4e610c49611794565b611d7e565b6040519015158152f35b346103b55760203660031901126103b5576020610c4e610c76611794565b611e09565b346103b55760803660031901126103b557610c94611794565b610c9c6117aa565b6064359167ffffffffffffffff83116103b557366023840112156103b557826004013591610cc9836118f0565b92610cd760405194856118ce565b80845236602482870101116103b5576020815f926024610d039801838801378501015260443591611c3e565b005b346103b55760203660031901126103b5576020610d28610d23611794565b611bea565b610d356040518092611853565bf35b346103b55760403660031901126103b557610d50611794565b50610d5961188e565b5060405162461bcd60e51b815260206004820152601d60248201527f5149454964656e746974793a206e6f6e2d7472616e7366657261626c650000006044820152606490fd5b346103b55760203660031901126103b5576001600160a01b03610dc0611794565b165f52600a602052602060ff60405f2054166040519015158152f35b346103b5575f3660031901126103b5576040515f6001548060011c90600181168015610eda575b602083108114610ec657828552908115610ea25750600114610e44575b610b8283610e30818503826118ce565b604051918291602083526020830190611770565b91905060015f527fb10e2d527612073b26eecdfd717e6a320cf44b4afac2b0732d9fcbe2b7fa0cf6915f905b808210610e8857509091508101602001610e30610e20565b919260018160209254838588010152019101909291610e70565b60ff191660208086019190915291151560051b84019091019150610e309050610e20565b634e487b7160e01b5f52602260045260245ffd5b91607f1691610e03565b346103b5575f3660031901126103b5576006546040516001600160a01b039091168152602090f35b346103b55760603660031901126103b557600435610f2861188e565b6044359167ffffffffffffffff83116103b557610fb6610f6d7fc25f623f038e41b83227ff5dfcb010b434fea4c248150edb49d5f6fe3f437058943690600401611860565b610f75611eca565b835f52600b602052610f968560405f209060ff801983541691151516179055565b604051948594855215156020850152606060408501526060840191611bca565b0390a1005b346103b55760203660031901126103b557610fd4611794565b610fdc611eca565b6001600160a01b03165f908152600860205260409020548015611016575f908152600960205260409020600701805460ff19166001179055005b6369e0942b60e11b5f5260045ffd5b346103b5575f3660031901126103b557600754336001600160a01b039091160361109857600780546001600160a01b0319908116909155600680543392811683179091556001600160a01b03167f8be0079c531659141344cd1fd0a4f28419497f9722a3daafe3b4186f6b6457e05f80a3005b63118cdaa760e01b5f523360045260245ffd5b346103b5575f3660031901126103b5576110c3611eca565b600780546001600160a01b03199081169091556006805491821690555f906001600160a01b03167f8be0079c531659141344cd1fd0a4f28419497f9722a3daafe3b4186f6b6457e08280a3005b346103b55760203660031901126103b5576001600160a01b03611131611794565b16801561114e575f526003602052602060405f2054604051908152f35b6322718ad960e21b5f525f60045260245ffd5b346103b55760203660031901126103b557602061117f600435611de7565b6040516001600160a01b039091168152f35b346103b55760203660031901126103b5576111aa611794565b6111b2611eca565b6001600160a01b03165f908152600860205260409020548015611016575f908152600960205260409020600701805460ff19169055005b346103b557610d036111fa36611819565b906040519261120a6020856118ce565b5f8452611c3e565b346103b55760403660031901126103b55761122b611794565b60243567ffffffffffffffff81116103b55761124b903690600401611860565b9091335f52600a60205260ff60405f2054161580611464575b611455576001600160a01b03165f818152600860205260409020549092908015611016575f81815260096020908152604080832060078101805460ff191660011790554260088201556002909252909120549091906001600160a01b031615158061144e575b611409575f818152600260205260409020546001600160a01b031680159081156113d5575b5f83815260026020526040812080546001600160a01b03191690558390827fddf252ad1be2c89b69c2b068fc378daa952ba7f163c4a11628f55a4df523b3ef8280a4506113c35750600390845f5260086020525f604081205501545f52600c60205260405f2060ff1981541690556276a7004201918242116113af577f5da6e2d39aaac16f62ec221477fb1318d493e476af275a04635c74191caded5f926113a4604051938493604085526040850191611bca565b9060208301520390a2005b634e487b7160e01b5f52601160045260245ffd5b637e27328960e01b5f5260045260245ffd5b825f52600460205260405f206001600160601b0360a01b8154169055805f52600360205260405f205f1981540190556112ef565b60405162461bcd60e51b815260206004820152601d60248201527f5149454964656e746974793a206e6f6e2d7472616e7366657261626c650000006044820152606490fd5b505f6112ca565b63b9857aa160e01b5f5260045ffd5b506006546001600160a01b0316331415611264565b346103b55760203660031901126103b55760c061149c611497611794565b611b2e565b936114ad6040949294518097611853565b60208601526040850152606084015215156080830152151560a0820152f35b346103b557610d036114dd36611819565b91611967565b346103b55760203660031901126103b5576001600160a01b03611504611794565b165f526008602052602060405f2054604051908152f35b346103b55760203660031901126103b557611534611794565b604051635a2d572960e11b81526001600160a01b039091166004820152602081602481305afa8015611593576104c860ff916020935f91611576575b506117eb565b61158d9150843d86116102b2576102a481836118ce565b84611570565b6040513d5f823e3d90fd5b346103b55760403660031901126103b5576115b7611794565b6024359060058210156103b557602091610c4e91611e65565b346103b55760203660031901126103b55760043560058110156103b5576102836020916117c0565b346103b55760403660031901126103b557610d59611794565b346103b55760203660031901126103b55760043561162e81611de7565b505f526004602052602060018060a01b0360405f205416604051908152f35b346103b5575f3660031901126103b5576040515f5f548060011c906001811680156116fb575b602083108114610ec657828552908115610ea2575060011461169f57610b8283610e30818503826118ce565b5f8080527f290decd9548b62a8d60345a988386fc84ba6bc95484008f6362f93160ef3e563939250905b8082106116e157509091508101602001610e30610e20565b9192600181602092548385880101520191019092916116c9565b91607f1691611673565b346103b55760203660031901126103b5576004359063ffffffff60e01b82168092036103b5576020916380ac58cd60e01b811490811561175f575b811561174e575b5015158152f35b6301ffc9a760e01b14905083611747565b635b5e139f60e01b81149150611740565b805180835260209291819084018484015e5f828201840152601f01601f1916010190565b600435906001600160a01b03821682036103b557565b602435906001600160a01b03821682036103b557565b60058110156117d7575f52600f60205260405f2090565b634e487b7160e01b5f52602160045260245ffd5b60058110156117d7575f52601060205260405f2090565b60058110156117d7575f52600e60205260405f2090565b60609060031901126103b5576004356001600160a01b03811681036103b557906024356001600160a01b03811681036103b5579060443590565b9060058210156117d75752565b9181601f840112156103b55782359167ffffffffffffffff83116103b557602083818601950101116103b557565b6024359081151582036103b557565b610120810190811067ffffffffffffffff8211176118ba57604052565b634e487b7160e01b5f52604160045260245ffd5b90601f8019910116810190811067ffffffffffffffff8211176118ba57604052565b67ffffffffffffffff81116118ba57601f01601f191660200190565b60e09060031901126103b5576004356001600160a01b03811681036103b5579060243560058110156103b5579060443590606435906084359060a4359060c43590565b908160209103126103b5575160058110156103b55790565b6001600160a01b0390911691908215611b1b575f828152600260205260409020546001600160a01b0316151580611b13575b611409575f828152600260205260409020546001600160a01b031692829033151580611a7e575b5084611a4a575b805f52600360205260405f2060018154019055815f52600260205260405f20816001600160601b0360a01b825416179055847fddf252ad1be2c89b69c2b068fc378daa952ba7f163c4a11628f55a4df523b3ef5f80a46001600160a01b0316808303611a3257505050565b6364283d7b60e01b5f5260045260245260445260645ffd5b815f52600460205260405f206001600160601b0360a01b8154169055845f52600360205260405f205f1981540190556119c7565b90915080611ac2575b15611a945782905f6119c0565b8284611aac57637e27328960e01b5f5260045260245ffd5b63177e802f60e01b5f523360045260245260445ffd5b503384148015611af1575b80611a8757505f838152600460205260409020546001600160a01b03163314611a87565b505f84815260056020908152604080832033845290915290205460ff16611acd565b506001611999565b633250574960e11b5f525f60045260245ffd5b6001600160a01b03165f908152600860205260409020548015611bae575f52600960205260405f2060ff6007820154161580611ba0575b60ff8254169080600184015494600660028601549501549382611b8b575b959493929190565b915060ff611b98836117eb565b541691611b83565b506002810154421115611b65565b505f905f905f905f905f905f90565b919082018092116113af57565b908060209392818452848401375f828201840152601f01601f1916010190565b6001600160a01b03165f908152600860205260409020548015611c2c575f52600960205260405f2060ff6007820154168015611c31575b611c2c575460ff1690565b505f90565b5060028101544211611c21565b9291611c4b818386611967565b813b611c58575b50505050565b604051630a85bd0160e11b81523360048201526001600160a01b0394851660248201526044810191909152608060648201529216919060209082908190611ca3906084830190611770565b03815f865af15f9181611d39575b50611d0657503d15611cff573d611cc7816118f0565b90611cd560405192836118ce565b81523d5f602083013e5b80519081611cfa5782633250574960e11b5f5260045260245ffd5b602001fd5b6060611cdf565b6001600160e01b03191663757a42ff60e11b01611d2757505f808080611c52565b633250574960e11b5f5260045260245ffd5b9091506020813d602011611d76575b81611d55602093836118ce565b810103126103b557516001600160e01b0319811681036103b557905f611cb1565b3d9150611d48565b6001600160a01b03165f908152600860205260409020548015611daf575f526009602052600260405f200154421190565b50600190565b5f1981146113af5760010190565b60058210156117d75752565b9060058110156117d75760ff80198354169116179055565b5f818152600260205260409020546001600160a01b03169081156113c3575090565b6001600160a01b03165f908152600860205260409020548015611c2c575f52600960205260405f2060ff600782015416611c2c5760028101544211611c2c575460ff1660058110156117d757600111611e6157600190565b5f90565b6001600160a01b03165f908152600860205260409020548015611ec4575f52600960205260405f2060ff600782015416611ec45760028101544211611ec4575460ff1660058110156117d75760058210156117d75710611e6157600190565b50505f90565b6006546001600160a01b0316330361109857565b6001600160a01b0316908115611b1b575f818152600260205260409020546001600160a01b0316151580611fd9575b611409575f818152600260205260409020546001600160a01b03168015159290919083611fa5575b805f52600360205260405f2060018154019055815f52600260205260405f20816001600160601b0360a01b825416179055827fddf252ad1be2c89b69c2b068fc378daa952ba7f163c4a11628f55a4df523b3ef5f80a450611f9257565b6339e3563760e11b5f525f60045260245ffd5b815f52600460205260405f206001600160601b0360a01b8154169055825f52600360205260405f205f198154019055611f35565b506001611f0d56fea2646970667358221220567e5c07f1a96e99637249b05c118d6f8cf1f3830f48b1d75dadd85f6ac3f65764736f6c63430008220033",
    "sourcePath": "/home/raigoza/Desktop/qie-hackathon/src/QIEIdentity.sol",
    "compiler": {
        "name": "solc",
        "version": "0.8.34+commit.80d5c536"
    },
    "functionHashes": {
        "REVOCATION_COOLDOWN()": "f20da766",
        "acceptOwnership()": "79ba5097",
        "approve(address,uint256)": "095ea7b3",
        "authorizeVerifier(address,bool)": "c0131ac1",
        "authorizedVerifiers(address)": "9a891716",
        "balanceOf(address)": "70a08231",
        "checkLendingAccess(address)": "150c97f4",
        "freezeIdentity(address)": "7daa4a11",
        "getApproved(uint256)": "081812fc",
        "getIdentity(address)": "2fea7b81",
        "getMaxUnsecuredLimit(address)": "f6ed4020",
        "getTier(address)": "b45aae52",
        "identities(uint256)": "eaaf77e6",
        "isApprovedForAll(address,address)": "e985e9c5",
        "isExpired(address)": "ba2eb541",
        "isVerified(address)": "b9209e33",
        "isVerifiedWithTier(address,uint8)": "148f8ea1",
        "issueIdentity(address,uint8,bytes32,bytes32,bytes32,uint256,uint256)": "ca2885b4",
        "maxUnsecuredLimit(uint8)": "0a576e50",
        "minDepositAmount(uint8)": "be65bf50",
        "name()": "06fdde03",
        "owner()": "8da5cb5b",
        "ownerOf(uint256)": "6352211e",
        "passportId(address)": "1ca8b8ab",
        "pendingOwner()": "e30c3978",
        "reinstateIdentity(address,uint8,bytes32,bytes32,bytes32,uint256,uint256)": "cdeb0a19",
        "renounceOwnership()": "715018a6",
        "revokeIdentity(address,string)": "409c0f76",
        "safeTransferFrom(address,address,uint256)": "42842e0e",
        "safeTransferFrom(address,address,uint256,bytes)": "b88d4fde",
        "setApprovalForAll(address,bool)": "a22cb465",
        "setCountrySupport(uint256,bool,string)": "8c038e73",
        "setTierRequirements(uint8,uint256,uint256,bool)": "f2b48655",
        "supportedCountries(uint256)": "ee7f192d",
        "supportsInterface(bytes4)": "01ffc9a7",
        "symbol()": "95d89b41",
        "tierCanAccessLending(uint8)": "ea3485a2",
        "tokenURI(uint256)": "c87b56dd",
        "transferFrom(address,address,uint256)": "23b872dd",
        "transferOwnership(address)": "f2fde38b",
        "unfreezeIdentity(address)": "47e10571",
        "upgradeTier(address,uint8,bytes32,uint256)": "d7dabf20",
        "usedBiometrics(bytes32)": "f6f410f7"
    },
    "gasEstimates": {
        "creation": {
            "codeDepositCost": "1643000",
            "executionCost": "infinite",
            "totalCost": "infinite"
        },
        "external": {
            "REVOCATION_COOLDOWN()": "997",
            "acceptOwnership()": "52625",
            "approve(address,uint256)": "363",
            "authorizeVerifier(address,bool)": "28787",
            "authorizedVerifiers(address)": "2885",
            "balanceOf(address)": "2738",
            "checkLendingAccess(address)": "infinite",
            "freezeIdentity(address)": "29245",
            "getApproved(uint256)": "4630",
            "getIdentity(address)": "17862",
            "getMaxUnsecuredLimit(address)": "infinite",
            "getTier(address)": "9476",
            "identities(uint256)": "20202",
            "isApprovedForAll(address,address)": "3330",
            "isExpired(address)": "5214",
            "isVerified(address)": "9489",
            "isVerifiedWithTier(address,uint8)": "9111",
            "issueIdentity(address,uint8,bytes32,bytes32,bytes32,uint256,uint256)": "375354",
            "maxUnsecuredLimit(uint8)": "2494",
            "minDepositAmount(uint8)": "3000",
            "name()": "infinite",
            "owner()": "2703",
            "ownerOf(uint256)": "2709",
            "passportId(address)": "2565",
            "pendingOwner()": "3014",
            "reinstateIdentity(address,uint8,bytes32,bytes32,bytes32,uint256,uint256)": "367656",
            "renounceOwnership()": "52616",
            "revokeIdentity(address,string)": "infinite",
            "safeTransferFrom(address,address,uint256)": "infinite",
            "safeTransferFrom(address,address,uint256,bytes)": "infinite",
            "setApprovalForAll(address,bool)": "844",
            "setCountrySupport(uint256,bool,string)": "infinite",
            "setTierRequirements(uint8,uint256,uint256,bool)": "72059",
            "supportedCountries(uint256)": "3156",
            "supportsInterface(bytes4)": "327",
            "symbol()": "infinite",
            "tierCanAccessLending(uint8)": "3193",
            "tokenURI(uint256)": "infinite",
            "transferFrom(address,address,uint256)": "108671",
            "transferOwnership(address)": "31143",
            "unfreezeIdentity(address)": "29129",
            "upgradeTier(address,uint8,bytes32,uint256)": "84363",
            "usedBiometrics(bytes32)": "3261"
        },
        "internal": {
            "_initializeCountries()": "infinite",
            "_isVerifiedWithMinTier(address,enum QIEIdentity.Tier)": "infinite",
            "_update(address,uint256,address)": "infinite"
        }
    }
}