{
    "contractName": "QIELending",
    "abi": [
        {
            "inputs": [
                {
                    "internalType": "address",
                    "name": "_qusdc",
                    "type": "address"
                },
                {
                    "internalType": "address",
                    "name": "_vault",
                    "type": "address"
                },
                {
                    "internalType": "address",
                    "name": "_scorer",
                    "type": "address"
                },
                {
                    "internalType": "address",
                    "name": "_neobank",
                    "type": "address"
                }
            ],
            "stateMutability": "nonpayable",
            "type": "constructor"
        },
        {
            "inputs": [
                {
                    "internalType": "address",
                    "name": "borrower",
                    "type": "address"
                }
            ],
            "name": "ActiveLoanExists",
            "type": "error"
        },
        {
            "inputs": [
                {
                    "internalType": "uint256",
                    "name": "canDefaultAfter",
                    "type": "uint256"
                }
            ],
            "name": "DefaultTooEarly",
            "type": "error"
        },
        {
            "inputs": [
                {
                    "internalType": "uint256",
                    "name": "provided",
                    "type": "uint256"
                },
                {
                    "internalType": "uint256",
                    "name": "required",
                    "type": "uint256"
                }
            ],
            "name": "InsufficientCollateral",
            "type": "error"
        },
        {
            "inputs": [
                {
                    "internalType": "uint256",
                    "name": "score",
                    "type": "uint256"
                },
                {
                    "internalType": "uint256",
                    "name": "minRequired",
                    "type": "uint256"
                }
            ],
            "name": "InsufficientCreditScore",
            "type": "error"
        },
        {
            "inputs": [
                {
                    "internalType": "uint256",
                    "name": "requested",
                    "type": "uint256"
                },
                {
                    "internalType": "uint256",
                    "name": "maxAllowed",
                    "type": "uint256"
                }
            ],
            "name": "LoanCapExceeded",
            "type": "error"
        },
        {
            "inputs": [
                {
                    "internalType": "uint256",
                    "name": "dueDate",
                    "type": "uint256"
                }
            ],
            "name": "LoanNotDue",
            "type": "error"
        },
        {
            "inputs": [
                {
                    "internalType": "address",
                    "name": "borrower",
                    "type": "address"
                }
            ],
            "name": "LoanNotFound",
            "type": "error"
        },
        {
            "inputs": [],
            "name": "NotLiquidator",
            "type": "error"
        },
        {
            "inputs": [],
            "name": "NotNeobank",
            "type": "error"
        },
        {
            "inputs": [
                {
                    "internalType": "address",
                    "name": "owner",
                    "type": "address"
                }
            ],
            "name": "OwnableInvalidOwner",
            "type": "error"
        },
        {
            "inputs": [
                {
                    "internalType": "address",
                    "name": "account",
                    "type": "address"
                }
            ],
            "name": "OwnableUnauthorizedAccount",
            "type": "error"
        },
        {
            "inputs": [
                {
                    "internalType": "uint256",
                    "name": "sent",
                    "type": "uint256"
                },
                {
                    "internalType": "uint256",
                    "name": "minimum",
                    "type": "uint256"
                }
            ],
            "name": "PaymentBelowMinimum",
            "type": "error"
        },
        {
            "inputs": [],
            "name": "ReentrancyGuardReentrantCall",
            "type": "error"
        },
        {
            "inputs": [
                {
                    "internalType": "address",
                    "name": "token",
                    "type": "address"
                }
            ],
            "name": "SafeERC20FailedOperation",
            "type": "error"
        },
        {
            "inputs": [],
            "name": "ZeroAddress",
            "type": "error"
        },
        {
            "anonymous": false,
            "inputs": [
                {
                    "indexed": true,
                    "internalType": "address",
                    "name": "provider",
                    "type": "address"
                },
                {
                    "indexed": false,
                    "internalType": "uint256",
                    "name": "amount",
                    "type": "uint256"
                }
            ],
            "name": "LiquidityAdded",
            "type": "event"
        },
        {
            "anonymous": false,
            "inputs": [
                {
                    "indexed": true,
                    "internalType": "address",
                    "name": "provider",
                    "type": "address"
                },
                {
                    "indexed": false,
                    "internalType": "uint256",
                    "name": "amount",
                    "type": "uint256"
                }
            ],
            "name": "LiquidityRemoved",
            "type": "event"
        },
        {
            "anonymous": false,
            "inputs": [
                {
                    "indexed": true,
                    "internalType": "address",
                    "name": "borrower",
                    "type": "address"
                },
                {
                    "indexed": false,
                    "internalType": "uint256",
                    "name": "lossAmount",
                    "type": "uint256"
                }
            ],
            "name": "LoanDefaulted",
            "type": "event"
        },
        {
            "anonymous": false,
            "inputs": [
                {
                    "indexed": true,
                    "internalType": "address",
                    "name": "borrower",
                    "type": "address"
                },
                {
                    "indexed": false,
                    "internalType": "uint256",
                    "name": "principal",
                    "type": "uint256"
                },
                {
                    "indexed": false,
                    "internalType": "uint256",
                    "name": "collateral",
                    "type": "uint256"
                }
            ],
            "name": "LoanFunded",
            "type": "event"
        },
        {
            "anonymous": false,
            "inputs": [
                {
                    "indexed": true,
                    "internalType": "address",
                    "name": "borrower",
                    "type": "address"
                },
                {
                    "indexed": false,
                    "internalType": "uint256",
                    "name": "totalPaid",
                    "type": "uint256"
                },
                {
                    "indexed": false,
                    "internalType": "uint256",
                    "name": "interest",
                    "type": "uint256"
                }
            ],
            "name": "LoanRepaid",
            "type": "event"
        },
        {
            "anonymous": false,
            "inputs": [
                {
                    "indexed": true,
                    "internalType": "address",
                    "name": "borrower",
                    "type": "address"
                },
                {
                    "indexed": false,
                    "internalType": "uint256",
                    "name": "amount",
                    "type": "uint256"
                },
                {
                    "indexed": false,
                    "internalType": "uint256",
                    "name": "interest",
                    "type": "uint256"
                },
                {
                    "indexed": false,
                    "internalType": "uint8",
                    "name": "tier",
                    "type": "uint8"
                }
            ],
            "name": "LoanRequested",
            "type": "event"
        },
        {
            "anonymous": false,
            "inputs": [
                {
                    "indexed": true,
                    "internalType": "address",
                    "name": "previousOwner",
                    "type": "address"
                },
                {
                    "indexed": true,
                    "internalType": "address",
                    "name": "newOwner",
                    "type": "address"
                }
            ],
            "name": "OwnershipTransferStarted",
            "type": "event"
        },
        {
            "anonymous": false,
            "inputs": [
                {
                    "indexed": true,
                    "internalType": "address",
                    "name": "previousOwner",
                    "type": "address"
                },
                {
                    "indexed": true,
                    "internalType": "address",
                    "name": "newOwner",
                    "type": "address"
                }
            ],
            "name": "OwnershipTransferred",
            "type": "event"
        },
        {
            "inputs": [],
            "name": "LIQUIDITY_RESERVE_BPS",
            "outputs": [
                {
                    "internalType": "uint256",
                    "name": "",
                    "type": "uint256"
                }
            ],
            "stateMutability": "view",
            "type": "function"
        },
        {
            "inputs": [],
            "name": "acceptOwnership",
            "outputs": [],
            "stateMutability": "nonpayable",
            "type": "function"
        },
        {
            "inputs": [],
            "name": "activeLoanVolume",
            "outputs": [
                {
                    "internalType": "uint256",
                    "name": "",
                    "type": "uint256"
                }
            ],
            "stateMutability": "view",
            "type": "function"
        },
        {
            "inputs": [
                {
                    "internalType": "uint256",
                    "name": "amount",
                    "type": "uint256"
                }
            ],
            "name": "addLiquidity",
            "outputs": [],
            "stateMutability": "nonpayable",
            "type": "function"
        },
        {
            "inputs": [
                {
                    "internalType": "address",
                    "name": "user",
                    "type": "address"
                }
            ],
            "name": "getLoanTerms",
            "outputs": [
                {
                    "internalType": "uint8",
                    "name": "tier",
                    "type": "uint8"
                },
                {
                    "internalType": "uint256",
                    "name": "maxLoan",
                    "type": "uint256"
                },
                {
                    "internalType": "uint256",
                    "name": "interestRateBps",
                    "type": "uint256"
                },
                {
                    "internalType": "uint256",
                    "name": "requiredCollateral",
                    "type": "uint256"
                },
                {
                    "internalType": "uint256",
                    "name": "currentScore",
                    "type": "uint256"
                }
            ],
            "stateMutability": "view",
            "type": "function"
        },
        {
            "inputs": [
                {
                    "internalType": "address",
                    "name": "borrower",
                    "type": "address"
                }
            ],
            "name": "getRepaymentAmount",
            "outputs": [
                {
                    "internalType": "uint256",
                    "name": "total",
                    "type": "uint256"
                },
                {
                    "internalType": "uint256",
                    "name": "interest",
                    "type": "uint256"
                }
            ],
            "stateMutability": "view",
            "type": "function"
        },
        {
            "inputs": [
                {
                    "internalType": "address",
                    "name": "",
                    "type": "address"
                }
            ],
            "name": "loans",
            "outputs": [
                {
                    "internalType": "uint256",
                    "name": "principal",
                    "type": "uint256"
                },
                {
                    "internalType": "uint256",
                    "name": "collateral",
                    "type": "uint256"
                },
                {
                    "internalType": "uint256",
                    "name": "interestRateBps",
                    "type": "uint256"
                },
                {
                    "internalType": "uint256",
                    "name": "issuedAt",
                    "type": "uint256"
                },
                {
                    "internalType": "uint256",
                    "name": "dueDate",
                    "type": "uint256"
                },
                {
                    "internalType": "uint256",
                    "name": "repaid",
                    "type": "uint256"
                },
                {
                    "internalType": "enum QIELending.LoanStatus",
                    "name": "status",
                    "type": "uint8"
                }
            ],
            "stateMutability": "view",
            "type": "function"
        },
        {
            "inputs": [
                {
                    "internalType": "address",
                    "name": "borrower",
                    "type": "address"
                }
            ],
            "name": "markDefault",
            "outputs": [],
            "stateMutability": "nonpayable",
            "type": "function"
        },
        {
            "inputs": [],
            "name": "neobank",
            "outputs": [
                {
                    "internalType": "contract IQIENeobank",
                    "name": "",
                    "type": "address"
                }
            ],
            "stateMutability": "view",
            "type": "function"
        },
        {
            "inputs": [],
            "name": "owner",
            "outputs": [
                {
                    "internalType": "address",
                    "name": "",
                    "type": "address"
                }
            ],
            "stateMutability": "view",
            "type": "function"
        },
        {
            "inputs": [],
            "name": "pendingOwner",
            "outputs": [
                {
                    "internalType": "address",
                    "name": "",
                    "type": "address"
                }
            ],
            "stateMutability": "view",
            "type": "function"
        },
        {
            "inputs": [],
            "name": "qusdc",
            "outputs": [
                {
                    "internalType": "contract IERC20",
                    "name": "",
                    "type": "address"
                }
            ],
            "stateMutability": "view",
            "type": "function"
        },
        {
            "inputs": [
                {
                    "internalType": "uint256",
                    "name": "amount",
                    "type": "uint256"
                }
            ],
            "name": "removeLiquidity",
            "outputs": [],
            "stateMutability": "nonpayable",
            "type": "function"
        },
        {
            "inputs": [],
            "name": "renounceOwnership",
            "outputs": [],
            "stateMutability": "nonpayable",
            "type": "function"
        },
        {
            "inputs": [
                {
                    "internalType": "address",
                    "name": "borrower",
                    "type": "address"
                },
                {
                    "internalType": "uint256",
                    "name": "payment",
                    "type": "uint256"
                }
            ],
            "name": "repayLoan",
            "outputs": [],
            "stateMutability": "nonpayable",
            "type": "function"
        },
        {
            "inputs": [
                {
                    "internalType": "uint256",
                    "name": "amount",
                    "type": "uint256"
                },
                {
                    "internalType": "uint256",
                    "name": "collateral",
                    "type": "uint256"
                },
                {
                    "internalType": "address",
                    "name": "borrower",
                    "type": "address"
                }
            ],
            "name": "requestLoan",
            "outputs": [],
            "stateMutability": "nonpayable",
            "type": "function"
        },
        {
            "inputs": [],
            "name": "scorer",
            "outputs": [
                {
                    "internalType": "contract ICreditScore",
                    "name": "",
                    "type": "address"
                }
            ],
            "stateMutability": "view",
            "type": "function"
        },
        {
            "inputs": [
                {
                    "internalType": "uint8",
                    "name": "",
                    "type": "uint8"
                }
            ],
            "name": "tiers",
            "outputs": [
                {
                    "internalType": "uint256",
                    "name": "minScore",
                    "type": "uint256"
                },
                {
                    "internalType": "uint256",
                    "name": "maxLoan",
                    "type": "uint256"
                },
                {
                    "internalType": "uint256",
                    "name": "ltvBps",
                    "type": "uint256"
                },
                {
                    "internalType": "uint256",
                    "name": "interestRateBps",
                    "type": "uint256"
                },
                {
                    "internalType": "uint256",
                    "name": "tenureMonths",
                    "type": "uint256"
                }
            ],
            "stateMutability": "view",
            "type": "function"
        },
        {
            "inputs": [],
            "name": "totalLiquidity",
            "outputs": [
                {
                    "internalType": "uint256",
                    "name": "",
                    "type": "uint256"
                }
            ],
            "stateMutability": "view",
            "type": "function"
        },
        {
            "inputs": [
                {
                    "internalType": "address",
                    "name": "newOwner",
                    "type": "address"
                }
            ],
            "name": "transferOwnership",
            "outputs": [],
            "stateMutability": "nonpayable",
            "type": "function"
        },
        {
            "inputs": [],
            "name": "vault",
            "outputs": [
                {
                    "internalType": "contract IQIEVault",
                    "name": "",
                    "type": "address"
                }
            ],
            "stateMutability": "view",
            "type": "function"
        }
    ],
    "bytecode": "6101006040523461059757604051601f61186138819003918201601f19168301916001600160401b0383118484101761059b578084926080946040528339810103126105975761004e816105ce565b61005a602083016105ce565b91610073606061006c604084016105ce565b92016105ce565b91331561058457600180546001600160a01b03199081169091555f805433928116831782556001600160a01b0316907f8be0079c531659141344cd1fd0a4f28419497f9722a3daafe3b4186f6b6457e09080a360017f9b779b17422d0df92223018b32b4d1fa46e071723d6817e2486d003becc55f00556001600160a01b0316928315610575576001600160a01b0316908115610575576001600160a01b0316918215610575576001600160a01b03169283156105755760805260a05260c05260e05261013e6105af565b61012c8152633b9aca006020808301918252611388604084019081526109c4606085019081526006608086019081525f8052600290935293517fac33ff75c19e70fe83507db0d683fd3465c996598dc972688b7ace676c89077b5591517fac33ff75c19e70fe83507db0d683fd3465c996598dc972688b7ace676c89077c5590517fac33ff75c19e70fe83507db0d683fd3465c996598dc972688b7ace676c89077d5590517fac33ff75c19e70fe83507db0d683fd3465c996598dc972688b7ace676c89077e55517fac33ff75c19e70fe83507db0d683fd3465c996598dc972688b7ace676c89077f556102306105af565b610226815264012a05f20060208083019182526113886040840190815261070860608501908152600c6080860190815260015f52600290935293517fe90b7bceb6e7df5418fb78d8ee546e97c83a08bbccc01a0644d599ccd2a7c2e05591517fe90b7bceb6e7df5418fb78d8ee546e97c83a08bbccc01a0644d599ccd2a7c2e15590517fe90b7bceb6e7df5418fb78d8ee546e97c83a08bbccc01a0644d599ccd2a7c2e25590517fe90b7bceb6e7df5418fb78d8ee546e97c83a08bbccc01a0644d599ccd2a7c2e355517fe90b7bceb6e7df5418fb78d8ee546e97c83a08bbccc01a0644d599ccd2a7c2e4556103246105af565b61028a81526404a817c8006020808301918252611d4c604084019081526104b06060850190815260126080860190815260025f81905290935293517f679795a0195a1b76cdebb7c51d74e058aee92919b8c3389af86ef24535e8a28c5591517f679795a0195a1b76cdebb7c51d74e058aee92919b8c3389af86ef24535e8a28d5590517f679795a0195a1b76cdebb7c51d74e058aee92919b8c3389af86ef24535e8a28e5590517f679795a0195a1b76cdebb7c51d74e058aee92919b8c3389af86ef24535e8a28f55517f679795a0195a1b76cdebb7c51d74e058aee92919b8c3389af86ef24535e8a290556104186105af565b6102ee8152640ba43b7400602080830191825261271060408085019182526103206060860190815260186080870190815260035f52600290945294517f88601476d11616a71c5be67555bd1dff4b1cbf21533d2669b768b61518cfe1c35592517f88601476d11616a71c5be67555bd1dff4b1cbf21533d2669b768b61518cfe1c455517f88601476d11616a71c5be67555bd1dff4b1cbf21533d2669b768b61518cfe1c55591517f88601476d11616a71c5be67555bd1dff4b1cbf21533d2669b768b61518cfe1c65590517f88601476d11616a71c5be67555bd1dff4b1cbf21533d2669b768b61518cfe1c7555161127e90816105e3823960805181818161047c01528181610547015281816106ad0152818161094101528181610c4a0152610c94015260a05181610118015260c05181818161073d01528181610a580152610dec015260e05181818161059d0152818161078101526109ea0152f35b63d92e233d60e01b5f5260045ffd5b631e4fbdf760e01b5f525f60045260245ffd5b5f80fd5b634e487b7160e01b5f52604160045260245ffd5b6040519060a082016001600160401b0381118382101761059b57604052565b51906001600160a01b03821682036105975756fe6080806040526004361015610012575f80fd5b5f3560e01c90816315770f9214610f0b575080631bc394ee14610da957806322385ed4146109b357806351c6590a1461091d578063715018a6146108ba57806373b4086b1461083557806379ba5097146107b05780637e67f2ba1461076c57806385c758f7146107285780638da5cb5b1461070157806393a595f51461057657806394d4e4f8146105325780639c8f9f231461043c578063a4082f1914610420578063b1290b2914610403578063be81c4d414610275578063d1d7997414610214578063e30c3978146101ec578063e8a771cd146101bd578063f2fde38b1461014b5763fbfa77cf14610103575f80fd5b34610147575f366003190112610147576040517f00000000000000000000000000000000000000000000000000000000000000006001600160a01b03168152602090f35b5f80fd5b3461014757602036600319011261014757610164610f25565b61016c611215565b60018060a01b0316806bffffffffffffffffffffffff60a01b600154161760015560018060a01b035f54167f38d16b8cac22d99fc7c124b9cd0de2d3fa1faef420bfe791d8c362d765e227005f80a3005b346101475760203660031901126101475760406101e06101db610f25565b610ff4565b82519182526020820152f35b34610147575f366003190112610147576001546040516001600160a01b039091168152602090f35b346101475760203660031901126101475760043560ff8116809103610147575f52600260205260a060405f20805490600181015490600281015460046003830154920154926040519485526020850152604084015260608301526080820152f35b346101475760203660031901126101475761028e610f25565b6102966110f3565b6001600160a01b03165f81815260036020526040902060068101805460ff1660058110156103ef576001036103dc57600482015462093a8081018091116103c8578042106103b65750600360ff198254161790556102f78154600554610fda565b6005556001810154908115610383575490808211156103585761033d6020917f0be253503c49f8fb02046da3ef57bc2f5f881eb14ba5c2c26b54bf2fb4e7db0793610fda565b604051908152a25b60015f5160206112295f395f51905f5255005b50507f0be253503c49f8fb02046da3ef57bc2f5f881eb14ba5c2c26b54bf2fb4e7db0760205f61033d565b7f0be253503c49f8fb02046da3ef57bc2f5f881eb14ba5c2c26b54bf2fb4e7db07915060209054604051908152a2610345565b63a59c23e360e01b5f5260045260245ffd5b634e487b7160e01b5f52601160045260245ffd5b82636fcb125d60e11b5f5260045260245ffd5b634e487b7160e01b5f52602160045260245ffd5b34610147575f366003190112610147576020600554604051908152f35b34610147575f3660031901126101475760206040516107d08152f35b34610147576020366003190112610147576004356104586110f3565b610460611215565b61046f60045460055490610fda565b81116104ee576104a081337f00000000000000000000000000000000000000000000000000000000000000006111bd565b6104ac81600454610fda565b6004556040519081527fc2c3f06e49b9f15e7b4af9055e183b0d73362e033ad82a07dec9bf984017171960203392a260015f5160206112295f395f51905f5255005b606460405162461bcd60e51b815260206004820152602060248201527f496e73756666696369656e7420617661696c61626c65206c69717569646974796044820152fd5b34610147575f366003190112610147576040517f00000000000000000000000000000000000000000000000000000000000000006001600160a01b03168152602090f35b346101475760403660031901126101475761058f610f25565b6024359061059b6110f3565b7f00000000000000000000000000000000000000000000000000000000000000006001600160a01b031633036106f3578160018060a01b03821692835f52600360205260405f2091600683019360ff85541660058110156103ef576001036106e0577fc7ce0a35f17b490de2a317e7fecb2cae86b1abffb03800b2f4928235213826989460409461062b83610ff4565b9581106106d8575b5061064360058201948554610fe7565b808555610651868354610fe7565b111561067b575b505050549082519182526020820152a260015f5160206112295f395f51905f5255005b600191600260ff198254161790556106968154600554610fda565b6005550154806106a7575b80610658565b6106d1917f00000000000000000000000000000000000000000000000000000000000000006111bd565b85806106a1565b935088610633565b85636fcb125d60e11b5f5260045260245ffd5b6262aa1960e11b5f5260045ffd5b34610147575f366003190112610147575f546040516001600160a01b039091168152602090f35b34610147575f366003190112610147576040517f00000000000000000000000000000000000000000000000000000000000000006001600160a01b03168152602090f35b34610147575f366003190112610147576040517f00000000000000000000000000000000000000000000000000000000000000006001600160a01b03168152602090f35b34610147575f36600319011261014757600154336001600160a01b039091160361082257600180546001600160a01b03199081169091555f805433928116831782556001600160a01b0316907f8be0079c531659141344cd1fd0a4f28419497f9722a3daafe3b4186f6b6457e09080a3005b63118cdaa760e01b5f523360045260245ffd5b34610147576020366003190112610147576001600160a01b03610856610f25565b165f52600360205260405f2080546001820154916002810154600382015460048301549160ff600660058601549501541695604051958652602086015260408501526060840152608083015260a082015260058210156103ef5760e09160c0820152f35b34610147575f366003190112610147576108d2611215565b600180546001600160a01b03199081169091555f80549182168155906001600160a01b03167f8be0079c531659141344cd1fd0a4f28419497f9722a3daafe3b4186f6b6457e08280a3005b34610147576020366003190112610147576004356109396110f3565b6109658130337f000000000000000000000000000000000000000000000000000000000000000061112b565b61097181600454610fe7565b6004556040519081527fc17cea59c2955cb181b03393209566960365771dbba9dc3d510180e7cb31208860203392a260015f5160206112295f395f51905f5255005b34610147576060366003190112610147576044356001600160a01b0381169060243590600435838203610147576109e86110f3565b7f00000000000000000000000000000000000000000000000000000000000000006001600160a01b031633036106f357835f52600360205260ff600660405f2001541660058110156103ef57600114610d9657604051630d47875d60e41b815260048101859052926020846024817f00000000000000000000000000000000000000000000000000000000000000006001600160a01b03165afa938415610d8b575f94610d57575b5060ff610a9c856110c1565b165f52600260205260405f2060405194610ab586610f3b565b815480875260018301549060208801918252600284015492604089019384526080600460038701549660608c0197885201549901988952818110610d4257505051808511610d2c5750612710610b0c825185610fa9565b0461271082511080610d23575b610cde575b5050600454610b2f60055482610fda565b906107d08102908082046107d014901517156103c857612710900490610b558282610fda565b8511610cbd57505081610c8c575b51935162278d0081029080820462278d0014901517156103c857610b8960069142610fe7565b9460405190610b9782610f6b565b848252602082019684885260408301918252606083014281526080840191825260a08401925f845260c085019960018b528b5f52600360205260405f20955186555160018601555160028501555160038401555160048301555160058201550193519360058510156103ef5782604094610c6e927f6929ef1beec776d26744c851d4e8c8d009ac33388f93115c125a631c0842056b9760ff80198354169116179055610c4582600554610fe7565b6005557f00000000000000000000000000000000000000000000000000000000000000006111bd565b82519182526020820152a260015f5160206112295f395f51905f5255005b610cb88230337f000000000000000000000000000000000000000000000000000000000000000061112b565b610b63565b8491610cc891610fda565b90631bbd790d60e21b5f5260045260245260445ffd5b8411610cea5780610b1e565b90508261271081029080820461271014901517156103c857610d0d915190610fbc565b90632c1f8ef160e21b5f5260045260245260445ffd5b50831515610b19565b84631bbd790d60e21b5f5260045260245260445ffd5b63461c464160e11b5f5260045260245260445ffd5b9093506020813d602011610d83575b81610d7360209383610f87565b8101031261014757519285610a90565b3d9150610d66565b6040513d5f823e3d90fd5b8363219dd56160e11b5f5260045260245ffd5b3461014757602036600319011261014757610dc2610f25565b604051630d47875d60e41b81526001600160a01b03918216600482015290602090829060249082907f0000000000000000000000000000000000000000000000000000000000000000165afa908115610d8b575f91610ed9575b5060ff610e28826110c1565b16805f52600260205260405f209160405192610e4384610f3b565b80548452600181015490602085018281526127106002830154604088019781895260806004600387015496876060850152015491015210155f14610ea5575060a094505f915b6040519485526020850152604084015260608301526080820152f35b61271083029083820461271014841517156103c857610ecb610ed39260a0985190610fbc565b905190610fda565b91610e89565b90506020813d602011610f03575b81610ef460209383610f87565b81010312610147575181610e1c565b3d9150610ee7565b34610147575f366003190112610147576020906004548152f35b600435906001600160a01b038216820361014757565b60a0810190811067ffffffffffffffff821117610f5757604052565b634e487b7160e01b5f52604160045260245ffd5b60e0810190811067ffffffffffffffff821117610f5757604052565b90601f8019910116810190811067ffffffffffffffff821117610f5757604052565b818102929181159184041417156103c857565b8115610fc6570490565b634e487b7160e01b5f52601260045260245ffd5b919082039182116103c857565b919082018092116103c857565b60018060a01b03165f52600360205260405f206040519061101482610f6b565b8054825260018101546020830152600281015490604083019182526003810154606084019081526004820154608085015260ff600660058401549360a0870194855201541660c085019060058110156103ef5781525160058110156103ef575f19016110b7576301e133806110ab6110b4946127106110a561109a610ecb965142610fda565b928951905190610fa9565b04610fa9565b04809451610fe7565b91565b505050505f905f90565b6102ee8110156110ed5761028a8110156110e75761022611156110e2575f90565b600190565b50600290565b50600390565b60025f5160206112295f395f51905f52541461111c5760025f5160206112295f395f51905f5255565b633ee5aeb560e01b5f5260045ffd5b6040516323b872dd60e01b5f9081526001600160a01b039384166004529290931660245260449390935260209060648180865af19060015f511482161561119c575b6040525f6060521561117c5750565b635274afe760e01b5f9081526001600160a01b0391909116600452602490fd5b9060018115166111b457823b15153d1516169061116d565b503d5f823e3d90fd5b916040519163a9059cbb60e01b5f5260018060a01b031660045260245260205f60448180865af19060015f51148216156111fd575b6040521561117c5750565b9060018115166111b457823b15153d151616906111f2565b5f546001600160a01b031633036108225756fe9b779b17422d0df92223018b32b4d1fa46e071723d6817e2486d003becc55f00a26469706673582212203a515bd273aaabd1f85f36e8ef7a323d515fba3beb0df1ed7f9a45b229c2e3e664736f6c63430008220033",
    "sourcePath": "/home/raigoza/Desktop/qie-hackathon/src/QIELending.sol",
    "compiler": {
        "name": "solc",
        "version": "0.8.34+commit.80d5c536"
    },
    "functionHashes": {
        "LIQUIDITY_RESERVE_BPS()": "a4082f19",
        "acceptOwnership()": "79ba5097",
        "activeLoanVolume()": "b1290b29",
        "addLiquidity(uint256)": "51c6590a",
        "getLoanTerms(address)": "1bc394ee",
        "getRepaymentAmount(address)": "e8a771cd",
        "loans(address)": "73b4086b",
        "markDefault(address)": "be81c4d4",
        "neobank()": "7e67f2ba",
        "owner()": "8da5cb5b",
        "pendingOwner()": "e30c3978",
        "qusdc()": "94d4e4f8",
        "removeLiquidity(uint256)": "9c8f9f23",
        "renounceOwnership()": "715018a6",
        "repayLoan(address,uint256)": "93a595f5",
        "requestLoan(uint256,uint256,address)": "22385ed4",
        "scorer()": "85c758f7",
        "tiers(uint8)": "d1d79974",
        "totalLiquidity()": "15770f92",
        "transferOwnership(address)": "f2fde38b",
        "vault()": "fbfa77cf"
    },
    "gasEstimates": {
        "creation": {
            "codeDepositCost": "946800",
            "executionCost": "infinite",
            "totalCost": "infinite"
        },
        "external": {
            "LIQUIDITY_RESERVE_BPS()": "439",
            "acceptOwnership()": "52400",
            "activeLoanVolume()": "2564",
            "addLiquidity(uint256)": "infinite",
            "getLoanTerms(address)": "infinite",
            "getRepaymentAmount(address)": "infinite",
            "loans(address)": "15314",
            "markDefault(address)": "infinite",
            "neobank()": "infinite",
            "owner()": "2477",
            "pendingOwner()": "2654",
            "qusdc()": "infinite",
            "removeLiquidity(uint256)": "infinite",
            "renounceOwnership()": "52365",
            "repayLoan(address,uint256)": "infinite",
            "requestLoan(uint256,uint256,address)": "infinite",
            "scorer()": "infinite",
            "tiers(uint8)": "11212",
            "totalLiquidity()": "2248",
            "transferOwnership(address)": "30653",
            "vault()": "infinite"
        },
        "internal": {
            "_getTier(uint256)": "88"
        }
    }
}