{
    "contractName": "QIENeobank",
    "abi": [
        {
            "inputs": [
                {
                    "internalType": "address",
                    "name": "_qusdc",
                    "type": "address"
                },
                {
                    "internalType": "address",
                    "name": "_vault",
                    "type": "address"
                },
                {
                    "internalType": "address",
                    "name": "_pool",
                    "type": "address"
                },
                {
                    "internalType": "address",
                    "name": "_scorer",
                    "type": "address"
                },
                {
                    "internalType": "address",
                    "name": "_identity",
                    "type": "address"
                }
            ],
            "stateMutability": "nonpayable",
            "type": "constructor"
        },
        {
            "inputs": [],
            "name": "ActiveLoanExists",
            "type": "error"
        },
        {
            "inputs": [],
            "name": "BelowMinDeposit",
            "type": "error"
        },
        {
            "inputs": [],
            "name": "IdentityExpired",
            "type": "error"
        },
        {
            "inputs": [],
            "name": "IdentityFrozen",
            "type": "error"
        },
        {
            "inputs": [],
            "name": "IdentityRequired",
            "type": "error"
        },
        {
            "inputs": [],
            "name": "InsufficientBalance",
            "type": "error"
        },
        {
            "inputs": [],
            "name": "InsufficientVaultActivity",
            "type": "error"
        },
        {
            "inputs": [],
            "name": "LendingNotAllowed",
            "type": "error"
        },
        {
            "inputs": [],
            "name": "LendingNotSet",
            "type": "error"
        },
        {
            "inputs": [],
            "name": "LoanRepaymentFailed",
            "type": "error"
        },
        {
            "inputs": [],
            "name": "NoActiveLoan",
            "type": "error"
        },
        {
            "inputs": [
                {
                    "internalType": "address",
                    "name": "owner",
                    "type": "address"
                }
            ],
            "name": "OwnableInvalidOwner",
            "type": "error"
        },
        {
            "inputs": [
                {
                    "internalType": "address",
                    "name": "account",
                    "type": "address"
                }
            ],
            "name": "OwnableUnauthorizedAccount",
            "type": "error"
        },
        {
            "inputs": [],
            "name": "ReentrancyGuardReentrantCall",
            "type": "error"
        },
        {
            "inputs": [
                {
                    "internalType": "address",
                    "name": "token",
                    "type": "address"
                }
            ],
            "name": "SafeERC20FailedOperation",
            "type": "error"
        },
        {
            "inputs": [],
            "name": "TierTooLow",
            "type": "error"
        },
        {
            "inputs": [],
            "name": "TransferFailed",
            "type": "error"
        },
        {
            "inputs": [],
            "name": "UnsecuredNotAllowed",
            "type": "error"
        },
        {
            "inputs": [],
            "name": "ZeroAddress",
            "type": "error"
        },
        {
            "inputs": [],
            "name": "ZeroAmount",
            "type": "error"
        },
        {
            "anonymous": false,
            "inputs": [
                {
                    "indexed": true,
                    "internalType": "address",
                    "name": "user",
                    "type": "address"
                },
                {
                    "indexed": true,
                    "internalType": "uint256",
                    "name": "marketId",
                    "type": "uint256"
                },
                {
                    "indexed": false,
                    "internalType": "bool",
                    "name": "isYes",
                    "type": "bool"
                },
                {
                    "indexed": false,
                    "internalType": "uint256",
                    "name": "amount",
                    "type": "uint256"
                }
            ],
            "name": "BetPlaced",
            "type": "event"
        },
        {
            "anonymous": false,
            "inputs": [
                {
                    "indexed": true,
                    "internalType": "address",
                    "name": "user",
                    "type": "address"
                },
                {
                    "indexed": false,
                    "internalType": "uint256",
                    "name": "amount",
                    "type": "uint256"
                },
                {
                    "indexed": false,
                    "internalType": "uint256",
                    "name": "sharesReceived",
                    "type": "uint256"
                }
            ],
            "name": "Deposited",
            "type": "event"
        },
        {
            "anonymous": false,
            "inputs": [
                {
                    "indexed": false,
                    "internalType": "address",
                    "name": "user",
                    "type": "address"
                }
            ],
            "name": "IdentityRequiredForAccess",
            "type": "event"
        },
        {
            "anonymous": false,
            "inputs": [
                {
                    "indexed": true,
                    "internalType": "address",
                    "name": "lending",
                    "type": "address"
                }
            ],
            "name": "LendingSet",
            "type": "event"
        },
        {
            "anonymous": false,
            "inputs": [
                {
                    "indexed": true,
                    "internalType": "address",
                    "name": "provider",
                    "type": "address"
                },
                {
                    "indexed": false,
                    "internalType": "uint256",
                    "name": "amount",
                    "type": "uint256"
                },
                {
                    "indexed": false,
                    "internalType": "uint256",
                    "name": "liquidityShares",
                    "type": "uint256"
                }
            ],
            "name": "LiquidityAdded",
            "type": "event"
        },
        {
            "anonymous": false,
            "inputs": [
                {
                    "indexed": true,
                    "internalType": "address",
                    "name": "provider",
                    "type": "address"
                },
                {
                    "indexed": false,
                    "internalType": "uint256",
                    "name": "amount",
                    "type": "uint256"
                },
                {
                    "indexed": false,
                    "internalType": "uint256",
                    "name": "sharesBurned",
                    "type": "uint256"
                }
            ],
            "name": "LiquidityRemoved",
            "type": "event"
        },
        {
            "anonymous": false,
            "inputs": [
                {
                    "indexed": true,
                    "internalType": "address",
                    "name": "user",
                    "type": "address"
                },
                {
                    "indexed": false,
                    "internalType": "uint256",
                    "name": "amount",
                    "type": "uint256"
                },
                {
                    "indexed": false,
                    "internalType": "uint256",
                    "name": "interest",
                    "type": "uint256"
                }
            ],
            "name": "LoanRepaid",
            "type": "event"
        },
        {
            "anonymous": false,
            "inputs": [
                {
                    "indexed": true,
                    "internalType": "address",
                    "name": "user",
                    "type": "address"
                },
                {
                    "indexed": false,
                    "internalType": "uint256",
                    "name": "amount",
                    "type": "uint256"
                },
                {
                    "indexed": false,
                    "internalType": "uint256",
                    "name": "collateral",
                    "type": "uint256"
                },
                {
                    "indexed": false,
                    "internalType": "uint8",
                    "name": "tier",
                    "type": "uint8"
                }
            ],
            "name": "LoanRequested",
            "type": "event"
        },
        {
            "anonymous": false,
            "inputs": [
                {
                    "indexed": false,
                    "internalType": "uint256",
                    "name": "newMin",
                    "type": "uint256"
                }
            ],
            "name": "MinDepositUpdated",
            "type": "event"
        },
        {
            "anonymous": false,
            "inputs": [
                {
                    "indexed": true,
                    "internalType": "address",
                    "name": "previousOwner",
                    "type": "address"
                },
                {
                    "indexed": true,
                    "internalType": "address",
                    "name": "newOwner",
                    "type": "address"
                }
            ],
            "name": "OwnershipTransferStarted",
            "type": "event"
        },
        {
            "anonymous": false,
            "inputs": [
                {
                    "indexed": true,
                    "internalType": "address",
                    "name": "previousOwner",
                    "type": "address"
                },
                {
                    "indexed": true,
                    "internalType": "address",
                    "name": "newOwner",
                    "type": "address"
                }
            ],
            "name": "OwnershipTransferred",
            "type": "event"
        },
        {
            "anonymous": false,
            "inputs": [
                {
                    "indexed": true,
                    "internalType": "address",
                    "name": "user",
                    "type": "address"
                },
                {
                    "indexed": true,
                    "internalType": "uint256",
                    "name": "marketId",
                    "type": "uint256"
                }
            ],
            "name": "RefundClaimed",
            "type": "event"
        },
        {
            "anonymous": false,
            "inputs": [
                {
                    "indexed": true,
                    "internalType": "address",
                    "name": "from",
                    "type": "address"
                },
                {
                    "indexed": true,
                    "internalType": "address",
                    "name": "to",
                    "type": "address"
                },
                {
                    "indexed": false,
                    "internalType": "uint256",
                    "name": "amount",
                    "type": "uint256"
                }
            ],
            "name": "Sent",
            "type": "event"
        },
        {
            "anonymous": false,
            "inputs": [
                {
                    "indexed": true,
                    "internalType": "address",
                    "name": "user",
                    "type": "address"
                },
                {
                    "indexed": true,
                    "internalType": "uint256",
                    "name": "marketId",
                    "type": "uint256"
                }
            ],
            "name": "WinningsClaimed",
            "type": "event"
        },
        {
            "anonymous": false,
            "inputs": [
                {
                    "indexed": true,
                    "internalType": "address",
                    "name": "user",
                    "type": "address"
                },
                {
                    "indexed": false,
                    "internalType": "uint256",
                    "name": "assets",
                    "type": "uint256"
                },
                {
                    "indexed": false,
                    "internalType": "uint256",
                    "name": "sharesRedeemed",
                    "type": "uint256"
                }
            ],
            "name": "Withdrawn",
            "type": "event"
        },
        {
            "inputs": [],
            "name": "acceptOwnership",
            "outputs": [],
            "stateMutability": "nonpayable",
            "type": "function"
        },
        {
            "inputs": [
                {
                    "internalType": "uint256",
                    "name": "amount",
                    "type": "uint256"
                }
            ],
            "name": "addLiquidity",
            "outputs": [],
            "stateMutability": "nonpayable",
            "type": "function"
        },
        {
            "inputs": [
                {
                    "internalType": "uint256",
                    "name": "marketId",
                    "type": "uint256"
                },
                {
                    "internalType": "bool",
                    "name": "isYes",
                    "type": "bool"
                },
                {
                    "internalType": "uint256",
                    "name": "amount",
                    "type": "uint256"
                }
            ],
            "name": "bet",
            "outputs": [],
            "stateMutability": "nonpayable",
            "type": "function"
        },
        {
            "inputs": [
                {
                    "internalType": "uint256",
                    "name": "marketId",
                    "type": "uint256"
                }
            ],
            "name": "claimRefund",
            "outputs": [],
            "stateMutability": "nonpayable",
            "type": "function"
        },
        {
            "inputs": [
                {
                    "internalType": "uint256",
                    "name": "marketId",
                    "type": "uint256"
                }
            ],
            "name": "claimWinnings",
            "outputs": [],
            "stateMutability": "nonpayable",
            "type": "function"
        },
        {
            "inputs": [
                {
                    "internalType": "uint256",
                    "name": "amount",
                    "type": "uint256"
                }
            ],
            "name": "deposit",
            "outputs": [
                {
                    "internalType": "uint256",
                    "name": "shares",
                    "type": "uint256"
                }
            ],
            "stateMutability": "nonpayable",
            "type": "function"
        },
        {
            "inputs": [
                {
                    "internalType": "address",
                    "name": "user",
                    "type": "address"
                }
            ],
            "name": "getAccount",
            "outputs": [
                {
                    "internalType": "bool",
                    "name": "hasIdentity",
                    "type": "bool"
                },
                {
                    "internalType": "uint8",
                    "name": "identityTier",
                    "type": "uint8"
                },
                {
                    "internalType": "uint256",
                    "name": "balanceQUSDC",
                    "type": "uint256"
                },
                {
                    "internalType": "uint256",
                    "name": "sharesHeld",
                    "type": "uint256"
                },
                {
                    "internalType": "uint256",
                    "name": "totalDepositedLife",
                    "type": "uint256"
                },
                {
                    "internalType": "uint256",
                    "name": "depositCountLife",
                    "type": "uint256"
                },
                {
                    "internalType": "uint256",
                    "name": "firstDepositTime",
                    "type": "uint256"
                },
                {
                    "internalType": "uint256",
                    "name": "score",
                    "type": "uint256"
                },
                {
                    "internalType": "uint256",
                    "name": "scorePercent",
                    "type": "uint256"
                },
                {
                    "internalType": "string",
                    "name": "tier",
                    "type": "string"
                }
            ],
            "stateMutability": "view",
            "type": "function"
        },
        {
            "inputs": [
                {
                    "internalType": "address",
                    "name": "user",
                    "type": "address"
                }
            ],
            "name": "getBettingStats",
            "outputs": [
                {
                    "internalType": "uint256",
                    "name": "betsTotal",
                    "type": "uint256"
                },
                {
                    "internalType": "uint256",
                    "name": "betsCorrect",
                    "type": "uint256"
                },
                {
                    "internalType": "uint256",
                    "name": "wageredTotal",
                    "type": "uint256"
                },
                {
                    "internalType": "uint256",
                    "name": "winRate",
                    "type": "uint256"
                }
            ],
            "stateMutability": "view",
            "type": "function"
        },
        {
            "inputs": [
                {
                    "internalType": "address",
                    "name": "user",
                    "type": "address"
                }
            ],
            "name": "getIdentityAccountInfo",
            "outputs": [
                {
                    "internalType": "enum QIEIdentity.Tier",
                    "name": "tier",
                    "type": "uint8"
                },
                {
                    "internalType": "bool",
                    "name": "isActive",
                    "type": "bool"
                },
                {
                    "internalType": "bool",
                    "name": "canLend",
                    "type": "bool"
                },
                {
                    "internalType": "uint256",
                    "name": "maxUnsecured",
                    "type": "uint256"
                },
                {
                    "internalType": "uint256",
                    "name": "minDepositRequired",
                    "type": "uint256"
                }
            ],
            "stateMutability": "view",
            "type": "function"
        },
        {
            "inputs": [],
            "name": "getLendingStats",
            "outputs": [
                {
                    "internalType": "uint256",
                    "name": "totalLiquidity",
                    "type": "uint256"
                },
                {
                    "internalType": "uint256",
                    "name": "activeLoanVolume",
                    "type": "uint256"
                },
                {
                    "internalType": "uint256",
                    "name": "utilizationRate",
                    "type": "uint256"
                }
            ],
            "stateMutability": "view",
            "type": "function"
        },
        {
            "inputs": [
                {
                    "internalType": "address",
                    "name": "user",
                    "type": "address"
                }
            ],
            "name": "getLoanDetails",
            "outputs": [
                {
                    "internalType": "uint256",
                    "name": "principal",
                    "type": "uint256"
                },
                {
                    "internalType": "uint256",
                    "name": "collateral",
                    "type": "uint256"
                },
                {
                    "internalType": "uint256",
                    "name": "interestRateBps",
                    "type": "uint256"
                },
                {
                    "internalType": "uint256",
                    "name": "issuedAt",
                    "type": "uint256"
                },
                {
                    "internalType": "uint256",
                    "name": "dueDate",
                    "type": "uint256"
                },
                {
                    "internalType": "uint256",
                    "name": "repaid",
                    "type": "uint256"
                },
                {
                    "internalType": "uint8",
                    "name": "status",
                    "type": "uint8"
                },
                {
                    "internalType": "uint256",
                    "name": "totalDue",
                    "type": "uint256"
                },
                {
                    "internalType": "uint256",
                    "name": "interestAccrued",
                    "type": "uint256"
                }
            ],
            "stateMutability": "view",
            "type": "function"
        },
        {
            "inputs": [
                {
                    "internalType": "address",
                    "name": "user",
                    "type": "address"
                }
            ],
            "name": "getLoanTerms",
            "outputs": [
                {
                    "internalType": "uint8",
                    "name": "tier",
                    "type": "uint8"
                },
                {
                    "internalType": "uint256",
                    "name": "maxLoan",
                    "type": "uint256"
                },
                {
                    "internalType": "uint256",
                    "name": "interestRateBps",
                    "type": "uint256"
                },
                {
                    "internalType": "uint256",
                    "name": "requiredCollateral",
                    "type": "uint256"
                },
                {
                    "internalType": "uint256",
                    "name": "currentScore",
                    "type": "uint256"
                },
                {
                    "internalType": "bool",
                    "name": "canRequestLoan",
                    "type": "bool"
                },
                {
                    "internalType": "uint256",
                    "name": "maxUnsecuredLimit",
                    "type": "uint256"
                }
            ],
            "stateMutability": "view",
            "type": "function"
        },
        {
            "inputs": [
                {
                    "internalType": "uint256",
                    "name": "marketId",
                    "type": "uint256"
                }
            ],
            "name": "getMarket",
            "outputs": [
                {
                    "internalType": "string",
                    "name": "question",
                    "type": "string"
                },
                {
                    "internalType": "uint256",
                    "name": "endTime",
                    "type": "uint256"
                },
                {
                    "internalType": "uint256",
                    "name": "resolutionTime",
                    "type": "uint256"
                },
                {
                    "internalType": "uint256",
                    "name": "yesPool",
                    "type": "uint256"
                },
                {
                    "internalType": "uint256",
                    "name": "noPool",
                    "type": "uint256"
                },
                {
                    "internalType": "uint256",
                    "name": "vaultLiquidity",
                    "type": "uint256"
                },
                {
                    "internalType": "uint256",
                    "name": "totalFees",
                    "type": "uint256"
                },
                {
                    "internalType": "uint8",
                    "name": "status",
                    "type": "uint8"
                },
                {
                    "internalType": "uint8",
                    "name": "outcome",
                    "type": "uint8"
                }
            ],
            "stateMutability": "view",
            "type": "function"
        },
        {
            "inputs": [
                {
                    "internalType": "address",
                    "name": "user",
                    "type": "address"
                },
                {
                    "internalType": "uint256",
                    "name": "marketId",
                    "type": "uint256"
                }
            ],
            "name": "getPosition",
            "outputs": [
                {
                    "internalType": "uint256",
                    "name": "yesAmount",
                    "type": "uint256"
                },
                {
                    "internalType": "uint256",
                    "name": "noAmount",
                    "type": "uint256"
                },
                {
                    "internalType": "bool",
                    "name": "claimed",
                    "type": "bool"
                }
            ],
            "stateMutability": "view",
            "type": "function"
        },
        {
            "inputs": [
                {
                    "internalType": "address",
                    "name": "user",
                    "type": "address"
                }
            ],
            "name": "getScoreBreakdown",
            "outputs": [
                {
                    "internalType": "uint256",
                    "name": "total",
                    "type": "uint256"
                },
                {
                    "internalType": "uint256",
                    "name": "tenure",
                    "type": "uint256"
                },
                {
                    "internalType": "uint256",
                    "name": "volume",
                    "type": "uint256"
                },
                {
                    "internalType": "uint256",
                    "name": "activity",
                    "type": "uint256"
                },
                {
                    "internalType": "uint256",
                    "name": "accuracy",
                    "type": "uint256"
                },
                {
                    "internalType": "uint256",
                    "name": "consistency",
                    "type": "uint256"
                },
                {
                    "internalType": "string",
                    "name": "tier",
                    "type": "string"
                }
            ],
            "stateMutability": "view",
            "type": "function"
        },
        {
            "inputs": [],
            "name": "identity",
            "outputs": [
                {
                    "internalType": "contract QIEIdentity",
                    "name": "",
                    "type": "address"
                }
            ],
            "stateMutability": "view",
            "type": "function"
        },
        {
            "inputs": [],
            "name": "lending",
            "outputs": [
                {
                    "internalType": "contract IQIELending",
                    "name": "",
                    "type": "address"
                }
            ],
            "stateMutability": "view",
            "type": "function"
        },
        {
            "inputs": [
                {
                    "internalType": "address",
                    "name": "",
                    "type": "address"
                }
            ],
            "name": "liquidityShares",
            "outputs": [
                {
                    "internalType": "uint256",
                    "name": "",
                    "type": "uint256"
                }
            ],
            "stateMutability": "view",
            "type": "function"
        },
        {
            "inputs": [],
            "name": "minDeposit",
            "outputs": [
                {
                    "internalType": "uint256",
                    "name": "",
                    "type": "uint256"
                }
            ],
            "stateMutability": "view",
            "type": "function"
        },
        {
            "inputs": [],
            "name": "minDepositsForLoan",
            "outputs": [
                {
                    "internalType": "uint256",
                    "name": "",
                    "type": "uint256"
                }
            ],
            "stateMutability": "view",
            "type": "function"
        },
        {
            "inputs": [],
            "name": "owner",
            "outputs": [
                {
                    "internalType": "address",
                    "name": "",
                    "type": "address"
                }
            ],
            "stateMutability": "view",
            "type": "function"
        },
        {
            "inputs": [],
            "name": "pendingOwner",
            "outputs": [
                {
                    "internalType": "address",
                    "name": "",
                    "type": "address"
                }
            ],
            "stateMutability": "view",
            "type": "function"
        },
        {
            "inputs": [],
            "name": "pool",
            "outputs": [
                {
                    "internalType": "contract IPredictionPool",
                    "name": "",
                    "type": "address"
                }
            ],
            "stateMutability": "view",
            "type": "function"
        },
        {
            "inputs": [],
            "name": "qusdc",
            "outputs": [
                {
                    "internalType": "contract IERC20",
                    "name": "",
                    "type": "address"
                }
            ],
            "stateMutability": "view",
            "type": "function"
        },
        {
            "inputs": [
                {
                    "internalType": "uint256",
                    "name": "shares",
                    "type": "uint256"
                }
            ],
            "name": "removeLiquidity",
            "outputs": [],
            "stateMutability": "nonpayable",
            "type": "function"
        },
        {
            "inputs": [],
            "name": "renounceOwnership",
            "outputs": [],
            "stateMutability": "nonpayable",
            "type": "function"
        },
        {
            "inputs": [],
            "name": "repayLoan",
            "outputs": [],
            "stateMutability": "nonpayable",
            "type": "function"
        },
        {
            "inputs": [
                {
                    "internalType": "uint256",
                    "name": "amount",
                    "type": "uint256"
                },
                {
                    "internalType": "uint256",
                    "name": "collateral",
                    "type": "uint256"
                }
            ],
            "name": "requestLoan",
            "outputs": [],
            "stateMutability": "nonpayable",
            "type": "function"
        },
        {
            "inputs": [],
            "name": "scorer",
            "outputs": [
                {
                    "internalType": "contract ICreditScore",
                    "name": "",
                    "type": "address"
                }
            ],
            "stateMutability": "view",
            "type": "function"
        },
        {
            "inputs": [
                {
                    "internalType": "address",
                    "name": "to",
                    "type": "address"
                },
                {
                    "internalType": "uint256",
                    "name": "amount",
                    "type": "uint256"
                }
            ],
            "name": "send",
            "outputs": [],
            "stateMutability": "nonpayable",
            "type": "function"
        },
        {
            "inputs": [
                {
                    "internalType": "address",
                    "name": "_lending",
                    "type": "address"
                }
            ],
            "name": "setLending",
            "outputs": [],
            "stateMutability": "nonpayable",
            "type": "function"
        },
        {
            "inputs": [
                {
                    "internalType": "uint256",
                    "name": "_min",
                    "type": "uint256"
                }
            ],
            "name": "setMinDeposit",
            "outputs": [],
            "stateMutability": "nonpayable",
            "type": "function"
        },
        {
            "inputs": [
                {
                    "internalType": "uint256",
                    "name": "_min",
                    "type": "uint256"
                }
            ],
            "name": "setMinDepositsForLoan",
            "outputs": [],
            "stateMutability": "nonpayable",
            "type": "function"
        },
        {
            "inputs": [],
            "name": "totalLiquidityShares",
            "outputs": [
                {
                    "internalType": "uint256",
                    "name": "",
                    "type": "uint256"
                }
            ],
            "stateMutability": "view",
            "type": "function"
        },
        {
            "inputs": [
                {
                    "internalType": "address",
                    "name": "",
                    "type": "address"
                }
            ],
            "name": "totalReceived",
            "outputs": [
                {
                    "internalType": "uint256",
                    "name": "",
                    "type": "uint256"
                }
            ],
            "stateMutability": "view",
            "type": "function"
        },
        {
            "inputs": [
                {
                    "internalType": "address",
                    "name": "",
                    "type": "address"
                }
            ],
            "name": "totalSent",
            "outputs": [
                {
                    "internalType": "uint256",
                    "name": "",
                    "type": "uint256"
                }
            ],
            "stateMutability": "view",
            "type": "function"
        },
        {
            "inputs": [
                {
                    "internalType": "address",
                    "name": "newOwner",
                    "type": "address"
                }
            ],
            "name": "transferOwnership",
            "outputs": [],
            "stateMutability": "nonpayable",
            "type": "function"
        },
        {
            "inputs": [],
            "name": "vault",
            "outputs": [
                {
                    "internalType": "contract IQIEVault",
                    "name": "",
                    "type": "address"
                }
            ],
            "stateMutability": "view",
            "type": "function"
        },
        {
            "inputs": [
                {
                    "internalType": "uint256",
                    "name": "assets",
                    "type": "uint256"
                }
            ],
            "name": "withdraw",
            "outputs": [
                {
                    "internalType": "uint256",
                    "name": "shares",
                    "type": "uint256"
                }
            ],
            "stateMutability": "nonpayable",
            "type": "function"
        },
        {
            "inputs": [],
            "name": "withdrawAll",
            "outputs": [
                {
                    "internalType": "uint256",
                    "name": "assets",
                    "type": "uint256"
                }
            ],
            "stateMutability": "nonpayable",
            "type": "function"
        }
    ],
    "bytecode": "610120346102be57601f61474338819003918201601f19168301916001600160401b038311848410176102c25780849260a0946040528339810103126102be57610048816102d6565b90610055602082016102d6565b90610062604082016102d6565b9061007b6080610074606084016102d6565b92016102d6565b9133156102ab57600180546001600160a01b03199081169091555f805433928116831782556040519792916001600160a01b03909116907f8be0079c531659141344cd1fd0a4f28419497f9722a3daafe3b4186f6b6457e09080a360017f9b779b17422d0df92223018b32b4d1fa46e071723d6817e2486d003becc55f00819055620f42406003556004556001600160a01b031693841561029c576001600160a01b031690811561029c576001600160a01b031691821561029c576001600160a01b031692831561029c576001600160a01b031693841561029c5760805260a05260c05260e0526101005261445890816102eb82396080518181816108e2015281816110e3015281816113bf0152818161198001528181611ed20152818161210901528181612288015281816129e80152613002015260a0518181816101eb015281816102e001528181611402015281816117a10152818161262b015281816137990152613e47015260c051818181610c6001528181610e16015281816122ca01528181612a2e01528181612d03015281816136020152613be2015260e0518181816103e80152818161250901526139b8015261010051818181610259015281816107b501528181611014015281816112a20152818161169501528181611d1a015281816121cf015281816125660152818161292301528181612c5001528181612e9d0152818161331f015281816136ce01528181613ab50152613d7a0152f35b63d92e233d60e01b5f5260045ffd5b631e4fbdf760e01b5f525f60045260245ffd5b5f80fd5b634e487b7160e01b5f52604160045260245ffd5b51906001600160a01b03821682036102be5756fe6080806040526004361015610012575f80fd5b5f905f3560e01c90816308f81a9314613c115750806316f0115b14613bcd578063180fde0714613b565780631bc394ee14613b015780631d291ad814613ae45780632c159a1a14613aa05780632c27750a146139765780632e1a7d4d1461369d5780633adbb5af146135ac57806341b3d1851461358f5780634df9cfb3146135575780634eef0fb1146132e557806351c6590a14612e6b57806352dd148414612e485780635b7baf6414612c1e578063677bd9ff146128f1578063715018a61461288c57806379ba509714612807578063853828b61461253857806385c758f7146124f357806387cd5b20146124d55780638da5cb5b146124ae5780638decaec01461218d5780638fcc9cfb1461213857806394d4e4f8146120f357806395e97eee146120ca578063961014711461209c5780639c8f9f2314611ce85780639db4aa0414611caf578063aa452fa614611660578063b6b55f251461126f578063d0679d3414610fda578063e30c397814610fb1578063e8a7da8e14610f4d578063eb44fdd314610de8578063ef6e1b4214610c23578063f2fde38b14610bb6578063f966ade714610787578063fbcbc0f11461021d5763fbfa77cf146101d6575f80fd5b3461021a578060031936011261021a576040517f00000000000000000000000000000000000000000000000000000000000000006001600160a01b03168152602090f35b80fd5b503461021a57602036600319011261021a57610237613c45565b60405163b9209e3360e01b81526001600160a01b0391821660048201819052917f000000000000000000000000000000000000000000000000000000000000000016602082602481845afa9182156106a257849261073e575b509260206024939460405194858092635a2d572960e11b82528860048301525afa928315610731578193610700575b5060058310156106ec5760405163ce96cb7760e01b815260048101859052937f00000000000000000000000000000000000000000000000000000000000000006001600160a01b031690602086602481855afa9586156106e15783966106ad575b506040516370a0823160e01b815260048101829052602081602481865afa9081156106a2578491610670575b50604051635305548160e01b815260048101839052602081602481875afa908115610665578591610633575b50604051637a221ecd60e11b81526004810184905290602082602481885afa9182156105f15786926105fc575b50602060249560405196878092630da7a71160e31b82528860048301525afa9283156105f15786936105bc575b604051630d47875d60e41b8152600481018690527f00000000000000000000000000000000000000000000000000000000000000006001600160a01b03169a9096506020876024818e5afa9586156105b157889661057c575b604051633a56557f60e01b81526004810182905297506020886024818f5afa978815610571579089918299610536575b506024604051809e8193635a2d572960e11b835260048301525afa97881561052a5780986104da575b506104d698999a5060ff6040519b8c9b15158c521660208b015260408a01526060890152608088015260a087015260c086015260e0850152610100840152610140610120840152610140830190613c5b565b0390f35b9097503d80828d3e6104ec818d613c8c565b8b019a6020818d03126105265780519167ffffffffffffffff831161021a57509a61051d916104d69a9b9c01613fdf565b968a9998610484565b5080fd5b604051903d90823e3d90fd5b915097506020813d602011610569575b8161055360209383613c8c565b8101031261056557889051975f61045b565b5f80fd5b3d9150610546565b6040513d8b823e3d90fd5b95506020873d6020116105a9575b8161059760209383613c8c565b8101031261056557602496519561042b565b3d915061058a565b6040513d8a823e3d90fd5b92506020853d6020116105e9575b816105d760209383613c8c565b810103126105655760249451926103d2565b3d91506105ca565b6040513d88823e3d90fd5b9491506020853d60201161062b575b8161061860209383613c8c565b81010312610565579351909360206103a5565b3d915061060b565b90506020813d60201161065d575b8161064e60209383613c8c565b8101031261056557515f610378565b3d9150610641565b6040513d87823e3d90fd5b90506020813d60201161069a575b8161068b60209383613c8c565b8101031261056557515f61034c565b3d915061067e565b6040513d86823e3d90fd5b9095506020813d6020116106d9575b816106c960209383613c8c565b810103126105655751945f610320565b3d91506106bc565b6040513d85823e3d90fd5b634e487b7160e01b81526021600452602490fd5b61072391935060203d60201161072a575b61071b8183613c8c565b810190614035565b915f6102bf565b503d610711565b50604051903d90823e3d90fd5b9091506020813d60201161077f575b8161075a60209383613c8c565b8101031261077b5792602061077160249495613cc2565b9291949350610290565b8380fd5b3d915061074d565b503461021a578060031936011261021a576107a06142e0565b60405163b9209e3360e01b81523360048201527f00000000000000000000000000000000000000000000000000000000000000006001600160a01b031690602081602481855afa9081156106e1578391610b7c575b5015610b6d5760405163054325fd60e21b8152336004820152602081602481855afa9081156106e1578391610b33575b5015610b245760405163ba2eb54160e01b8152336004820152602081602481855afa9081156106e1578391610aea575b50610adb57602060249160405192838092635a2d572960e11b82523360048301525afa908115610a05578291610abc575b506005811015610aa85715610a99576002546001600160a01b03168015610a8a576040805163e8a771cd60e01b815233600482015291829060249082905afa908115610a05578291610a5a575b508015610a4b576109476020827f000000000000000000000000000000000000000000000000000000000000000061090d82303384614318565b60025460405163095ea7b360e01b81526001600160a01b039091166004820152602481019290925290928391908290879082906044820190565b03926001600160a01b03165af180156106e157610a10575b5060025482906001600160a01b0316803b15610526576040516393a595f560e01b8152336004820152602481018490529082908290604490829084905af18015610a05576109f0575b50506040519081528160208201527fc7ce0a35f17b490de2a317e7fecb2cae86b1abffb03800b2f49282352138269860403392a260015f5160206144035f395f51905f525580f35b816109fa91613c8c565b61052657815f6109a8565b6040513d84823e3d90fd5b6020813d602011610a43575b81610a2960209383613c8c565b81010312610a3f57610a3a90613cc2565b61095f565b8280fd5b3d9150610a1c565b6301c8bc7760e21b8252600482fd5b610a7c915060403d604011610a83575b610a748183613c8c565b8101906141a9565b505f6108d3565b503d610a6a565b63a9d363d760e01b8252600482fd5b6361d5de3d60e01b8152600490fd5b634e487b7160e01b82526021600452602482fd5b610ad5915060203d60201161072a5761071b8183613c8c565b5f610886565b630ce8eac560e01b8252600482fd5b90506020813d602011610b1c575b81610b0560209383613c8c565b81010312610a3f57610b1690613cc2565b5f610855565b3d9150610af8565b633de87d9960e01b8252600482fd5b90506020813d602011610b65575b81610b4e60209383613c8c565b81010312610a3f57610b5f90613cc2565b5f610825565b3d9150610b41565b63d6fba88560e01b8252600482fd5b90506020813d602011610bae575b81610b9760209383613c8c565b81010312610a3f57610ba890613cc2565b5f6107f5565b3d9150610b8a565b503461021a57602036600319011261021a57610bd0613c45565b610bd86142ba565b600180546001600160a01b0319166001600160a01b0392831690811790915582549091167f38d16b8cac22d99fc7c124b9cd0de2d3fa1faef420bfe791d8c362d765e227008380a380f35b503461021a57602036600319011261021a57610c3d613c45565b6040516302ad72d960e21b81526001600160a01b039182166004820181905290917f000000000000000000000000000000000000000000000000000000000000000016602083602481845afa9283156106a2578493610db4575b5060405163638ba96f60e11b81526004810183905291602083602481855afa928315610665578593610d7f575b5060209060246040518094819363470762e960e01b835260048301525afa9081156106a2578491610d4d575b508215610d4457606482029382850460641483151715610d305750610d1783608095614074565b915b604051938452602084015260408301526060820152f35b634e487b7160e01b81526011600452602490fd5b60809391610d19565b90506020813d602011610d77575b81610d6860209383613c8c565b8101031261056557515f610cf0565b3d9150610d5b565b9092506020813d602011610dac575b81610d9b60209383613c8c565b810103126105655751916020610cc4565b3d9150610d8e565b9092506020813d602011610de0575b81610dd060209383613c8c565b810103126105655751915f610c97565b3d9150610dc3565b503461021a57602036600319011261021a5760405163b1283e7760e01b8152600480359082015281816024817f00000000000000000000000000000000000000000000000000000000000000006001600160a01b03165afa91821561052a57809181808182908392848096819a610eaf575b50509260ff9592610e7f99959287956040519b8c9b6101208d526101208d0190613c5b565b9960208c015260408b015260608a0152608089015260a088015260c08701521660e0850152166101008301520390f35b98509850505050505050503d8083833e610ec98183613c8c565b8101916101208284031261021a5781519067ffffffffffffffff821161021a5750610e7f92610ef9918301613fdf565b60ff60208301519281604082015193606083015192608081015160a082015160c083015191610f37610100610f3060e08701613ccf565b9501613ccf565b9a50939897929650909490939091908390610e5a565b503461021a57602036600319011261021a5761012060ff610f74610f6f613c45565b6141bf565b9798959096604095929594939451998a5260208a015260408901526060880152608087015260a08601521660c084015260e0830152610100820152f35b503461021a578060031936011261021a576001546040516001600160a01b039091168152602090f35b503461021a57604036600319011261021a57610ff4613c45565b602435610fff6142e0565b60405163b9209e3360e01b81523360048201527f00000000000000000000000000000000000000000000000000000000000000006001600160a01b031690602081602481855afa908115610665578591611235575b50156112265760405163ba2eb54160e01b8152336004820152602081602481855afa9081156106655785916111e8575b506111d957602060249160405192838092635a2d572960e11b82523360048301525afa9081156106a25784916111ba575b5060058110156111a65715611197578015611188576001600160a01b038216918215611179578161110791337f0000000000000000000000000000000000000000000000000000000000000000614318565b33835260056020526040832061111e828254614092565b9055818352600660205260408320611137828254614092565b90556040519081527f3990db2d31862302a685e8086b5755072a6e2b5b780af1ee81ece35ee3cd334560203392a360015f5160206144035f395f51905f525580f35b63d92e233d60e01b8452600484fd5b631f2a200560e01b8352600483fd5b6361d5de3d60e01b8352600483fd5b634e487b7160e01b84526021600452602484fd5b6111d3915060203d60201161072a5761071b8183613c8c565b5f6110b5565b630ce8eac560e01b8452600484fd5b90506020813d60201161121e575b8161120360209383613c8c565b8101031261121a5761121490613cc2565b5f611084565b8480fd5b3d91506111f6565b63d6fba88560e01b8452600484fd5b90506020813d602011611267575b8161125060209383613c8c565b8101031261121a5761126190613cc2565b5f611054565b3d9150611243565b503461021a57602036600319011261021a576004359061128d6142e0565b60405163b9209e3360e01b81523360048201527f00000000000000000000000000000000000000000000000000000000000000006001600160a01b031690602081602481855afa9081156106e1578391611626575b5015610b6d5760405163ba2eb54160e01b8152336004820152602081602481855afa9081156106e15783916115ec575b50610adb57604051635a2d572960e11b8152336004820152602081602481855afa9081156106e15783916115cd575b5060058110156115b957156115aa57821561159b57604051635a2d572960e11b8152336004820152602081602481855afa9081156106e15760246020926113a692869161157e575b50604051630be65bf560e41b815294859384926004840190613c7f565b5afa908115610a0557829161154c575b50821061153d577f0000000000000000000000000000000000000000000000000000000000000000916113eb81303386614318565b60405163095ea7b360e01b81526001600160a01b037f00000000000000000000000000000000000000000000000000000000000000008116600483018190526024830184905294602091839160449183918891165af180156106e157611506575b50604051636e553f6560e01b815260048101829052336024820152926020908490604490829086905af191821561052a57916114d1575b6020925060405190815281838201527f73a19dd210f1a7f902193214c0ee91dd35ee5b4d920cba8d519eca65a7b488ca60403392a260015f5160206144035f395f51905f5255604051908152f35b90506020823d6020116114fe575b816114ec60209383613c8c565b81010312610565576020915190611483565b3d91506114df565b6020813d602011611535575b8161151f60209383613c8c565b81010312610a3f5761153090613cc2565b61144c565b3d9150611512565b6325bb239560e21b8152600490fd5b90506020813d602011611576575b8161156760209383613c8c565b8101031261056557515f6113b6565b3d915061155a565b6115959150843d861161072a5761071b8183613c8c565b5f611389565b631f2a200560e01b8252600482fd5b6361d5de3d60e01b8252600482fd5b634e487b7160e01b83526021600452602483fd5b6115e6915060203d60201161072a5761071b8183613c8c565b5f611341565b90506020813d60201161161e575b8161160760209383613c8c565b81010312610a3f5761161890613cc2565b5f611312565b3d91506115fa565b90506020813d602011611658575b8161164160209383613c8c565b81010312610a3f5761165290613cc2565b5f6112e2565b3d9150611634565b503461021a57604036600319011261021a576004356024356116806142e0565b60405163b9209e3360e01b81523360048201527f00000000000000000000000000000000000000000000000000000000000000006001600160a01b031690602081602481855afa908115610665578591611c75575b50156112265760405163054325fd60e21b8152336004820152602081602481855afa908115610665578591611c3b575b5015611c2c5760405163ba2eb54160e01b8152336004820152602081602481855afa908115610665578591611bf2575b506111d957604051635a2d572960e11b8152336004820152602081602481855afa908115610665578591611bd3575b506005811015611bbf5715611bb0576002546001600160a01b0316908115611ba157604051637a221ecd60e11b81523360048201526020816024817f00000000000000000000000000000000000000000000000000000000000000006001600160a01b03165afa9081156105f1578691611b6f575b5060045411611b60576040516373b4086b60e01b815233600482015260e081602481865afa9081156105f15760019160ff918891611b2a575b501614611b1b57604051635a2d572960e11b815233600482015290602082602481845afa9081156105f1576024928792611af9575b50602090604051938480926307b76a0160e51b82523360048301525afa9182156105f1578692611ac2575b5060a060249360405194858092630de1ca7760e11b82523360048301525afa9182156105f15786938793611a87575b508415928315611a6e57508511611a5f576005811015611a4b57600311611a3c575b15611978575b60025484906001600160a01b0316803b156105265781809160646040518094819363088e17b560e21b83528a60048401528960248401523360448401525af18015610a0557611963575b505060ff9160405193845260208401521660408201527f1d955e5b7d5b471a95af1e485ef646f12aa502eb275a911d6b714297c0da55a060603392a260015f5160206144035f395f51905f525580f35b8161196d91613c8c565b61077b57835f611913565b6119e56020837f00000000000000000000000000000000000000000000000000000000000000006119ab82303384614318565b60025460405163095ea7b360e01b81526001600160a01b039091166004820152602481019290925290928391908290899082906044820190565b03926001600160a01b03165af1801561066557611a03575b506118c9565b6020813d602011611a34575b81611a1c60209383613c8c565b8101031261121a57611a2d90613cc2565b505f6119fd565b3d9150611a0f565b631a68e4b760e21b8552600485fd5b634e487b7160e01b86526021600452602486fd5b63744a39e960e01b8652600486fd5b9150508310156118c357631e9acf1760e31b8552600485fd5b909250611aad91935060a03d60a011611abb575b611aa58183613c8c565b810190613cdd565b50949291505092915f6118a1565b503d611a9b565b9291506020833d602011611af1575b81611ade60209383613c8c565b81010312610565579151909160a0611872565b3d9150611ad1565b6020919250611b1490823d841161072a5761071b8183613c8c565b9190611847565b632179f9db60e21b8552600485fd5b611b4c915060e03d60e011611b59575b611b448183613c8c565b810190613d0b565b955050505050505f611812565b503d611b3a565b638bffe68360e01b8552600485fd5b90506020813d602011611b99575b81611b8a60209383613c8c565b8101031261056557515f6117d9565b3d9150611b7d565b63a9d363d760e01b8552600485fd5b6361d5de3d60e01b8452600484fd5b634e487b7160e01b85526021600452602485fd5b611bec915060203d60201161072a5761071b8183613c8c565b5f611764565b90506020813d602011611c24575b81611c0d60209383613c8c565b8101031261121a57611c1e90613cc2565b5f611735565b3d9150611c00565b633de87d9960e01b8452600484fd5b90506020813d602011611c6d575b81611c5660209383613c8c565b8101031261121a57611c6790613cc2565b5f611705565b3d9150611c49565b90506020813d602011611ca7575b81611c9060209383613c8c565b8101031261121a57611ca190613cc2565b5f6116d5565b3d9150611c83565b503461021a57602036600319011261021a576020906040906001600160a01b03611cd7613c45565b168152600783522054604051908152f35b503461021a57602036600319011261021a57600435611d056142e0565b60405163b9209e3360e01b81523360048201527f00000000000000000000000000000000000000000000000000000000000000006001600160a01b031690602081602481855afa9081156106a2578491612062575b50156120535760405163054325fd60e21b8152336004820152602081602481855afa9081156106a2578491612019575b501561200a5760405163ba2eb54160e01b8152336004820152602081602481855afa9081156106a2578491611fd0575b50611fc157602060249160405192838092635a2d572960e11b82523360048301525afa9081156106e1578391611fa2575b5060058110156115b957156115aa576002546001600160a01b03168015611f9357811561118857338352600760205281604084205410611f8457602060049160405192838092630abb87c960e11b82525afa9081156106e1578391611f50575b50611e59611e62918361404d565b60085490614074565b90338352600760205260408320611e7a82825461409f565b9055611e888160085461409f565b60085560025483906001600160a01b0316803b1561052657818091602460405180948193639c8f9f2360e01b83528960048401525af18015610a0557611f3b575b5050611ef682337f00000000000000000000000000000000000000000000000000000000000000006143aa565b60405191825260208201527f96cd817c6329656790ef8fba7675405193677d39619571282f5e21f3a98cd05960403392a260015f5160206144035f395f51905f525580f35b81611f4591613c8c565b610a3f57825f611ec9565b90506020813d602011611f7c575b81611f6b60209383613c8c565b810103126105655751611e59611e4b565b3d9150611f5e565b631e9acf1760e31b8352600483fd5b63a9d363d760e01b8352600483fd5b611fbb915060203d60201161072a5761071b8183613c8c565b5f611deb565b630ce8eac560e01b8352600483fd5b90506020813d602011612002575b81611feb60209383613c8c565b8101031261077b57611ffc90613cc2565b5f611dba565b3d9150611fde565b633de87d9960e01b8352600483fd5b90506020813d60201161204b575b8161203460209383613c8c565b8101031261077b5761204590613cc2565b5f611d8a565b3d9150612027565b63d6fba88560e01b8352600483fd5b90506020813d602011612094575b8161207d60209383613c8c565b8101031261077b5761208e90613cc2565b5f611d5a565b3d9150612070565b503461021a578060031936011261021a5760606120b76140ac565b9060405192835260208301526040820152f35b503461021a578060031936011261021a576002546040516001600160a01b039091168152602090f35b503461021a578060031936011261021a576040517f00000000000000000000000000000000000000000000000000000000000000006001600160a01b03168152602090f35b503461021a57602036600319011261021a576004356121556142ba565b801561159b576020817f96a008f96f1c0ab9fa3d9ddd43cdfc614848c4d054d51f43662ed900e9d094c892600355604051908152a180f35b503461021a57606036600319011261021a57600435602435801515809103610a3f576044356121ba6142e0565b60405163b9209e3360e01b81523360048201527f00000000000000000000000000000000000000000000000000000000000000006001600160a01b031690602081602481855afa9081156105f1578691612474575b50156124655760405163ba2eb54160e01b8152336004820152602081602481855afa9081156105f1578691612427575b5061241857602060249160405192838092635a2d572960e11b82523360048301525afa9081156106655785916123f9575b506005811015611bbf5715611bb05780156123ea57837f00000000000000000000000000000000000000000000000000000000000000006122b383303384614318565b60405163095ea7b360e01b81526001600160a01b037f00000000000000000000000000000000000000000000000000000000000000008116600483018190526024830186905292602091839160449183918891165af180156106e1576123b3575b50803b156105265781809160846040518094819363c1de134360e01b83528a60048401528960248401528860448401523360648401525af18015610a055761239e575b505060405191825260208201527fb2dea862933fda054de6f12d6e0b7affaff4ba9f6aa471c7532461410d6ba46d60403392a360015f5160206144035f395f51905f525580f35b816123a891613c8c565b61077b57835f612357565b6020813d6020116123e2575b816123cc60209383613c8c565b81010312610a3f576123dd90613cc2565b612314565b3d91506123bf565b631f2a200560e01b8452600484fd5b612412915060203d60201161072a5761071b8183613c8c565b5f612270565b630ce8eac560e01b8552600485fd5b90506020813d60201161245d575b8161244260209383613c8c565b810103126124595761245390613cc2565b5f61223f565b8580fd5b3d9150612435565b63d6fba88560e01b8552600485fd5b90506020813d6020116124a6575b8161248f60209383613c8c565b81010312612459576124a090613cc2565b5f61220f565b3d9150612482565b503461021a578060031936011261021a57546040516001600160a01b039091168152602090f35b503461021a578060031936011261021a576020600854604051908152f35b503461021a578060031936011261021a576040517f00000000000000000000000000000000000000000000000000000000000000006001600160a01b03168152602090f35b503461021a578060031936011261021a576125516142e0565b60405163b9209e3360e01b81523360048201527f00000000000000000000000000000000000000000000000000000000000000006001600160a01b031690602081602481855afa9081156106e15783916127cd575b5015610b6d5760405163ba2eb54160e01b8152336004820152602081602481855afa9081156106e1578391612793575b50610adb57602060249160405192838092635a2d572960e11b82523360048301525afa908115610a05578291612774575b506005811015610aa85715610a9957604051636c82bbbf60e11b81523360048201527f00000000000000000000000000000000000000000000000000000000000000006001600160a01b03169190602081602481865afa908115610a05578291612742575b50801561273357604051635d043b2960e11b81526004810182905233602482018190526044820152926020908490606490829086905af191821561052a57916126fe575b6020925060405190828252838201527f92ccf450a286a957af52509bc1c9939d1a6a481783e142e41e2499f0bb66ebc660403392a260015f5160206144035f395f51905f5255604051908152f35b90506020823d60201161272b575b8161271960209383613c8c565b810103126105655760209151906126b0565b3d915061270c565b631e9acf1760e31b8252600482fd5b90506020813d60201161276c575b8161275d60209383613c8c565b8101031261056557515f61266c565b3d9150612750565b61278d915060203d60201161072a5761071b8183613c8c565b5f612607565b90506020813d6020116127c5575b816127ae60209383613c8c565b81010312610a3f576127bf90613cc2565b5f6125d6565b3d91506127a1565b90506020813d6020116127ff575b816127e860209383613c8c565b81010312610a3f576127f990613cc2565b5f6125a6565b3d91506127db565b503461021a578060031936011261021a57600154336001600160a01b039091160361287957600180546001600160a01b0319908116909155815433918116821783556001600160a01b03167f8be0079c531659141344cd1fd0a4f28419497f9722a3daafe3b4186f6b6457e08380a380f35b63118cdaa760e01b815233600452602490fd5b503461021a578060031936011261021a576128a56142ba565b600180546001600160a01b03199081169091558154908116825581906001600160a01b03167f8be0079c531659141344cd1fd0a4f28419497f9722a3daafe3b4186f6b6457e08280a380f35b503461021a57602036600319011261021a5760043561290e6142e0565b60405163b9209e3360e01b81523360048201527f00000000000000000000000000000000000000000000000000000000000000006001600160a01b031690602081602481855afa9081156106a2578491612be4575b50156120535760405163ba2eb54160e01b8152336004820152602081602481855afa9081156106a2578491612baa575b50611fc157602060249160405192838092635a2d572960e11b82523360048301525afa9081156106e1578391612b8b575b5060058110156115b957156115aa576040516370a0823160e01b81523060048201527f0000000000000000000000000000000000000000000000000000000000000000906001600160a01b03821690602081602481855afa908115610665578591612b59575b50847f00000000000000000000000000000000000000000000000000000000000000006001600160a01b0316803b156105265781809160246040518094819363677bd9ff60e01b83528b60048401525af18015610a0557612b44575b50506020602492604051938480926370a0823160e01b82523060048301525afa8015610665578590612b10575b612abd925061409f565b80612afe575b5050337f1a31e733a172afcf46074b3106c17f0c298e226442682a03c1e99ce256139ec28380a360015f5160206144035f395f51905f525580f35b612b099133906143aa565b5f80612ac3565b506020823d602011612b3c575b81612b2a60209383613c8c565b8101031261056557612abd9151612ab3565b3d9150612b1d565b81612b4e91613c8c565b61121a57845f612a86565b90506020813d602011612b83575b81612b7460209383613c8c565b8101031261056557515f612a2a565b3d9150612b67565b612ba4915060203d60201161072a5761071b8183613c8c565b5f6129c4565b90506020813d602011612bdc575b81612bc560209383613c8c565b8101031261077b57612bd690613cc2565b5f612993565b3d9150612bb8565b90506020813d602011612c16575b81612bff60209383613c8c565b8101031261077b57612c1090613cc2565b5f612963565b3d9150612bf2565b503461021a57602036600319011261021a57600435612c3b6142e0565b60405163b9209e3360e01b81523360048201527f00000000000000000000000000000000000000000000000000000000000000006001600160a01b031690602081602481855afa9081156106a2578491612e0e575b50156120535760405163ba2eb54160e01b8152336004820152602081602481855afa9081156106a2578491612dd4575b50611fc157602060249160405192838092635a2d572960e11b82523360048301525afa9081156106e1578391612db5575b5060058110156115b957156115aa57817f00000000000000000000000000000000000000000000000000000000000000006001600160a01b0316803b156105265760405163cec03ce360e01b8152600481018490523360248201529082908290604490829084905af18015610a0557612da0575b5050337f358fe4192934d3bf28ae181feda1f4bd08ca67f5e2fad55582cce5eb67304ae98380a360015f5160206144035f395f51905f525580f35b81612daa91613c8c565b61052657815f612d65565b612dce915060203d60201161072a5761071b8183613c8c565b5f612cf1565b90506020813d602011612e06575b81612def60209383613c8c565b8101031261077b57612e0090613cc2565b5f612cc0565b3d9150612de2565b90506020813d602011612e40575b81612e2960209383613c8c565b8101031261077b57612e3a90613cc2565b5f612c90565b3d9150612e1c565b503461021a57602036600319011261021a57612e626142ba565b60043560045580f35b503461056557602036600319011261056557600435612e886142e0565b60405163b9209e3360e01b81523360048201527f00000000000000000000000000000000000000000000000000000000000000006001600160a01b031690602081602481855afa908115613117575f916132ab575b501561329c5760405163054325fd60e21b8152336004820152602081602481855afa908115613117575f91613262575b50156132535760405163ba2eb54160e01b8152336004820152602081602481855afa908115613117575f91613219575b5061320a57602060249160405192838092635a2d572960e11b82523360048301525afa908115613117575f916131eb575b5060058110156131d757156131c8576002546001600160a01b031680156131b95781156131aa57602060049160405192838092630abb87c960e11b82525afa908115613117575f91613178575b506008549081158015613170575b15613159575050805b335f52600760205260405f20612fe9828254614092565b9055612ff781600854614092565b6008556130676020837f000000000000000000000000000000000000000000000000000000000000000061302d82303384614318565b60025460405163095ea7b360e01b81526001600160a01b0390911660048201526024810192909252909283919082905f9082906044820190565b03926001600160a01b03165af1801561311757613122575b506002546001600160a01b0316803b15610565575f80916024604051809481936328e32c8560e11b83528860048401525af1801561311757613102575b5060405191825260208201527fac1d76749e5447b7b16f5ab61447e1bd502f3bb4807af3b28e620d1700a6ee4560403392a260015f5160206144035f395f51905f525580f35b61310f9193505f90613c8c565b5f915f6130bc565b6040513d5f823e3d90fd5b6020813d602011613151575b8161313b60209383613c8c565b810103126105655761314c90613cc2565b61307f565b3d915061312e565b61316661316b928461404d565b614074565b612fd2565b508015612fc9565b90506020813d6020116131a2575b8161319360209383613c8c565b8101031261056557515f612fbb565b3d9150613186565b631f2a200560e01b5f5260045ffd5b63a9d363d760e01b5f5260045ffd5b6361d5de3d60e01b5f5260045ffd5b634e487b7160e01b5f52602160045260245ffd5b613204915060203d60201161072a5761071b8183613c8c565b5f612f6e565b630ce8eac560e01b5f5260045ffd5b90506020813d60201161324b575b8161323460209383613c8c565b810103126105655761324590613cc2565b5f612f3d565b3d9150613227565b633de87d9960e01b5f5260045ffd5b90506020813d602011613294575b8161327d60209383613c8c565b810103126105655761328e90613cc2565b5f612f0d565b3d9150613270565b63d6fba88560e01b5f5260045ffd5b90506020813d6020116132dd575b816132c660209383613c8c565b81010312610565576132d790613cc2565b5f612edd565b3d91506132b9565b34610565576020366003190112610565576132fe613c45565b604051635a2d572960e11b81526001600160a01b03918216600482018190527f000000000000000000000000000000000000000000000000000000000000000090921691602082602481865afa918215613117575f92613536575b5060058210156131d75781151590816134c8575b60405163054325fd60e21b815260048101829052602081602481885afa908115613117575f9161348e575b50604051916307b76a0160e51b83526004830152602082602481885afa918215613117575f92613457575b50602060249560405196878092630be65bf560e41b82526133e7600483018a613c7f565b5afa928315613117575f93613422575b60a095506134086040518096613c7f565b151560208501521515604084015260608301526080820152f35b92506020853d60201161344f575b8161343d60209383613c8c565b810103126105655760a09451926133f7565b3d9150613430565b9491506020853d602011613486575b8161347360209383613c8c565b81010312610565579351909360206133c3565b3d9150613466565b90506020813d6020116134c0575b816134a960209383613c8c565b81010312610565576134ba90613cc2565b85613398565b3d915061349c565b905060405163ba2eb54160e01b8152816004820152602081602481875afa908115613117575f916134fc575b50159061336d565b90506020813d60201161352e575b8161351760209383613c8c565b810103126105655761352890613cc2565b846134f4565b3d915061350a565b61355091925060203d60201161072a5761071b8183613c8c565b9083613359565b34610565576020366003190112610565576001600160a01b03613578613c45565b165f526006602052602060405f2054604051908152f35b34610565575f366003190112610565576020600354604051908152f35b34610565576040366003190112610565576135fe60606135ca613c45565b604051631cd09ae360e31b81526024803560048301526001600160a01b039092169181019190915291829081906044820190565b03817f00000000000000000000000000000000000000000000000000000000000000006001600160a01b03165afa8015613117575f905f5f91613654575b60609350604051928352602083015215156040820152f35b5050506060813d606011613695575b8161367060609383613c8c565b8101031261056557806060915161368e604060208401519301613cc2565b909161363c565b3d9150613663565b34610565576020366003190112610565576004356136b96142e0565b60405163b9209e3360e01b81523360048201527f00000000000000000000000000000000000000000000000000000000000000006001600160a01b031690602081602481855afa908115613117575f9161393c575b501561329c5760405163ba2eb54160e01b8152336004820152602081602481855afa908115613117575f91613902575b5061320a57602060249160405192838092635a2d572960e11b82523360048301525afa908115613117575f916138e3575b5060058110156131d757156131c85780156131aa5760405163ce96cb7760e01b81523360048201527f00000000000000000000000000000000000000000000000000000000000000006001600160a01b03169190602081602481865afa908115613117575f916138b1575b5081116138a257604051632d182be560e21b8152600481018290523360248201819052604482015291602090839060649082905f905af1908115613117575f9161386d575b6020925060405190815281838201527f92ccf450a286a957af52509bc1c9939d1a6a481783e142e41e2499f0bb66ebc660403392a260015f5160206144035f395f51905f5255604051908152f35b90506020823d60201161389a575b8161388860209383613c8c565b8101031261056557602091519061381f565b3d915061387b565b631e9acf1760e31b5f5260045ffd5b90506020813d6020116138db575b816138cc60209383613c8c565b810103126105655751836137da565b3d91506138bf565b6138fc915060203d60201161072a5761071b8183613c8c565b8261376f565b90506020813d602011613934575b8161391d60209383613c8c565b810103126105655761392e90613cc2565b8361373e565b3d9150613910565b90506020813d60201161396e575b8161395760209383613c8c565b810103126105655761396890613cc2565b8361370e565b3d915061394a565b346105655760203660031901126105655761398f613c45565b604051631613ba8560e11b81526001600160a01b039182166004820152905f90829060249082907f0000000000000000000000000000000000000000000000000000000000000000165afa8015613117575f5f915f5f5f905f925f94613a29575b6104d6959697506040519788978852602088015260408701526060860152608085015260a084015260e060c084015260e0830190613c5b565b505050505050503d805f833e613a3f8183613c8c565b81019060e08183031261056557805191602082015191604081015193606082015191608081015160a08201519160c08101519567ffffffffffffffff8711610565576104d696613a8f9201613fdf565b9295969390919293879695506139f0565b34610565575f366003190112610565576040517f00000000000000000000000000000000000000000000000000000000000000006001600160a01b03168152602090f35b34610565575f366003190112610565576020600454604051908152f35b346105655760203660031901126105655760e0613b24613b1f613c45565b613d45565b9460ff604095929594939451971687526020870152604086015260608501526080840152151560a083015260c0820152f35b3461056557602036600319011261056557613b6f613c45565b613b776142ba565b6001600160a01b03168015613bbe57600280546001600160a01b031916821790557f59fca27788c53a4115a5dd9246887486db0ec049da41b82c02d107dd477d1e8e5f80a2005b63d92e233d60e01b5f5260045ffd5b34610565575f366003190112610565576040517f00000000000000000000000000000000000000000000000000000000000000006001600160a01b03168152602090f35b34610565576020366003190112610565576020906001600160a01b03613c35613c45565b165f526005825260405f20548152f35b600435906001600160a01b038216820361056557565b805180835260209291819084018484015e5f828201840152601f01601f1916010190565b9060058210156131d75752565b90601f8019910116810190811067ffffffffffffffff821117613cae57604052565b634e487b7160e01b5f52604160045260245ffd5b5190811515820361056557565b519060ff8216820361056557565b908160a091031261056557613cf181613ccf565b916020820151916040810151916080606083015192015190565b908160e091031261056557805191602082015191604081015191606082015191608081015191613d4260c060a08401519301613ccf565b90565b6002546001600160a01b031691908215613fcd5760405163054325fd60e21b81526001600160a01b03918216600482018190527f00000000000000000000000000000000000000000000000000000000000000009092169190602081602481865afa908115613117575f91613f93575b5015613f8057604051630de1ca7760e11b81526004810182905260a081602481885afa918215613117575f945f945f945f945f91613f4a575b5060e06024919596979899604051928380926373b4086b851b82528860048301525afa9081156131175760019160ff915f91613f24575b50604051637a221ecd60e11b81526004810187905292911614156020826024817f00000000000000000000000000000000000000000000000000000000000000006001600160a01b03165afa8015613117575f90613ef1575b60209250600454111581613ee9575b50936024604051809481936307b76a0160e51b835260048301525afa908115613117575f91613eba575090565b90506020813d602011613ee1575b81613ed560209383613c8c565b81010312610565575190565b3d9150613ec8565b90505f613e8d565b506020823d602011613f1c575b81613f0b60209383613c8c565b810103126105655760209151613e7e565b3d9150613efe565b613f3d915060e03d60e011611b5957611b448183613c8c565b955050505050505f613e25565b919750506024955060e09450613f7091935060a03d60a011611abb57611aa58183613c8c565b9398929750909590949290613dee565b505f925082918291508190819081908190565b90506020813d602011613fc5575b81613fae60209383613c8c565b8101031261056557613fbf90613cc2565b5f613db5565b3d9150613fa1565b505f9150819081908190819081908190565b81601f820112156105655780519067ffffffffffffffff8211613cae5760405192614014601f8401601f191660200185613c8c565b8284526020838301011161056557815f9260208093018386015e8301015290565b90816020910312610565575160058110156105655790565b8181029291811591840414171561406057565b634e487b7160e01b5f52601160045260245ffd5b811561407e570490565b634e487b7160e01b5f52601260045260245ffd5b9190820180921161406057565b9190820391821161406057565b6002546001600160a01b03169081156141a057604051630abb87c960e11b815290602082600481865afa918215613117575f9261416c575b506004602083946040519283809263b1290b2960e01b82525afa908115613117575f9161413a575b50918290801561413457612710820291808304612710149015171561406057613d4291614074565b50505f90565b90506020813d602011614164575b8161415560209383613c8c565b8101031261056557515f61410c565b3d9150614148565b9091506020813d602011614198575b8161418860209383613c8c565b810103126105655751905f6140e4565b3d915061417b565b5f915081908190565b9190826040910312610565576020825192015190565b6002546001600160a01b03169081156142a4576040516373b4086b60e01b81526001600160a01b03909116600482018190529260e082602481865afa928315613117575f935f935f935f935f935f935f9161426b575b5060409093949596979899602482518094819363e8a771cd60e01b835260048301525afa8015613117575f915f9161424c57509091565b9050614267915060403d604011610a8357610a748183613c8c565b9091565b945050945094505060409450614290915060e03d60e011611b5957611b448183613c8c565b939792969195989094979695949390614215565b50505f905f905f905f905f905f905f905f905f90565b5f546001600160a01b031633036142cd57565b63118cdaa760e01b5f523360045260245ffd5b60025f5160206144035f395f51905f5254146143095760025f5160206144035f395f51905f5255565b633ee5aeb560e01b5f5260045ffd5b6040516323b872dd60e01b5f9081526001600160a01b039384166004529290931660245260449390935260209060648180865af19060015f5114821615614389575b6040525f606052156143695750565b635274afe760e01b5f9081526001600160a01b0391909116600452602490fd5b9060018115166143a157823b15153d1516169061435a565b503d5f823e3d90fd5b916040519163a9059cbb60e01b5f5260018060a01b031660045260245260205f60448180865af19060015f51148216156143ea575b604052156143695750565b9060018115166143a157823b15153d151616906143df56fe9b779b17422d0df92223018b32b4d1fa46e071723d6817e2486d003becc55f00a2646970667358221220d5ae3e2595d512444b41637496f629394730bd6ca0e47d6caa76d73017869ff064736f6c63430008220033",
    "sourcePath": "/home/raigoza/Desktop/qie-hackathon/src/QIENeobank.sol",
    "compiler": {
        "name": "solc",
        "version": "0.8.34+commit.80d5c536"
    },
    "functionHashes": {
        "acceptOwnership()": "79ba5097",
        "addLiquidity(uint256)": "51c6590a",
        "bet(uint256,bool,uint256)": "8decaec0",
        "claimRefund(uint256)": "5b7baf64",
        "claimWinnings(uint256)": "677bd9ff",
        "deposit(uint256)": "b6b55f25",
        "getAccount(address)": "fbcbc0f1",
        "getBettingStats(address)": "ef6e1b42",
        "getIdentityAccountInfo(address)": "4eef0fb1",
        "getLendingStats()": "96101471",
        "getLoanDetails(address)": "e8a7da8e",
        "getLoanTerms(address)": "1bc394ee",
        "getMarket(uint256)": "eb44fdd3",
        "getPosition(address,uint256)": "3adbb5af",
        "getScoreBreakdown(address)": "2c27750a",
        "identity()": "2c159a1a",
        "lending()": "95e97eee",
        "liquidityShares(address)": "9db4aa04",
        "minDeposit()": "41b3d185",
        "minDepositsForLoan()": "1d291ad8",
        "owner()": "8da5cb5b",
        "pendingOwner()": "e30c3978",
        "pool()": "16f0115b",
        "qusdc()": "94d4e4f8",
        "removeLiquidity(uint256)": "9c8f9f23",
        "renounceOwnership()": "715018a6",
        "repayLoan()": "f966ade7",
        "requestLoan(uint256,uint256)": "aa452fa6",
        "scorer()": "85c758f7",
        "send(address,uint256)": "d0679d34",
        "setLending(address)": "180fde07",
        "setMinDeposit(uint256)": "8fcc9cfb",
        "setMinDepositsForLoan(uint256)": "52dd1484",
        "totalLiquidityShares()": "87cd5b20",
        "totalReceived(address)": "4df9cfb3",
        "totalSent(address)": "08f81a93",
        "transferOwnership(address)": "f2fde38b",
        "vault()": "fbfa77cf",
        "withdraw(uint256)": "2e1a7d4d",
        "withdrawAll()": "853828b6"
    },
    "gasEstimates": {
        "creation": {
            "codeDepositCost": "3499200",
            "executionCost": "infinite",
            "totalCost": "infinite"
        },
        "external": {
            "acceptOwnership()": "52648",
            "addLiquidity(uint256)": "infinite",
            "bet(uint256,bool,uint256)": "infinite",
            "claimRefund(uint256)": "infinite",
            "claimWinnings(uint256)": "infinite",
            "deposit(uint256)": "infinite",
            "getAccount(address)": "infinite",
            "getBettingStats(address)": "infinite",
            "getIdentityAccountInfo(address)": "infinite",
            "getLendingStats()": "infinite",
            "getLoanDetails(address)": "infinite",
            "getLoanTerms(address)": "infinite",
            "getMarket(uint256)": "infinite",
            "getPosition(address,uint256)": "infinite",
            "getScoreBreakdown(address)": "infinite",
            "identity()": "infinite",
            "lending()": "2838",
            "liquidityShares(address)": "3034",
            "minDeposit()": "2459",
            "minDepositsForLoan()": "2349",
            "owner()": "2747",
            "pendingOwner()": "2992",
            "pool()": "infinite",
            "qusdc()": "infinite",
            "removeLiquidity(uint256)": "infinite",
            "renounceOwnership()": "52641",
            "repayLoan()": "infinite",
            "requestLoan(uint256,uint256)": "infinite",
            "scorer()": "infinite",
            "send(address,uint256)": "infinite",
            "setLending(address)": "27820",
            "setMinDeposit(uint256)": "25975",
            "setMinDepositsForLoan(uint256)": "24697",
            "totalLiquidityShares()": "2704",
            "totalReceived(address)": "2631",
            "totalSent(address)": "2403",
            "transferOwnership(address)": "31054",
            "vault()": "infinite",
            "withdraw(uint256)": "infinite",
            "withdrawAll()": "infinite"
        }
    }
}