{
    "contractName": "QIEVault",
    "abi": [
        {
            "inputs": [
                {
                    "internalType": "contract IERC20",
                    "name": "_qusdc",
                    "type": "address"
                }
            ],
            "stateMutability": "nonpayable",
            "type": "constructor"
        },
        {
            "inputs": [],
            "name": "AllocationTooHigh",
            "type": "error"
        },
        {
            "inputs": [
                {
                    "internalType": "address",
                    "name": "spender",
                    "type": "address"
                },
                {
                    "internalType": "uint256",
                    "name": "allowance",
                    "type": "uint256"
                },
                {
                    "internalType": "uint256",
                    "name": "needed",
                    "type": "uint256"
                }
            ],
            "name": "ERC20InsufficientAllowance",
            "type": "error"
        },
        {
            "inputs": [
                {
                    "internalType": "address",
                    "name": "sender",
                    "type": "address"
                },
                {
                    "internalType": "uint256",
                    "name": "balance",
                    "type": "uint256"
                },
                {
                    "internalType": "uint256",
                    "name": "needed",
                    "type": "uint256"
                }
            ],
            "name": "ERC20InsufficientBalance",
            "type": "error"
        },
        {
            "inputs": [
                {
                    "internalType": "address",
                    "name": "approver",
                    "type": "address"
                }
            ],
            "name": "ERC20InvalidApprover",
            "type": "error"
        },
        {
            "inputs": [
                {
                    "internalType": "address",
                    "name": "receiver",
                    "type": "address"
                }
            ],
            "name": "ERC20InvalidReceiver",
            "type": "error"
        },
        {
            "inputs": [
                {
                    "internalType": "address",
                    "name": "sender",
                    "type": "address"
                }
            ],
            "name": "ERC20InvalidSender",
            "type": "error"
        },
        {
            "inputs": [
                {
                    "internalType": "address",
                    "name": "spender",
                    "type": "address"
                }
            ],
            "name": "ERC20InvalidSpender",
            "type": "error"
        },
        {
            "inputs": [
                {
                    "internalType": "address",
                    "name": "receiver",
                    "type": "address"
                },
                {
                    "internalType": "uint256",
                    "name": "assets",
                    "type": "uint256"
                },
                {
                    "internalType": "uint256",
                    "name": "max",
                    "type": "uint256"
                }
            ],
            "name": "ERC4626ExceededMaxDeposit",
            "type": "error"
        },
        {
            "inputs": [
                {
                    "internalType": "address",
                    "name": "receiver",
                    "type": "address"
                },
                {
                    "internalType": "uint256",
                    "name": "shares",
                    "type": "uint256"
                },
                {
                    "internalType": "uint256",
                    "name": "max",
                    "type": "uint256"
                }
            ],
            "name": "ERC4626ExceededMaxMint",
            "type": "error"
        },
        {
            "inputs": [
                {
                    "internalType": "address",
                    "name": "owner",
                    "type": "address"
                },
                {
                    "internalType": "uint256",
                    "name": "shares",
                    "type": "uint256"
                },
                {
                    "internalType": "uint256",
                    "name": "max",
                    "type": "uint256"
                }
            ],
            "name": "ERC4626ExceededMaxRedeem",
            "type": "error"
        },
        {
            "inputs": [
                {
                    "internalType": "address",
                    "name": "owner",
                    "type": "address"
                },
                {
                    "internalType": "uint256",
                    "name": "assets",
                    "type": "uint256"
                },
                {
                    "internalType": "uint256",
                    "name": "max",
                    "type": "uint256"
                }
            ],
            "name": "ERC4626ExceededMaxWithdraw",
            "type": "error"
        },
        {
            "inputs": [
                {
                    "internalType": "uint256",
                    "name": "got",
                    "type": "uint256"
                },
                {
                    "internalType": "uint256",
                    "name": "minimum",
                    "type": "uint256"
                }
            ],
            "name": "MinSharesNotMet",
            "type": "error"
        },
        {
            "inputs": [],
            "name": "NotPredictionPool",
            "type": "error"
        },
        {
            "inputs": [
                {
                    "internalType": "address",
                    "name": "owner",
                    "type": "address"
                }
            ],
            "name": "OwnableInvalidOwner",
            "type": "error"
        },
        {
            "inputs": [
                {
                    "internalType": "address",
                    "name": "account",
                    "type": "address"
                }
            ],
            "name": "OwnableUnauthorizedAccount",
            "type": "error"
        },
        {
            "inputs": [],
            "name": "PoolNotSet",
            "type": "error"
        },
        {
            "inputs": [],
            "name": "ReentrancyGuardReentrantCall",
            "type": "error"
        },
        {
            "inputs": [
                {
                    "internalType": "address",
                    "name": "token",
                    "type": "address"
                }
            ],
            "name": "SafeERC20FailedOperation",
            "type": "error"
        },
        {
            "inputs": [],
            "name": "ZeroAddress",
            "type": "error"
        },
        {
            "inputs": [],
            "name": "ZeroAmount",
            "type": "error"
        },
        {
            "anonymous": false,
            "inputs": [
                {
                    "indexed": true,
                    "internalType": "address",
                    "name": "owner",
                    "type": "address"
                },
                {
                    "indexed": true,
                    "internalType": "address",
                    "name": "spender",
                    "type": "address"
                },
                {
                    "indexed": false,
                    "internalType": "uint256",
                    "name": "value",
                    "type": "uint256"
                }
            ],
            "name": "Approval",
            "type": "event"
        },
        {
            "anonymous": false,
            "inputs": [
                {
                    "indexed": true,
                    "internalType": "address",
                    "name": "sender",
                    "type": "address"
                },
                {
                    "indexed": true,
                    "internalType": "address",
                    "name": "owner",
                    "type": "address"
                },
                {
                    "indexed": false,
                    "internalType": "uint256",
                    "name": "assets",
                    "type": "uint256"
                },
                {
                    "indexed": false,
                    "internalType": "uint256",
                    "name": "shares",
                    "type": "uint256"
                }
            ],
            "name": "Deposit",
            "type": "event"
        },
        {
            "anonymous": false,
            "inputs": [
                {
                    "indexed": true,
                    "internalType": "address",
                    "name": "previousOwner",
                    "type": "address"
                },
                {
                    "indexed": true,
                    "internalType": "address",
                    "name": "newOwner",
                    "type": "address"
                }
            ],
            "name": "OwnershipTransferStarted",
            "type": "event"
        },
        {
            "anonymous": false,
            "inputs": [
                {
                    "indexed": true,
                    "internalType": "address",
                    "name": "previousOwner",
                    "type": "address"
                },
                {
                    "indexed": true,
                    "internalType": "address",
                    "name": "newOwner",
                    "type": "address"
                }
            ],
            "name": "OwnershipTransferred",
            "type": "event"
        },
        {
            "anonymous": false,
            "inputs": [
                {
                    "indexed": true,
                    "internalType": "address",
                    "name": "pool",
                    "type": "address"
                },
                {
                    "indexed": false,
                    "internalType": "uint256",
                    "name": "amount",
                    "type": "uint256"
                }
            ],
            "name": "PoolAllocationSent",
            "type": "event"
        },
        {
            "anonymous": false,
            "inputs": [
                {
                    "indexed": false,
                    "internalType": "uint256",
                    "name": "newBps",
                    "type": "uint256"
                }
            ],
            "name": "PoolAllocationUpdated",
            "type": "event"
        },
        {
            "anonymous": false,
            "inputs": [
                {
                    "indexed": true,
                    "internalType": "address",
                    "name": "pool",
                    "type": "address"
                }
            ],
            "name": "PredictionPoolSet",
            "type": "event"
        },
        {
            "anonymous": false,
            "inputs": [
                {
                    "indexed": true,
                    "internalType": "address",
                    "name": "from",
                    "type": "address"
                },
                {
                    "indexed": true,
                    "internalType": "address",
                    "name": "to",
                    "type": "address"
                },
                {
                    "indexed": false,
                    "internalType": "uint256",
                    "name": "value",
                    "type": "uint256"
                }
            ],
            "name": "Transfer",
            "type": "event"
        },
        {
            "anonymous": false,
            "inputs": [
                {
                    "indexed": true,
                    "internalType": "address",
                    "name": "sender",
                    "type": "address"
                },
                {
                    "indexed": true,
                    "internalType": "address",
                    "name": "receiver",
                    "type": "address"
                },
                {
                    "indexed": true,
                    "internalType": "address",
                    "name": "owner",
                    "type": "address"
                },
                {
                    "indexed": false,
                    "internalType": "uint256",
                    "name": "assets",
                    "type": "uint256"
                },
                {
                    "indexed": false,
                    "internalType": "uint256",
                    "name": "shares",
                    "type": "uint256"
                }
            ],
            "name": "Withdraw",
            "type": "event"
        },
        {
            "anonymous": false,
            "inputs": [
                {
                    "indexed": false,
                    "internalType": "uint256",
                    "name": "amount",
                    "type": "uint256"
                }
            ],
            "name": "YieldReceived",
            "type": "event"
        },
        {
            "inputs": [],
            "name": "BPS",
            "outputs": [
                {
                    "internalType": "uint256",
                    "name": "",
                    "type": "uint256"
                }
            ],
            "stateMutability": "view",
            "type": "function"
        },
        {
            "inputs": [],
            "name": "MAX_ALLOCATION_BPS",
            "outputs": [
                {
                    "internalType": "uint256",
                    "name": "",
                    "type": "uint256"
                }
            ],
            "stateMutability": "view",
            "type": "function"
        },
        {
            "inputs": [],
            "name": "acceptOwnership",
            "outputs": [],
            "stateMutability": "nonpayable",
            "type": "function"
        },
        {
            "inputs": [
                {
                    "internalType": "address",
                    "name": "owner",
                    "type": "address"
                },
                {
                    "internalType": "address",
                    "name": "spender",
                    "type": "address"
                }
            ],
            "name": "allowance",
            "outputs": [
                {
                    "internalType": "uint256",
                    "name": "",
                    "type": "uint256"
                }
            ],
            "stateMutability": "view",
            "type": "function"
        },
        {
            "inputs": [
                {
                    "internalType": "address",
                    "name": "spender",
                    "type": "address"
                },
                {
                    "internalType": "uint256",
                    "name": "value",
                    "type": "uint256"
                }
            ],
            "name": "approve",
            "outputs": [
                {
                    "internalType": "bool",
                    "name": "",
                    "type": "bool"
                }
            ],
            "stateMutability": "nonpayable",
            "type": "function"
        },
        {
            "inputs": [],
            "name": "asset",
            "outputs": [
                {
                    "internalType": "address",
                    "name": "",
                    "type": "address"
                }
            ],
            "stateMutability": "view",
            "type": "function"
        },
        {
            "inputs": [
                {
                    "internalType": "address",
                    "name": "account",
                    "type": "address"
                }
            ],
            "name": "balanceOf",
            "outputs": [
                {
                    "internalType": "uint256",
                    "name": "",
                    "type": "uint256"
                }
            ],
            "stateMutability": "view",
            "type": "function"
        },
        {
            "inputs": [
                {
                    "internalType": "uint256",
                    "name": "shares",
                    "type": "uint256"
                }
            ],
            "name": "convertToAssets",
            "outputs": [
                {
                    "internalType": "uint256",
                    "name": "",
                    "type": "uint256"
                }
            ],
            "stateMutability": "view",
            "type": "function"
        },
        {
            "inputs": [
                {
                    "internalType": "uint256",
                    "name": "assets",
                    "type": "uint256"
                }
            ],
            "name": "convertToShares",
            "outputs": [
                {
                    "internalType": "uint256",
                    "name": "",
                    "type": "uint256"
                }
            ],
            "stateMutability": "view",
            "type": "function"
        },
        {
            "inputs": [],
            "name": "decimals",
            "outputs": [
                {
                    "internalType": "uint8",
                    "name": "",
                    "type": "uint8"
                }
            ],
            "stateMutability": "view",
            "type": "function"
        },
        {
            "inputs": [
                {
                    "internalType": "uint256",
                    "name": "assets",
                    "type": "uint256"
                },
                {
                    "internalType": "address",
                    "name": "receiver",
                    "type": "address"
                }
            ],
            "name": "deposit",
            "outputs": [
                {
                    "internalType": "uint256",
                    "name": "shares",
                    "type": "uint256"
                }
            ],
            "stateMutability": "nonpayable",
            "type": "function"
        },
        {
            "inputs": [
                {
                    "internalType": "address",
                    "name": "",
                    "type": "address"
                }
            ],
            "name": "depositCount",
            "outputs": [
                {
                    "internalType": "uint256",
                    "name": "",
                    "type": "uint256"
                }
            ],
            "stateMutability": "view",
            "type": "function"
        },
        {
            "inputs": [
                {
                    "internalType": "address",
                    "name": "",
                    "type": "address"
                }
            ],
            "name": "firstDepositAt",
            "outputs": [
                {
                    "internalType": "uint256",
                    "name": "",
                    "type": "uint256"
                }
            ],
            "stateMutability": "view",
            "type": "function"
        },
        {
            "inputs": [
                {
                    "internalType": "address",
                    "name": "",
                    "type": "address"
                }
            ],
            "name": "maxDeposit",
            "outputs": [
                {
                    "internalType": "uint256",
                    "name": "",
                    "type": "uint256"
                }
            ],
            "stateMutability": "view",
            "type": "function"
        },
        {
            "inputs": [
                {
                    "internalType": "address",
                    "name": "",
                    "type": "address"
                }
            ],
            "name": "maxMint",
            "outputs": [
                {
                    "internalType": "uint256",
                    "name": "",
                    "type": "uint256"
                }
            ],
            "stateMutability": "view",
            "type": "function"
        },
        {
            "inputs": [
                {
                    "internalType": "address",
                    "name": "owner",
                    "type": "address"
                }
            ],
            "name": "maxRedeem",
            "outputs": [
                {
                    "internalType": "uint256",
                    "name": "",
                    "type": "uint256"
                }
            ],
            "stateMutability": "view",
            "type": "function"
        },
        {
            "inputs": [
                {
                    "internalType": "address",
                    "name": "owner",
                    "type": "address"
                }
            ],
            "name": "maxWithdraw",
            "outputs": [
                {
                    "internalType": "uint256",
                    "name": "",
                    "type": "uint256"
                }
            ],
            "stateMutability": "view",
            "type": "function"
        },
        {
            "inputs": [
                {
                    "internalType": "uint256",
                    "name": "shares",
                    "type": "uint256"
                },
                {
                    "internalType": "address",
                    "name": "receiver",
                    "type": "address"
                }
            ],
            "name": "mint",
            "outputs": [
                {
                    "internalType": "uint256",
                    "name": "",
                    "type": "uint256"
                }
            ],
            "stateMutability": "nonpayable",
            "type": "function"
        },
        {
            "inputs": [],
            "name": "name",
            "outputs": [
                {
                    "internalType": "string",
                    "name": "",
                    "type": "string"
                }
            ],
            "stateMutability": "view",
            "type": "function"
        },
        {
            "inputs": [],
            "name": "owner",
            "outputs": [
                {
                    "internalType": "address",
                    "name": "",
                    "type": "address"
                }
            ],
            "stateMutability": "view",
            "type": "function"
        },
        {
            "inputs": [],
            "name": "pendingOwner",
            "outputs": [
                {
                    "internalType": "address",
                    "name": "",
                    "type": "address"
                }
            ],
            "stateMutability": "view",
            "type": "function"
        },
        {
            "inputs": [],
            "name": "poolAllocationBps",
            "outputs": [
                {
                    "internalType": "uint256",
                    "name": "",
                    "type": "uint256"
                }
            ],
            "stateMutability": "view",
            "type": "function"
        },
        {
            "inputs": [],
            "name": "predictionPool",
            "outputs": [
                {
                    "internalType": "address",
                    "name": "",
                    "type": "address"
                }
            ],
            "stateMutability": "view",
            "type": "function"
        },
        {
            "inputs": [
                {
                    "internalType": "uint256",
                    "name": "assets",
                    "type": "uint256"
                }
            ],
            "name": "previewDeposit",
            "outputs": [
                {
                    "internalType": "uint256",
                    "name": "",
                    "type": "uint256"
                }
            ],
            "stateMutability": "view",
            "type": "function"
        },
        {
            "inputs": [
                {
                    "internalType": "uint256",
                    "name": "shares",
                    "type": "uint256"
                }
            ],
            "name": "previewMint",
            "outputs": [
                {
                    "internalType": "uint256",
                    "name": "",
                    "type": "uint256"
                }
            ],
            "stateMutability": "view",
            "type": "function"
        },
        {
            "inputs": [
                {
                    "internalType": "uint256",
                    "name": "shares",
                    "type": "uint256"
                }
            ],
            "name": "previewRedeem",
            "outputs": [
                {
                    "internalType": "uint256",
                    "name": "",
                    "type": "uint256"
                }
            ],
            "stateMutability": "view",
            "type": "function"
        },
        {
            "inputs": [
                {
                    "internalType": "uint256",
                    "name": "assets",
                    "type": "uint256"
                }
            ],
            "name": "previewWithdraw",
            "outputs": [
                {
                    "internalType": "uint256",
                    "name": "",
                    "type": "uint256"
                }
            ],
            "stateMutability": "view",
            "type": "function"
        },
        {
            "inputs": [
                {
                    "internalType": "uint256",
                    "name": "amount",
                    "type": "uint256"
                }
            ],
            "name": "receiveYield",
            "outputs": [],
            "stateMutability": "nonpayable",
            "type": "function"
        },
        {
            "inputs": [
                {
                    "internalType": "uint256",
                    "name": "shares",
                    "type": "uint256"
                },
                {
                    "internalType": "address",
                    "name": "receiver",
                    "type": "address"
                },
                {
                    "internalType": "address",
                    "name": "owner_",
                    "type": "address"
                }
            ],
            "name": "redeem",
            "outputs": [
                {
                    "internalType": "uint256",
                    "name": "assets",
                    "type": "uint256"
                }
            ],
            "stateMutability": "nonpayable",
            "type": "function"
        },
        {
            "inputs": [],
            "name": "renounceOwnership",
            "outputs": [],
            "stateMutability": "nonpayable",
            "type": "function"
        },
        {
            "inputs": [
                {
                    "internalType": "uint256",
                    "name": "_bps",
                    "type": "uint256"
                }
            ],
            "name": "setPoolAllocation",
            "outputs": [],
            "stateMutability": "nonpayable",
            "type": "function"
        },
        {
            "inputs": [
                {
                    "internalType": "address",
                    "name": "_pool",
                    "type": "address"
                }
            ],
            "name": "setPredictionPool",
            "outputs": [],
            "stateMutability": "nonpayable",
            "type": "function"
        },
        {
            "inputs": [],
            "name": "symbol",
            "outputs": [
                {
                    "internalType": "string",
                    "name": "",
                    "type": "string"
                }
            ],
            "stateMutability": "view",
            "type": "function"
        },
        {
            "inputs": [],
            "name": "totalAssets",
            "outputs": [
                {
                    "internalType": "uint256",
                    "name": "",
                    "type": "uint256"
                }
            ],
            "stateMutability": "view",
            "type": "function"
        },
        {
            "inputs": [
                {
                    "internalType": "address",
                    "name": "",
                    "type": "address"
                }
            ],
            "name": "totalDeposited",
            "outputs": [
                {
                    "internalType": "uint256",
                    "name": "",
                    "type": "uint256"
                }
            ],
            "stateMutability": "view",
            "type": "function"
        },
        {
            "inputs": [],
            "name": "totalSupply",
            "outputs": [
                {
                    "internalType": "uint256",
                    "name": "",
                    "type": "uint256"
                }
            ],
            "stateMutability": "view",
            "type": "function"
        },
        {
            "inputs": [
                {
                    "internalType": "address",
                    "name": "to",
                    "type": "address"
                },
                {
                    "internalType": "uint256",
                    "name": "value",
                    "type": "uint256"
                }
            ],
            "name": "transfer",
            "outputs": [
                {
                    "internalType": "bool",
                    "name": "",
                    "type": "bool"
                }
            ],
            "stateMutability": "nonpayable",
            "type": "function"
        },
        {
            "inputs": [
                {
                    "internalType": "address",
                    "name": "from",
                    "type": "address"
                },
                {
                    "internalType": "address",
                    "name": "to",
                    "type": "address"
                },
                {
                    "internalType": "uint256",
                    "name": "value",
                    "type": "uint256"
                }
            ],
            "name": "transferFrom",
            "outputs": [
                {
                    "internalType": "bool",
                    "name": "",
                    "type": "bool"
                }
            ],
            "stateMutability": "nonpayable",
            "type": "function"
        },
        {
            "inputs": [
                {
                    "internalType": "address",
                    "name": "newOwner",
                    "type": "address"
                }
            ],
            "name": "transferOwnership",
            "outputs": [],
            "stateMutability": "nonpayable",
            "type": "function"
        },
        {
            "inputs": [
                {
                    "internalType": "uint256",
                    "name": "assets",
                    "type": "uint256"
                },
                {
                    "internalType": "address",
                    "name": "receiver",
                    "type": "address"
                },
                {
                    "internalType": "address",
                    "name": "owner_",
                    "type": "address"
                }
            ],
            "name": "withdraw",
            "outputs": [
                {
                    "internalType": "uint256",
                    "name": "shares",
                    "type": "uint256"
                }
            ],
            "stateMutability": "nonpayable",
            "type": "function"
        }
    ],
    "bytecode": "60c0806040523461048557602081611a59803803809161001f8285610489565b83398101031261048557516001600160a01b03811690818103610485576040519161004b604084610489565b6012835271514945204e656f62616e6b2053686172657360701b602084015260405191610079604084610489565b6004835263714e454f60e01b602084015283516001600160401b03811161038b57600354600181811c9116801561047b575b602082101461036d57601f811161040d575b50602094601f82116001146103aa579481929394955f9261039f575b50508160011b915f199060031b1c1916176003555b82516001600160401b03811161038b57600454600181811c91168015610381575b602082101461036d57601f81116102ff575b506020601f821160011461029c57819293945f92610291575b50508160011b915f199060031b1c1916176004555b60405f8151936020850163313ce56760e01b815260048652610172602487610489565b8551915afa5f51908360405280610286575b8061027b575b156102735760ff1660015b1561026b575b60a052608052331561025857600680546001600160a01b0319908116909155600580543392811683179091556001600160a01b03167f8be0079c531659141344cd1fd0a4f28419497f9722a3daafe3b4186f6b6457e05f80a360017f9b779b17422d0df92223018b32b4d1fa46e071723d6817e2486d003becc55f00556107d06008556115ac90816104ad823960805181818161091201528181610aac01528181610ea0015281816112350152611449015260a05181610b0e0152f35b631e4fbdf760e01b5f525f60045260245ffd5b50601261019b565b505f80610195565b5060ff81111561018a565b5060203d1015610184565b015190505f8061013a565b601f1982169060045f52805f20915f5b8181106102e7575095836001959697106102cf575b505050811b0160045561014f565b01515f1960f88460031b161c191690555f80806102c1565b9192602060018192868b0151815501940192016102ac565b818111156101215760045f52601f820160051c7f8a35acfbc15ff81a39ae7d344fd709f28e8600b4aa8c65c6b64bfe7fe36bd19b60208410610365575b81601f9101920160051c03905f5b828110610358575050610121565b5f8282015560010161034a565b5f915061033c565b634e487b7160e01b5f52602260045260245ffd5b90607f169061010f565b634e487b7160e01b5f52604160045260245ffd5b015190505f806100d9565b601f1982169560035f52805f20915f5b8881106103f5575083600195969798106103dd575b505050811b016003556100ee565b01515f1960f88460031b161c191690555f80806103cf565b919260206001819286850151815501940192016103ba565b818111156100bd5760035f52601f820160051c7fc2575a0e9e593c00f959f8c92f12db2869c3395a3b0502d05e2516446f71f85b60208410610473575b81601f9101920160051c03905f5b8281106104665750506100bd565b5f82820155600101610458565b5f915061044a565b90607f16906100ab565b5f80fd5b601f909101601f19168101906001600160401b0382119082101761038b5760405256fe60806040526004361015610011575f80fd5b5f3560e01c806301e1d11414610d3757806306fdde0314610c7c57806307a2d13a14610a92578063095ea7b314610bd45780630a28a47714610bb657806318160ddd14610b9957806323b872dd14610b61578063249d39e914610b45578063313ce56714610af857806332930b3214610adb57806338d52e0f14610a97578063402d267d1461035c5780634cdad50614610a925780635305548114610a5a5780636a786c53146109f25780636d3d3888146109ba5780636e553f651461081e57806370a08231146102f6578063715018a6146107b957806379ba5097146107335780637d6765cf146106ce5780638da5cb5b146106a657806394bf804d1461067357806395d89b411461056f578063a8cb4d221461050f578063a9059cbb146104de578063b308a8e8146104c2578063b3d7f6b9146104a4578063b460af9414610423578063ba08765214610389578063c4da264514610361578063c63d75b61461035c578063c6e6f59214610279578063ce96cb7714610336578063d905777e146102f6578063dd62ed3e146102a6578063e30c39781461027e578063ef8b30f714610279578063f2fde38b1461020d5763f4443d9a146101d1575f80fd5b34610209576020366003190112610209576001600160a01b036101f2610d99565b165f52600c602052602060405f2054604051908152f35b5f80fd5b3461020957602036600319011261020957610226610d99565b61022e61113b565b600680546001600160a01b0319166001600160a01b039283169081179091556005549091167f38d16b8cac22d99fc7c124b9cd0de2d3fa1faef420bfe791d8c362d765e227005f80a3005b610e24565b34610209575f366003190112610209576006546040516001600160a01b039091168152602090f35b34610209576040366003190112610209576102bf610d99565b6102c7610daf565b6001600160a01b039182165f908152600160209081526040808320949093168252928352819020549051908152f35b3461020957602036600319011261020957602061032e610314610d99565b6001600160a01b03165f9081526020819052604090205490565b604051908152f35b3461020957602036600319011261020957602061032e610357610314610d99565b610f56565b610dc5565b34610209575f366003190112610209576007546040516001600160a01b039091168152602090f35b346102095761039736610dea565b91906103a161114f565b8115610414576001600160a01b0383165f81815260208190526040902054908184116103fa576020856103e186866103d882610f56565b938491336113a4565b60015f5160206115575f395f51905f5255604051908152f35b8390632e52afbb60e21b5f5260045260245260445260645ffd5b631f2a200560e01b5f5260045ffd5b346102095761043136610dea565b909161043b61114f565b8015610414576001600160a01b0382165f9081526020819052604090205461046290610f56565b80821161048357506020928161047a6103e193610f7e565b938492336113a4565b91633fa733bb60e21b5f5260018060a01b031660045260245260445260645ffd5b3461020957602036600319011261020957602061032e600435610f24565b34610209575f3660031901126102095760206040516113888152f35b34610209576040366003190112610209576105046104fa610d99565b602435903361107e565b602060405160018152f35b34610209576020366003190112610209576007546001600160a01b03163303610560577fd0e841f234010ad7f57b7c09faffb2245cd240429c6e8fa3cd934a0a8bf58eb060206040516004358152a1005b6381711c5f60e01b5f5260045ffd5b34610209575f366003190112610209576040515f6004548060011c90600181168015610669575b6020831081146106555782855290811561063157506001146105d3575b6105cf836105c381850382610e42565b60405191829182610d51565b0390f35b91905060045f527f8a35acfbc15ff81a39ae7d344fd709f28e8600b4aa8c65c6b64bfe7fe36bd19b915f905b808210610617575090915081016020016105c36105b3565b9192600181602092548385880101520191019092916105ff565b60ff191660208086019190915291151560051b840190910191506105c390506105b3565b634e487b7160e01b5f52602260045260245ffd5b91607f1691610596565b3461020957604036600319011261020957602060043561032e610694610daf565b9161069e81610f24565b809333611208565b34610209575f366003190112610209576005546040516001600160a01b039091168152602090f35b34610209576020366003190112610209576004356106ea61113b565b6113888111610724576020817f21dff159bf34ab8509a9a3c6f4f11d7d64fa558176ab44bdcdbfd8315c53daa992600855604051908152a1005b6356e70fbf60e11b5f5260045ffd5b34610209575f36600319011261020957600654336001600160a01b03909116036107a657600680546001600160a01b0319908116909155600580543392811683179091556001600160a01b03167f8be0079c531659141344cd1fd0a4f28419497f9722a3daafe3b4186f6b6457e05f80a3005b63118cdaa760e01b5f523360045260245ffd5b34610209575f366003190112610209576107d161113b565b600680546001600160a01b03199081169091556005805491821690555f906001600160a01b03167f8be0079c531659141344cd1fd0a4f28419497f9722a3daafe3b4186f6b6457e08280a3005b346102095760403660031901126102095760043561083a610daf565b61084261114f565b8115610414576001600160a01b03811680156109ab576007546001600160a01b03161561099c57610880839261087784610fad565b93849133611208565b805f52600a60205260405f205415610989575b805f52600b60205260405f206108aa848254610e78565b90555f52600c60205260405f2080545f198114610975576001019055600854808302928304036109755761271060209204806108fb575b5060015f5160206115575f395f51905f5255604051908152f35b6007546109379082906001600160a01b03908116907f000000000000000000000000000000000000000000000000000000000000000016611187565b6007546040519182526001600160a01b0316907fab5a18b4415312bba50bf182619a0cd00d23cfac073e6ecc7c486e669c06cca6908490a2826108e1565b634e487b7160e01b5f52601160045260245ffd5b805f52600a6020524260405f2055610893565b633c67586360e01b5f5260045ffd5b63d92e233d60e01b5f5260045ffd5b34610209576020366003190112610209576001600160a01b036109db610d99565b165f52600a602052602060405f2054604051908152f35b3461020957602036600319011261020957610a0b610d99565b610a1361113b565b6001600160a01b031680156109ab57600780546001600160a01b031916821790557ff31b827999e81fa55bafca171626ddff3fb462a8f0f76808bb120ffe824487795f80a2005b34610209576020366003190112610209576001600160a01b03610a7b610d99565b165f52600b602052602060405f2054604051908152f35b610d7b565b34610209575f366003190112610209576040517f00000000000000000000000000000000000000000000000000000000000000006001600160a01b03168152602090f35b34610209575f366003190112610209576020600854604051908152f35b34610209575f36600319011261020957600360ff7f0000000000000000000000000000000000000000000000000000000000000000160160ff81116109755760209060ff60405191168152f35b34610209575f3660031901126102095760206040516127108152f35b3461020957606036600319011261020957610504610b7d610d99565b610b85610daf565b60443591610b94833383610fdb565b61107e565b34610209575f366003190112610209576020600254604051908152f35b3461020957602036600319011261020957602061032e600435610f7e565b3461020957604036600319011261020957610bed610d99565b602435903315610c69576001600160a01b0316908115610c5657335f52600160205260405f20825f526020528060405f20556040519081527f8c5be1e5ebec7d5bd14f71427d1e84f3dd0314c0f7b2291e5b200ac8c7c3b92560203392a3602060405160018152f35b634a1406b160e11b5f525f60045260245ffd5b63e602df0560e01b5f525f60045260245ffd5b34610209575f366003190112610209576040515f6003548060011c90600181168015610d2d575b602083108114610655578285529081156106315750600114610ccf576105cf836105c381850382610e42565b91905060035f527fc2575a0e9e593c00f959f8c92f12db2869c3395a3b0502d05e2516446f71f85b915f905b808210610d13575090915081016020016105c36105b3565b919260018160209254838588010152019101909291610cfb565b91607f1691610ca3565b34610209575f36600319011261020957602061032e610e85565b602060409281835280519182918282860152018484015e5f828201840152601f01601f1916010190565b3461020957602036600319011261020957602061032e600435610f56565b600435906001600160a01b038216820361020957565b602435906001600160a01b038216820361020957565b3461020957602036600319011261020957610dde610d99565b5060206040515f198152f35b606090600319011261020957600435906024356001600160a01b038116810361020957906044356001600160a01b03811681036102095790565b3461020957602036600319011261020957602061032e600435610fad565b90601f8019910116810190811067ffffffffffffffff821117610e6457604052565b634e487b7160e01b5f52604160045260245ffd5b9190820180921161097557565b6040516370a0823160e01b81523060048201526020816024817f00000000000000000000000000000000000000000000000000000000000000006001600160a01b03165afa908115610f19575f91610ee7575b50600181018091116109755790565b90506020813d602011610f11575b81610f0260209383610e42565b8101031261020957515f610ed8565b3d9150610ef5565b6040513d5f823e3d90fd5b610f2c610e85565b6001810180911161097557610f5391600191610f4d6002546103e890610e78565b91611332565b90565b610f5e610e85565b6001810180911161097557610f53915f91610f4d6002546103e890610e78565b610f8d6002546103e890610e78565b90610f96610e85565b6001810180911161097557610f5392600192611332565b610fbc6002546103e890610e78565b90610fc5610e85565b6001810180911161097557610f53925f92611332565b6001600160a01b039081165f818152600160209081526040808320948616835293905291909120549291905f198410611015575b50505050565b82841061105b578015610c69576001600160a01b03821615610c56575f52600160205260405f209060018060a01b03165f5260205260405f20910390555f80808061100f565b508290637dc7a0d960e11b5f5260018060a01b031660045260245260445260645ffd5b6001600160a01b0316908115611128576001600160a01b031691821561111557815f525f60205260405f20548181106110fc57817fddf252ad1be2c89b69c2b068fc378daa952ba7f163c4a11628f55a4df523b3ef92602092855f525f84520360405f2055845f525f825260405f20818154019055604051908152a3565b8263391434e360e21b5f5260045260245260445260645ffd5b63ec442f0560e01b5f525f60045260245ffd5b634b637e8f60e11b5f525f60045260245ffd5b6005546001600160a01b031633036107a657565b60025f5160206115575f395f51905f5254146111785760025f5160206115575f395f51905f5255565b633ee5aeb560e01b5f5260045ffd5b916040519163a9059cbb60e01b5f5260018060a01b031660045260245260205f60448180865af19060015f51148216156111e7575b604052156111c75750565b635274afe760e01b5f9081526001600160a01b0391909116600452602490fd5b9060018115166111ff57823b15153d151616906111bc565b503d5f823e3d90fd5b6040516323b872dd60e01b5f9081526001600160a01b0392831660048190523060245260448690529493927f000000000000000000000000000000000000000000000000000000000000000016919060209060648180865af19060015f511482161561131a575b6040525f6060521561130857506001600160a01b0316928315611115577fdcbc1c05240f31ff3ad067ef1ee35ce4997762752e3a095284754544f4c709d791816112bd604093600254610e78565b600255855f525f602052825f20818154019055855f7fddf252ad1be2c89b69c2b068fc378daa952ba7f163c4a11628f55a4df523b3ef60208651858152a382519182526020820152a3565b635274afe760e01b5f5260045260245ffd5b9060018115166111ff57823b15153d1516169061126f565b929161133f8183866114b7565b926004811015611390576001809116149182611365575b5050610f539250151590610e78565b908092501561137c57610f53930915155f80611356565b634e487b7160e01b5f52601260045260245ffd5b634e487b7160e01b5f52602160045260245ffd5b6001600160a01b038084169590821693909182908786036114a6575b505050841561112857845f525f60205260405f205481811061148d5791816040927ffbde797d201c681b91056529119e0b02407c7bb96a4a2c75c01fc9667232c8db94885f525f60205203835f205580600254036002555f877fddf252ad1be2c89b69c2b068fc378daa952ba7f163c4a11628f55a4df523b3ef60208651858152a361147686837f00000000000000000000000000000000000000000000000000000000000000006001600160a01b0316611187565b825195865260208601526001600160a01b031693a4565b8563391434e360e21b5f5260045260245260445260645ffd5b6114af92610fdb565b5f81816113c0565b90915f19838309928083029283808610950394808603951461154857848311156115305790829109815f0382168092046002816003021880820260020302808202600203028082026002030280820260020302808202600203028091026002030293600183805f03040190848311900302920304170290565b82634e487b715f52156003026011186020526024601cfd5b50509150811561137c57049056fe9b779b17422d0df92223018b32b4d1fa46e071723d6817e2486d003becc55f00a2646970667358221220ec85ddff550d391fedcaee45e3d38dfe1f6eb3ecd4993e05380628b77f764b6f64736f6c63430008220033",
    "sourcePath": "/home/raigoza/Desktop/qie-hackathon/src/QIEVault.sol",
    "compiler": {
        "name": "solc",
        "version": "0.8.34+commit.80d5c536"
    },
    "functionHashes": {
        "BPS()": "249d39e9",
        "MAX_ALLOCATION_BPS()": "b308a8e8",
        "acceptOwnership()": "79ba5097",
        "allowance(address,address)": "dd62ed3e",
        "approve(address,uint256)": "095ea7b3",
        "asset()": "38d52e0f",
        "balanceOf(address)": "70a08231",
        "convertToAssets(uint256)": "07a2d13a",
        "convertToShares(uint256)": "c6e6f592",
        "decimals()": "313ce567",
        "deposit(uint256,address)": "6e553f65",
        "depositCount(address)": "f4443d9a",
        "firstDepositAt(address)": "6d3d3888",
        "maxDeposit(address)": "402d267d",
        "maxMint(address)": "c63d75b6",
        "maxRedeem(address)": "d905777e",
        "maxWithdraw(address)": "ce96cb77",
        "mint(uint256,address)": "94bf804d",
        "name()": "06fdde03",
        "owner()": "8da5cb5b",
        "pendingOwner()": "e30c3978",
        "poolAllocationBps()": "32930b32",
        "predictionPool()": "c4da2645",
        "previewDeposit(uint256)": "ef8b30f7",
        "previewMint(uint256)": "b3d7f6b9",
        "previewRedeem(uint256)": "4cdad506",
        "previewWithdraw(uint256)": "0a28a477",
        "receiveYield(uint256)": "a8cb4d22",
        "redeem(uint256,address,address)": "ba087652",
        "renounceOwnership()": "715018a6",
        "setPoolAllocation(uint256)": "7d6765cf",
        "setPredictionPool(address)": "6a786c53",
        "symbol()": "95d89b41",
        "totalAssets()": "01e1d114",
        "totalDeposited(address)": "53055481",
        "totalSupply()": "18160ddd",
        "transfer(address,uint256)": "a9059cbb",
        "transferFrom(address,address,uint256)": "23b872dd",
        "transferOwnership(address)": "f2fde38b",
        "withdraw(uint256,address,address)": "b460af94"
    },
    "gasEstimates": {
        "creation": {
            "codeDepositCost": "1109600",
            "executionCost": "infinite",
            "totalCost": "infinite"
        },
        "external": {
            "BPS()": "299",
            "MAX_ALLOCATION_BPS()": "717",
            "acceptOwnership()": "52678",
            "allowance(address,address)": "3335",
            "approve(address,uint256)": "24361",
            "asset()": "infinite",
            "balanceOf(address)": "2797",
            "convertToAssets(uint256)": "infinite",
            "convertToShares(uint256)": "infinite",
            "decimals()": "infinite",
            "deposit(uint256,address)": "infinite",
            "depositCount(address)": "3253",
            "firstDepositAt(address)": "2728",
            "maxDeposit(address)": "477",
            "maxMint(address)": "917",
            "maxRedeem(address)": "3171",
            "maxWithdraw(address)": "infinite",
            "mint(uint256,address)": "infinite",
            "name()": "infinite",
            "owner()": "2734",
            "pendingOwner()": "3064",
            "poolAllocationBps()": "2446",
            "predictionPool()": "2932",
            "previewDeposit(uint256)": "infinite",
            "previewMint(uint256)": "infinite",
            "previewRedeem(uint256)": "infinite",
            "previewWithdraw(uint256)": "infinite",
            "receiveYield(uint256)": "3825",
            "redeem(uint256,address,address)": "infinite",
            "renounceOwnership()": "52669",
            "setPoolAllocation(uint256)": "25895",
            "setPredictionPool(address)": "28072",
            "symbol()": "infinite",
            "totalAssets()": "infinite",
            "totalDeposited(address)": "2684",
            "totalSupply()": "2358",
            "transfer(address,uint256)": "51296",
            "transferFrom(address,address,uint256)": "75649",
            "transferOwnership(address)": "31080",
            "withdraw(uint256,address,address)": "infinite"
        },
        "internal": {
            "_convertToAssets(uint256,enum Math.Rounding)": "infinite",
            "_convertToShares(uint256,enum Math.Rounding)": "infinite",
            "_decimalsOffset()": "infinite"
        }
    }
}